{
  "_format": "hh-sol-artifact-1",
  "contractName": "DeadTokenRecovery",
  "sourceName": "contracts/DeadTokenRecovery.sol",
  "abi": [
    {
      "inputs": [
        {
          "internalType": "address",
          "name": "_dumperShield",
          "type": "address"
        },
        {
          "internalType": "address",
          "name": "_usdtAddress",
          "type": "address"
        },
        {
          "internalType": "address",
          "name": "_dVoucherAddress",
          "type": "address"
        },
        {
          "internalType": "address",
          "name": "_staking",
          "type": "address"
        },
        {
          "internalType": "address",
          "name": "_manager",
          "type": "address"
        }
      ],
      "stateMutability": "nonpayable",
      "type": "constructor"
    },
    {
      "anonymous": false,
      "inputs": [
        {
          "indexed": false,
          "internalType": "uint256",
          "name": "orderId",
          "type": "uint256"
        },
        {
          "indexed": false,
          "internalType": "address",
          "name": "buyer",
          "type": "address"
        },
        {
          "indexed": false,
          "internalType": "uint256",
          "name": "amount",
          "type": "uint256"
        },
        {
          "indexed": false,
          "internalType": "uint256",
          "name": "protectionAmount",
          "type": "uint256"
        },
        {
          "indexed": false,
          "internalType": "uint256",
          "name": "protectionExpiryTime",
          "type": "uint256"
        }
      ],
      "name": "BuyDVoucher",
      "type": "event"
    },
    {
      "anonymous": false,
      "inputs": [
        {
          "indexed": false,
          "internalType": "uint256",
          "name": "orderId",
          "type": "uint256"
        },
        {
          "indexed": false,
          "internalType": "uint256",
          "name": "statusOrder",
          "type": "uint256"
        },
        {
          "indexed": false,
          "internalType": "uint256",
          "name": "soldTime",
          "type": "uint256"
        },
        {
          "indexed": false,
          "internalType": "address",
          "name": "buyer",
          "type": "address"
        },
        {
          "indexed": false,
          "internalType": "uint256",
          "name": "claimAmount",
          "type": "uint256"
        }
      ],
      "name": "ClaimDownsideProtectionByBuyer",
      "type": "event"
    },
    {
      "anonymous": false,
      "inputs": [
        {
          "indexed": false,
          "internalType": "uint256",
          "name": "orderId",
          "type": "uint256"
        },
        {
          "indexed": false,
          "internalType": "uint256",
          "name": "statusOrder",
          "type": "uint256"
        },
        {
          "indexed": false,
          "internalType": "uint256",
          "name": "soldTime",
          "type": "uint256"
        },
        {
          "indexed": false,
          "internalType": "uint256",
          "name": "claimAmount",
          "type": "uint256"
        }
      ],
      "name": "ClaimDownsideProtectionByThis",
      "type": "event"
    },
    {
      "anonymous": false,
      "inputs": [
        {
          "indexed": false,
          "internalType": "address",
          "name": "sender",
          "type": "address"
        },
        {
          "indexed": false,
          "internalType": "address",
          "name": "token",
          "type": "address"
        },
        {
          "indexed": false,
          "internalType": "uint256",
          "name": "amount",
          "type": "uint256"
        }
      ],
      "name": "DepositToken",
      "type": "event"
    },
    {
      "anonymous": false,
      "inputs": [
        {
          "indexed": true,
          "internalType": "address",
          "name": "previousOwner",
          "type": "address"
        },
        {
          "indexed": true,
          "internalType": "address",
          "name": "newOwner",
          "type": "address"
        }
      ],
      "name": "OwnershipTransferred",
      "type": "event"
    },
    {
      "inputs": [],
      "name": "USDT",
      "outputs": [
        {
          "internalType": "contract IERC20",
          "name": "",
          "type": "address"
        }
      ],
      "stateMutability": "view",
      "type": "function"
    },
    {
      "inputs": [
        {
          "internalType": "uint256",
          "name": "_amount",
          "type": "uint256"
        }
      ],
      "name": "buyDVoucher",
      "outputs": [],
      "stateMutability": "nonpayable",
      "type": "function"
    },
    {
      "inputs": [
        {
          "internalType": "uint256",
          "name": "_orderId",
          "type": "uint256"
        },
        {
          "internalType": "uint256[]",
          "name": "_tokenIds",
          "type": "uint256[]"
        }
      ],
      "name": "claimDownsideProtectionAmount",
      "outputs": [],
      "stateMutability": "nonpayable",
      "type": "function"
    },
    {
      "inputs": [],
      "name": "dVoucher",
      "outputs": [
        {
          "internalType": "contract DVoucherNFT",
          "name": "",
          "type": "address"
        }
      ],
      "stateMutability": "view",
      "type": "function"
    },
    {
      "inputs": [
        {
          "internalType": "address",
          "name": "_tokenAddress",
          "type": "address"
        },
        {
          "internalType": "uint256",
          "name": "_amount",
          "type": "uint256"
        }
      ],
      "name": "depositToken",
      "outputs": [],
      "stateMutability": "nonpayable",
      "type": "function"
    },
    {
      "inputs": [],
      "name": "dumperShield",
      "outputs": [
        {
          "internalType": "address",
          "name": "",
          "type": "address"
        }
      ],
      "stateMutability": "view",
      "type": "function"
    },
    {
      "inputs": [],
      "name": "orderIdCount",
      "outputs": [
        {
          "internalType": "uint256",
          "name": "",
          "type": "uint256"
        }
      ],
      "stateMutability": "view",
      "type": "function"
    },
    {
      "inputs": [
        {
          "internalType": "uint256",
          "name": "",
          "type": "uint256"
        }
      ],
      "name": "orders",
      "outputs": [
        {
          "internalType": "enum DeadTokenRecovery.OrderStatus",
          "name": "statusOrder",
          "type": "uint8"
        },
        {
          "internalType": "uint256",
          "name": "dVoucherAmount",
          "type": "uint256"
        },
        {
          "internalType": "address",
          "name": "buyerAddress",
          "type": "address"
        },
        {
          "internalType": "uint256",
          "name": "protectionAmount",
          "type": "uint256"
        },
        {
          "internalType": "uint256",
          "name": "protectionTime",
          "type": "uint256"
        },
        {
          "internalType": "uint256",
          "name": "soldTime",
          "type": "uint256"
        }
      ],
      "stateMutability": "view",
      "type": "function"
    },
    {
      "inputs": [],
      "name": "owner",
      "outputs": [
        {
          "internalType": "address",
          "name": "",
          "type": "address"
        }
      ],
      "stateMutability": "view",
      "type": "function"
    },
    {
      "inputs": [],
      "name": "renounceOwnership",
      "outputs": [],
      "stateMutability": "nonpayable",
      "type": "function"
    },
    {
      "inputs": [
        {
          "internalType": "address",
          "name": "_manager",
          "type": "address"
        }
      ],
      "name": "setManager",
      "outputs": [],
      "stateMutability": "nonpayable",
      "type": "function"
    },
    {
      "inputs": [],
      "name": "staking",
      "outputs": [
        {
          "internalType": "contract IStaking",
          "name": "",
          "type": "address"
        }
      ],
      "stateMutability": "view",
      "type": "function"
    },
    {
      "inputs": [
        {
          "internalType": "address",
          "name": "newOwner",
          "type": "address"
        }
      ],
      "name": "transferOwnership",
      "outputs": [],
      "stateMutability": "nonpayable",
      "type": "function"
    }
  ],
  "bytecode": "0x60806040523480156200001157600080fd5b5060405162001d5c38038062001d5c833981016040819052620000349162000116565b60016000556200004433620000a7565b600280546001600160a01b03199081166001600160a01b0397881617909155600480548216958716959095179094556005805485169386169390931790925560068054841691851691909117905560038054909216921691909117905562000186565b600180546001600160a01b038381166001600160a01b0319831681179093556040519116919082907f8be0079c531659141344cd1fd0a4f28419497f9722a3daafe3b4186f6b6457e090600090a35050565b80516001600160a01b03811681146200011157600080fd5b919050565b600080600080600060a086880312156200012f57600080fd5b6200013a86620000f9565b94506200014a60208701620000f9565b93506200015a60408701620000f9565b92506200016a60608701620000f9565b91506200017a60808701620000f9565b90509295509295909350565b611bc680620001966000396000f3fe608060405234801561001057600080fd5b50600436106100cf5760003560e01c8063715018a61161008c578063c54e44eb11610066578063c54e44eb146101e5578063d0ebdbe7146101f8578063e09830b01461020b578063f2fde38b1461021e57600080fd5b8063715018a6146101695780638da5cb5b14610171578063a85c38ef1461018257600080fd5b80630ac21179146100d4578063338b5dea146100e95780634830bd15146100fc5780634cf088d91461012c57806354a853fb1461013f5780636d9ee97914610152575b600080fd5b6100e76100e23660046118fd565b610231565b005b6100e76100f736600461187d565b610a4d565b60055461010f906001600160a01b031681565b6040516001600160a01b0390911681526020015b60405180910390f35b60065461010f906001600160a01b031681565b60025461010f906001600160a01b031681565b61015b60075481565b604051908152602001610123565b6100e7610d14565b6001546001600160a01b031661010f565b6101d36101903660046118cb565b60086020526000908152604090208054600182015460028301546003840154600485015460059095015460ff9094169492936001600160a01b0390921692909186565b604051610123969594939291906119df565b60045461010f906001600160a01b031681565b6100e7610206366004611843565b610d28565b6100e76102193660046118cb565b610d52565b6100e761022c366004611843565b6113ad565b600083815260086020526040812090815460ff16600281111561025657610256611b4f565b1461029e5760405162461bcd60e51b8152602060048201526013602482015272496e76616c6964204f7264657253746174757360681b60448201526064015b60405180910390fd5b806004015481600501546102b29190611a66565b421180156102c35750600581015415155b156104e757811561030c5760405162461bcd60e51b8152602060048201526013602482015272139bdd081b995959081d1a1a5cc8199a595b19606a1b6044820152606401610295565b805460ff19166001178155600654604051630f41a04d60e11b81523060048201526001600160a01b0390911690631e83409a90602401600060405180830381600087803b15801561035c57600080fd5b505af1158015610370573d6000803e3d6000fd5b505060065460038401546040516305c2fbcf60e31b81526001600160a01b039092169350632e17de7892506103ab9160040190815260200190565b600060405180830381600087803b1580156103c557600080fd5b505af11580156103d9573d6000803e3d6000fd5b5050600354600480546040516370a0823160e01b8152309281019290925261047b94506001600160a01b03928316935091909116906370a08231906024015b60206040518083038186803b15801561043057600080fd5b505afa158015610444573d6000803e3d6000fd5b505050506040513d601f19601f8201168201806040525081019061046891906118e4565b6004546001600160a01b03169190611426565b80547f5b2d616eb6f23af464b91eb889e7214505f7779a80bf191834f8c3a34573f45490859060ff1660028111156104b5576104b5611b4f565b6005840154600385015460408051948552602085019390935291830152606082015260800160405180910390a1610a47565b806004015481600501546104fb9190611a66565b421115801561050d5750600581015415155b15610a475760028101546001600160a01b031633146105655760405162461bcd60e51b81526020600482015260146024820152734f6e6c792062757965722063616e20636c61696d60601b6044820152606401610295565b816105a05760405162461bcd60e51b815260206004820152600b60248201526a04d757374206265203e20360ac1b6044820152606401610295565b6000805b83811015610665576005546001600160a01b031663c7c54fa38686848181106105cf576105cf611b65565b905060200201356040518263ffffffff1660e01b81526004016105f491815260200190565b60206040518083038186803b15801561060c57600080fd5b505afa158015610620573d6000803e3d6000fd5b505050506040513d601f19601f82011682018060405250810190610644919061197c565b6106519060ff1683611a66565b91508061065d81611af4565b9150506105a4565b5080826001015410156106ba5760405162461bcd60e51b815260206004820181905260248201527f4e6f206d6f7265207468616e20646f776e736964652070726f74656374696f6e6044820152606401610295565b808260010160008282546106ce9190611ab1565b90915550506004546000906106eb906001600160a01b031661148e565b6106f59083611a92565b90508083600301600082825461070b9190611ab1565b9091555050600183015461072557825460ff191660021783555b60005b848110156108c9576005546001600160a01b0316636352211e87878481811061075357610753611b65565b905060200201356040518263ffffffff1660e01b815260040161077891815260200190565b60206040518083038186803b15801561079057600080fd5b505afa1580156107a4573d6000803e3d6000fd5b505050506040513d601f19601f820116820180604052508101906107c89190611860565b6001600160a01b0316336001600160a01b0316146108215760405162461bcd60e51b8152602060048201526016602482015275313abcb2b91034b9903737ba1027232a1037bbb732b960511b6044820152606401610295565b6005546001600160a01b03166342842e0e33600089898681811061084757610847611b65565b6040516001600160e01b031960e088901b1681526001600160a01b03958616600482015294909316602485015250602090910201356044820152606401600060405180830381600087803b15801561089e57600080fd5b505af11580156108b2573d6000803e3d6000fd5b5050505080806108c190611af4565b915050610728565b50600654604051630f41a04d60e11b81523060048201526001600160a01b0390911690631e83409a90602401600060405180830381600087803b15801561090f57600080fd5b505af1158015610923573d6000803e3d6000fd5b50506006546040516305c2fbcf60e31b8152600481018590526001600160a01b039091169250632e17de789150602401600060405180830381600087803b15801561096d57600080fd5b505af1158015610981573d6000803e3d6000fd5b505060045461099d92506001600160a01b031690503383611426565b600354600480546040516370a0823160e01b815230928101929092526109da926001600160a01b03908116929116906370a0823190602401610418565b82547f7c56a9a219d99aa3ca528d65e1ab38135bbea487ea0e6da20fd2315aab904ecf90879060ff166002811115610a1457610a14611b4f565b6005860154604080519384526020840192909252908201523360608201526080810183905260a00160405180910390a150505b50505050565b333b15610a935760405162461bcd60e51b815260206004820152601460248201527310dbdb9d1c9858dd081b9bdd08185b1b1bddd95960621b6044820152606401610295565b333214610ae25760405162461bcd60e51b815260206004820152601a60248201527f50726f787920636f6e7472616374206e6f7420616c6c6f7765640000000000006044820152606401610295565b60026000541415610b355760405162461bcd60e51b815260206004820152601f60248201527f5265656e7472616e637947756172643a207265656e7472616e742063616c6c006044820152606401610295565b60026000556040516370a0823160e01b815233600482015281906001600160a01b038416906370a082319060240160206040518083038186803b158015610b7b57600080fd5b505afa158015610b8f573d6000803e3d6000fd5b505050506040513d601f19601f82011682018060405250810190610bb391906118e4565b1015610bf85760405162461bcd60e51b8152602060048201526014602482015273496e73756666696369656e742062616c616e636560601b6044820152606401610295565b600254610c14906001600160a01b03848116913391168461150a565b6064826001600160a01b031663313ce5676040518163ffffffff1660e01b815260040160206040518083038186803b158015610c4f57600080fd5b505afa158015610c63573d6000803e3d6000fd5b505050506040513d601f19601f82011682018060405250810190610c87919061197c565b610c949060ff1683611a7e565b610c9e9190611a7e565b3360009081526009602052604081208054909190610cbd908490611a66565b9091555050604080513381526001600160a01b03841660208201529081018290527f4b3f81827ede20c81afbf1bb77b954afcdcae24d391d99042310cb1d9210dd579060600160405180910390a150506001600055565b610d1c611542565b610d26600061159c565b565b610d30611542565b600380546001600160a01b0319166001600160a01b0392909216919091179055565b333b15610d985760405162461bcd60e51b815260206004820152601460248201527310dbdb9d1c9858dd081b9bdd08185b1b1bddd95960621b6044820152606401610295565b333214610de75760405162461bcd60e51b815260206004820152601a60248201527f50726f787920636f6e7472616374206e6f7420616c6c6f7765640000000000006044820152606401610295565b60026000541415610e3a5760405162461bcd60e51b815260206004820152601f60248201527f5265656e7472616e637947756172643a207265656e7472616e742063616c6c006044820152606401610295565b6002600090815533815260096020526040902054811115610e9d5760405162461bcd60e51b815260206004820152601960248201527f506c65617365206465706f736974206d6f726520746f6b656e000000000000006044820152606401610295565b600454600090610eb5906001600160a01b031661148e565b610ebf9083611a92565b600480546040516370a0823160e01b8152339281019290925291925082916001600160a01b0316906370a082319060240160206040518083038186803b158015610f0857600080fd5b505afa158015610f1c573d6000803e3d6000fd5b505050506040513d601f19601f82011682018060405250810190610f4091906118e4565b1015610f825760405162461bcd60e51b8152602060048201526011602482015270125b9cdd59999a58da595b9d081554d115607a1b6044820152606401610295565b600454610f9a906001600160a01b031633308461150a565b6004805460065460405163095ea7b360e01b81526001600160a01b039182169381019390935260248301849052169063095ea7b390604401602060405180830381600087803b158015610fec57600080fd5b505af1158015611000573d6000803e3d6000fd5b505050506040513d601f19601f8201168201806040525081019061102491906118a9565b50600654604051637acb775760e01b8152600481018390523060248201526001600160a01b0390911690637acb775790604401602060405180830381600087803b15801561107157600080fd5b505af1158015611085573d6000803e3d6000fd5b505050506040513d601f19601f820116820180604052508101906110a991906118a9565b5033600090815260096020526040812080548492906110c9908490611ab1565b9091555050600780549060006110de83611af4565b90915550506007546000908152600860205260408120805460ff19168155600181018490556002810180546001600160a01b03191633179055600381018390556305a39a8060048201554260058201559061113b6103e885611a7e565b905080156111aa57600554604051632769c3d960e11b81526001600160a01b0390911690634ed387b290611177903390600490869082016119bb565b600060405180830381600087803b15801561119157600080fd5b505af11580156111a5573d6000803e3d6000fd5b505050505b60646111b86103e886611b0f565b6111c29190611a7e565b9050801561123257600554604051632769c3d960e11b81526001600160a01b0390911690634ed387b2906111ff90339060039086906004016119bb565b600060405180830381600087803b15801561121957600080fd5b505af115801561122d573d6000803e3d6000fd5b505050505b600a61123f606486611b0f565b6112499190611a7e565b905080156112b957600554604051632769c3d960e11b81526001600160a01b0390911690634ed387b29061128690339060029086906004016119bb565b600060405180830381600087803b1580156112a057600080fd5b505af11580156112b4573d6000803e3d6000fd5b505050505b6112c4600a85611b0f565b9050801561133457600554604051632769c3d960e11b81526001600160a01b0390911690634ed387b29061130190339060019086906004016119bb565b600060405180830381600087803b15801561131b57600080fd5b505af115801561132f573d6000803e3d6000fd5b505050505b7f6848b31ae96fe8bb949f4d341781389798a9b1f32a8e6a85600bea44adfe6e9b6007543386868660040154876005015461136f9190611a66565b604080519586526001600160a01b039094166020860152928401919091526060830152608082015260a00160405180910390a1505060016000555050565b6113b5611542565b6001600160a01b03811661141a5760405162461bcd60e51b815260206004820152602660248201527f4f776e61626c653a206e6577206f776e657220697320746865207a65726f206160448201526564647265737360d01b6064820152608401610295565b6114238161159c565b50565b6040516001600160a01b03831660248201526044810182905261148990849063a9059cbb60e01b906064015b60408051601f198184030181529190526020810180516001600160e01b03166001600160e01b0319909316929092179091526115ee565b505050565b6000816001600160a01b031663313ce5676040518163ffffffff1660e01b815260040160206040518083038186803b1580156114c957600080fd5b505afa1580156114dd573d6000803e3d6000fd5b505050506040513d601f19601f82011682018060405250810190611501919061197c565b60ff1692915050565b6040516001600160a01b0380851660248301528316604482015260648101829052610a479085906323b872dd60e01b90608401611452565b6001546001600160a01b03163314610d265760405162461bcd60e51b815260206004820181905260248201527f4f776e61626c653a2063616c6c6572206973206e6f7420746865206f776e65726044820152606401610295565b600180546001600160a01b038381166001600160a01b0319831681179093556040519116919082907f8be0079c531659141344cd1fd0a4f28419497f9722a3daafe3b4186f6b6457e090600090a35050565b6000611643826040518060400160405280602081526020017f5361666545524332303a206c6f772d6c6576656c2063616c6c206661696c6564815250856001600160a01b03166116c09092919063ffffffff16565b805190915015611489578080602001905181019061166191906118a9565b6114895760405162461bcd60e51b815260206004820152602a60248201527f5361666545524332303a204552433230206f7065726174696f6e20646964206e6044820152691bdd081cdd58d8d9595960b21b6064820152608401610295565b60606116cf84846000856116d9565b90505b9392505050565b60608247101561173a5760405162461bcd60e51b815260206004820152602660248201527f416464726573733a20696e73756666696369656e742062616c616e636520666f6044820152651c8818d85b1b60d21b6064820152608401610295565b6001600160a01b0385163b6117915760405162461bcd60e51b815260206004820152601d60248201527f416464726573733a2063616c6c20746f206e6f6e2d636f6e74726163740000006044820152606401610295565b600080866001600160a01b031685876040516117ad919061199f565b60006040518083038185875af1925050503d80600081146117ea576040519150601f19603f3d011682016040523d82523d6000602084013e6117ef565b606091505b50915091506117ff82828661180a565b979650505050505050565b606083156118195750816116d2565b8251156118295782518084602001fd5b8160405162461bcd60e51b81526004016102959190611a33565b60006020828403121561185557600080fd5b81356116d281611b7b565b60006020828403121561187257600080fd5b81516116d281611b7b565b6000806040838503121561189057600080fd5b823561189b81611b7b565b946020939093013593505050565b6000602082840312156118bb57600080fd5b815180151581146116d257600080fd5b6000602082840312156118dd57600080fd5b5035919050565b6000602082840312156118f657600080fd5b5051919050565b60008060006040848603121561191257600080fd5b83359250602084013567ffffffffffffffff8082111561193157600080fd5b818601915086601f83011261194557600080fd5b81358181111561195457600080fd5b8760208260051b850101111561196957600080fd5b6020830194508093505050509250925092565b60006020828403121561198e57600080fd5b815160ff811681146116d257600080fd5b600082516119b1818460208701611ac8565b9190910192915050565b6001600160a01b0393909316835260ff919091166020830152604082015260600190565b60c0810160038810611a0157634e487b7160e01b600052602160045260246000fd5b96815260208101959095526001600160a01b039390931660408501526060840191909152608083015260a09091015290565b6020815260008251806020840152611a52816040850160208701611ac8565b601f01601f19169190910160400192915050565b60008219821115611a7957611a79611b23565b500190565b600082611a8d57611a8d611b39565b500490565b6000816000190483118215151615611aac57611aac611b23565b500290565b600082821015611ac357611ac3611b23565b500390565b60005b83811015611ae3578181015183820152602001611acb565b83811115610a475750506000910152565b6000600019821415611b0857611b08611b23565b5060010190565b600082611b1e57611b1e611b39565b500690565b634e487b7160e01b600052601160045260246000fd5b634e487b7160e01b600052601260045260246000fd5b634e487b7160e01b600052602160045260246000fd5b634e487b7160e01b600052603260045260246000fd5b6001600160a01b038116811461142357600080fdfea26469706673582212207d5b8df68136bc3c19f8ed3e426d8ef00ab217c4d14d2c44aa2effe52fdb799b64736f6c63430008070033",
  "linkReferences": {},
  "deployedLinkReferences": {}
}