{
  "_format": "hh-sol-artifact-1",
  "contractName": "DVoucherMinter",
  "sourceName": "contracts/DVoucherMinter.sol",
  "abi": [
    {
      "inputs": [
        {
          "internalType": "address",
          "name": "_dVoucherAddress",
          "type": "address"
        }
      ],
      "stateMutability": "nonpayable",
      "type": "constructor"
    },
    {
      "anonymous": false,
      "inputs": [
        {
          "indexed": false,
          "internalType": "uint256",
          "name": "dVoucherAmount",
          "type": "uint256"
        },
        {
          "indexed": true,
          "internalType": "address",
          "name": "userAddress",
          "type": "address"
        },
        {
          "indexed": false,
          "internalType": "uint8",
          "name": "nonce",
          "type": "uint8"
        }
      ],
      "name": "DVoucherClaimed",
      "type": "event"
    },
    {
      "anonymous": false,
      "inputs": [
        {
          "indexed": true,
          "internalType": "address",
          "name": "previousOwner",
          "type": "address"
        },
        {
          "indexed": true,
          "internalType": "address",
          "name": "newOwner",
          "type": "address"
        }
      ],
      "name": "OwnershipTransferred",
      "type": "event"
    },
    {
      "inputs": [
        {
          "internalType": "uint256",
          "name": "_dVoucherAmount",
          "type": "uint256"
        },
        {
          "internalType": "address",
          "name": "_userAddress",
          "type": "address"
        },
        {
          "internalType": "uint8",
          "name": "_nonce",
          "type": "uint8"
        }
      ],
      "name": "claim",
      "outputs": [],
      "stateMutability": "nonpayable",
      "type": "function"
    },
    {
      "inputs": [
        {
          "internalType": "address",
          "name": "",
          "type": "address"
        },
        {
          "internalType": "uint8",
          "name": "",
          "type": "uint8"
        }
      ],
      "name": "claimedAmount",
      "outputs": [
        {
          "internalType": "uint256",
          "name": "",
          "type": "uint256"
        }
      ],
      "stateMutability": "view",
      "type": "function"
    },
    {
      "inputs": [],
      "name": "dVoucher",
      "outputs": [
        {
          "internalType": "contract DVoucherNFT",
          "name": "",
          "type": "address"
        }
      ],
      "stateMutability": "view",
      "type": "function"
    },
    {
      "inputs": [
        {
          "internalType": "address",
          "name": "",
          "type": "address"
        }
      ],
      "name": "isClaimable",
      "outputs": [
        {
          "internalType": "bool",
          "name": "",
          "type": "bool"
        }
      ],
      "stateMutability": "view",
      "type": "function"
    },
    {
      "inputs": [],
      "name": "owner",
      "outputs": [
        {
          "internalType": "address",
          "name": "",
          "type": "address"
        }
      ],
      "stateMutability": "view",
      "type": "function"
    },
    {
      "inputs": [],
      "name": "renounceOwnership",
      "outputs": [],
      "stateMutability": "nonpayable",
      "type": "function"
    },
    {
      "inputs": [
        {
          "internalType": "address",
          "name": "_claimer",
          "type": "address"
        },
        {
          "internalType": "bool",
          "name": "_isClaimable",
          "type": "bool"
        }
      ],
      "name": "setClaimable",
      "outputs": [],
      "stateMutability": "nonpayable",
      "type": "function"
    },
    {
      "inputs": [
        {
          "internalType": "address",
          "name": "newOwner",
          "type": "address"
        }
      ],
      "name": "transferOwnership",
      "outputs": [],
      "stateMutability": "nonpayable",
      "type": "function"
    }
  ],
  "bytecode": "0x608060405234801561001057600080fd5b506040516108d43803806108d483398101604081905261002f916100ad565b6100383361005d565b600180546001600160a01b0319166001600160a01b03929092169190911790556100dd565b600080546001600160a01b038381166001600160a01b0319831681178455604051919092169283917f8be0079c531659141344cd1fd0a4f28419497f9722a3daafe3b4186f6b6457e09190a35050565b6000602082840312156100bf57600080fd5b81516001600160a01b03811681146100d657600080fd5b9392505050565b6107e8806100ec6000396000f3fe608060405234801561001057600080fd5b50600436106100885760003560e01c80638da5cb5b1161005b5780638da5cb5b1461010d578063ca75a48a1461011e578063e3c3136614610131578063f2fde38b1461016a57600080fd5b8063292fec041461008d5780634830bd15146100c557806359d8480c146100f0578063715018a614610105575b600080fd5b6100b061009b366004610683565b60036020526000908152604090205460ff1681565b60405190151581526020015b60405180910390f35b6001546100d8906001600160a01b031681565b6040516001600160a01b0390911681526020016100bc565b6101036100fe3660046106a5565b61017d565b005b6101036101b0565b6000546001600160a01b03166100d8565b61010361012c366004610714565b6101c4565b61015c61013f3660046106e1565b600260209081526000928352604080842090915290825290205481565b6040519081526020016100bc565b610103610178366004610683565b610533565b6101856105ac565b6001600160a01b03919091166000908152600360205260409020805460ff1916911515919091179055565b6101b86105ac565b6101c26000610606565b565b3360009081526003602052604090205460ff166102175760405162461bcd60e51b815260206004820152600c60248201526b10db185a5b4819195b9a595960a21b60448201526064015b60405180910390fd5b600083116102555760405162461bcd60e51b815260206004820152600b60248201526a04d757374206265203e20360ac1b604482015260640161020e565b6001600160a01b038216600090815260026020908152604080832060ff85168452909152902054156102bb5760405162461bcd60e51b815260206004820152600f60248201526e105b1c9958591e4810db185a5b5959608a1b604482015260640161020e565b6001600160a01b038216600090815260026020908152604080832060ff8516845290915281208490556102f06103e885610774565b9050801561035f57600154604051632769c3d960e11b81526001600160a01b0390911690634ed387b29061032c90869060049086908201610750565b600060405180830381600087803b15801561034657600080fd5b505af115801561035a573d6000803e3d6000fd5b505050505b606461036d6103e886610788565b6103779190610774565b905080156103e757600154604051632769c3d960e11b81526001600160a01b0390911690634ed387b2906103b49086906003908690600401610750565b600060405180830381600087803b1580156103ce57600080fd5b505af11580156103e2573d6000803e3d6000fd5b505050505b600a6103f4606486610788565b6103fe9190610774565b9050801561046e57600154604051632769c3d960e11b81526001600160a01b0390911690634ed387b29061043b9086906002908690600401610750565b600060405180830381600087803b15801561045557600080fd5b505af1158015610469573d6000803e3d6000fd5b505050505b610479600a85610788565b905080156104e75760018054604051632769c3d960e11b81526001600160a01b0390911691634ed387b2916104b49187918690600401610750565b600060405180830381600087803b1580156104ce57600080fd5b505af11580156104e2573d6000803e3d6000fd5b505050505b6040805185815260ff841660208201526001600160a01b038516917f3b3203e3aec2756c0c4771c81cc4ab5d3880195198a11e758e5d826cbe75b62e910160405180910390a250505050565b61053b6105ac565b6001600160a01b0381166105a05760405162461bcd60e51b815260206004820152602660248201527f4f776e61626c653a206e6577206f776e657220697320746865207a65726f206160448201526564647265737360d01b606482015260840161020e565b6105a981610606565b50565b6000546001600160a01b031633146101c25760405162461bcd60e51b815260206004820181905260248201527f4f776e61626c653a2063616c6c6572206973206e6f7420746865206f776e6572604482015260640161020e565b600080546001600160a01b038381166001600160a01b0319831681178455604051919092169283917f8be0079c531659141344cd1fd0a4f28419497f9722a3daafe3b4186f6b6457e09190a35050565b80356001600160a01b038116811461066d57600080fd5b919050565b803560ff8116811461066d57600080fd5b60006020828403121561069557600080fd5b61069e82610656565b9392505050565b600080604083850312156106b857600080fd5b6106c183610656565b9150602083013580151581146106d657600080fd5b809150509250929050565b600080604083850312156106f457600080fd5b6106fd83610656565b915061070b60208401610672565b90509250929050565b60008060006060848603121561072957600080fd5b8335925061073960208501610656565b915061074760408501610672565b90509250925092565b6001600160a01b0393909316835260ff919091166020830152604082015260600190565b6000826107835761078361079c565b500490565b6000826107975761079761079c565b500690565b634e487b7160e01b600052601260045260246000fdfea2646970667358221220e2c5d96dc8db60c99de22b287d41ec7c750c6d16f29ef1af2f550357b253588164736f6c63430008070033",
  "linkReferences": {},
  "deployedLinkReferences": {}
}