{
  "_format": "hh-sol-artifact-1",
  "contractName": "DVoucherNFT",
  "sourceName": "contracts/DVoucherNFT.sol",
  "abi": [
    {
      "inputs": [
        {
          "internalType": "string",
          "name": "name",
          "type": "string"
        },
        {
          "internalType": "string",
          "name": "symbol",
          "type": "string"
        }
      ],
      "stateMutability": "nonpayable",
      "type": "constructor"
    },
    {
      "anonymous": false,
      "inputs": [
        {
          "indexed": true,
          "internalType": "address",
          "name": "owner",
          "type": "address"
        },
        {
          "indexed": true,
          "internalType": "address",
          "name": "approved",
          "type": "address"
        },
        {
          "indexed": true,
          "internalType": "uint256",
          "name": "tokenId",
          "type": "uint256"
        }
      ],
      "name": "Approval",
      "type": "event"
    },
    {
      "anonymous": false,
      "inputs": [
        {
          "indexed": true,
          "internalType": "address",
          "name": "owner",
          "type": "address"
        },
        {
          "indexed": true,
          "internalType": "address",
          "name": "operator",
          "type": "address"
        },
        {
          "indexed": false,
          "internalType": "bool",
          "name": "approved",
          "type": "bool"
        }
      ],
      "name": "ApprovalForAll",
      "type": "event"
    },
    {
      "anonymous": false,
      "inputs": [
        {
          "indexed": false,
          "internalType": "uint256",
          "name": "tokenId",
          "type": "uint256"
        },
        {
          "indexed": false,
          "internalType": "uint8",
          "name": "nominal",
          "type": "uint8"
        },
        {
          "indexed": false,
          "internalType": "address",
          "name": "_to",
          "type": "address"
        },
        {
          "indexed": false,
          "internalType": "uint256",
          "name": "_mintTime",
          "type": "uint256"
        }
      ],
      "name": "DVoucherMinted",
      "type": "event"
    },
    {
      "anonymous": false,
      "inputs": [
        {
          "indexed": true,
          "internalType": "bytes32",
          "name": "role",
          "type": "bytes32"
        },
        {
          "indexed": true,
          "internalType": "bytes32",
          "name": "previousAdminRole",
          "type": "bytes32"
        },
        {
          "indexed": true,
          "internalType": "bytes32",
          "name": "newAdminRole",
          "type": "bytes32"
        }
      ],
      "name": "RoleAdminChanged",
      "type": "event"
    },
    {
      "anonymous": false,
      "inputs": [
        {
          "indexed": true,
          "internalType": "bytes32",
          "name": "role",
          "type": "bytes32"
        },
        {
          "indexed": true,
          "internalType": "address",
          "name": "account",
          "type": "address"
        },
        {
          "indexed": true,
          "internalType": "address",
          "name": "sender",
          "type": "address"
        }
      ],
      "name": "RoleGranted",
      "type": "event"
    },
    {
      "anonymous": false,
      "inputs": [
        {
          "indexed": true,
          "internalType": "bytes32",
          "name": "role",
          "type": "bytes32"
        },
        {
          "indexed": true,
          "internalType": "address",
          "name": "account",
          "type": "address"
        },
        {
          "indexed": true,
          "internalType": "address",
          "name": "sender",
          "type": "address"
        }
      ],
      "name": "RoleRevoked",
      "type": "event"
    },
    {
      "anonymous": false,
      "inputs": [
        {
          "indexed": true,
          "internalType": "address",
          "name": "from",
          "type": "address"
        },
        {
          "indexed": true,
          "internalType": "address",
          "name": "to",
          "type": "address"
        },
        {
          "indexed": true,
          "internalType": "uint256",
          "name": "tokenId",
          "type": "uint256"
        }
      ],
      "name": "Transfer",
      "type": "event"
    },
    {
      "inputs": [],
      "name": "DEFAULT_ADMIN_ROLE",
      "outputs": [
        {
          "internalType": "bytes32",
          "name": "",
          "type": "bytes32"
        }
      ],
      "stateMutability": "view",
      "type": "function"
    },
    {
      "inputs": [],
      "name": "MINTER_ROLE",
      "outputs": [
        {
          "internalType": "bytes32",
          "name": "",
          "type": "bytes32"
        }
      ],
      "stateMutability": "view",
      "type": "function"
    },
    {
      "inputs": [
        {
          "internalType": "address",
          "name": "to",
          "type": "address"
        },
        {
          "internalType": "uint256",
          "name": "tokenId",
          "type": "uint256"
        }
      ],
      "name": "approve",
      "outputs": [],
      "stateMutability": "nonpayable",
      "type": "function"
    },
    {
      "inputs": [
        {
          "internalType": "address",
          "name": "owner",
          "type": "address"
        }
      ],
      "name": "balanceOf",
      "outputs": [
        {
          "internalType": "uint256",
          "name": "",
          "type": "uint256"
        }
      ],
      "stateMutability": "view",
      "type": "function"
    },
    {
      "inputs": [
        {
          "internalType": "uint256",
          "name": "",
          "type": "uint256"
        }
      ],
      "name": "dVoucherTokenURIs",
      "outputs": [
        {
          "internalType": "string",
          "name": "",
          "type": "string"
        }
      ],
      "stateMutability": "view",
      "type": "function"
    },
    {
      "inputs": [
        {
          "internalType": "uint256",
          "name": "tokenId",
          "type": "uint256"
        }
      ],
      "name": "getApproved",
      "outputs": [
        {
          "internalType": "address",
          "name": "",
          "type": "address"
        }
      ],
      "stateMutability": "view",
      "type": "function"
    },
    {
      "inputs": [
        {
          "internalType": "uint256",
          "name": "_tokenId",
          "type": "uint256"
        }
      ],
      "name": "getNominal",
      "outputs": [
        {
          "internalType": "uint8",
          "name": "",
          "type": "uint8"
        }
      ],
      "stateMutability": "view",
      "type": "function"
    },
    {
      "inputs": [
        {
          "internalType": "uint8",
          "name": "_nominal",
          "type": "uint8"
        }
      ],
      "name": "getNominalName",
      "outputs": [
        {
          "internalType": "string",
          "name": "",
          "type": "string"
        }
      ],
      "stateMutability": "view",
      "type": "function"
    },
    {
      "inputs": [
        {
          "internalType": "uint256",
          "name": "_tokenId",
          "type": "uint256"
        }
      ],
      "name": "getNominalNameOfTokenId",
      "outputs": [
        {
          "internalType": "string",
          "name": "",
          "type": "string"
        }
      ],
      "stateMutability": "view",
      "type": "function"
    },
    {
      "inputs": [
        {
          "internalType": "bytes32",
          "name": "role",
          "type": "bytes32"
        }
      ],
      "name": "getRoleAdmin",
      "outputs": [
        {
          "internalType": "bytes32",
          "name": "",
          "type": "bytes32"
        }
      ],
      "stateMutability": "view",
      "type": "function"
    },
    {
      "inputs": [
        {
          "internalType": "bytes32",
          "name": "role",
          "type": "bytes32"
        },
        {
          "internalType": "uint256",
          "name": "index",
          "type": "uint256"
        }
      ],
      "name": "getRoleMember",
      "outputs": [
        {
          "internalType": "address",
          "name": "",
          "type": "address"
        }
      ],
      "stateMutability": "view",
      "type": "function"
    },
    {
      "inputs": [
        {
          "internalType": "bytes32",
          "name": "role",
          "type": "bytes32"
        }
      ],
      "name": "getRoleMemberCount",
      "outputs": [
        {
          "internalType": "uint256",
          "name": "",
          "type": "uint256"
        }
      ],
      "stateMutability": "view",
      "type": "function"
    },
    {
      "inputs": [
        {
          "internalType": "bytes32",
          "name": "role",
          "type": "bytes32"
        },
        {
          "internalType": "address",
          "name": "account",
          "type": "address"
        }
      ],
      "name": "grantRole",
      "outputs": [],
      "stateMutability": "nonpayable",
      "type": "function"
    },
    {
      "inputs": [
        {
          "internalType": "bytes32",
          "name": "role",
          "type": "bytes32"
        },
        {
          "internalType": "address",
          "name": "account",
          "type": "address"
        }
      ],
      "name": "hasRole",
      "outputs": [
        {
          "internalType": "bool",
          "name": "",
          "type": "bool"
        }
      ],
      "stateMutability": "view",
      "type": "function"
    },
    {
      "inputs": [
        {
          "internalType": "address",
          "name": "owner",
          "type": "address"
        },
        {
          "internalType": "address",
          "name": "operator",
          "type": "address"
        }
      ],
      "name": "isApprovedForAll",
      "outputs": [
        {
          "internalType": "bool",
          "name": "",
          "type": "bool"
        }
      ],
      "stateMutability": "view",
      "type": "function"
    },
    {
      "inputs": [
        {
          "internalType": "address",
          "name": "_to",
          "type": "address"
        },
        {
          "internalType": "uint8",
          "name": "_nominal",
          "type": "uint8"
        },
        {
          "internalType": "uint256",
          "name": "amount",
          "type": "uint256"
        }
      ],
      "name": "mint",
      "outputs": [],
      "stateMutability": "nonpayable",
      "type": "function"
    },
    {
      "inputs": [],
      "name": "name",
      "outputs": [
        {
          "internalType": "string",
          "name": "",
          "type": "string"
        }
      ],
      "stateMutability": "view",
      "type": "function"
    },
    {
      "inputs": [
        {
          "internalType": "uint8",
          "name": "",
          "type": "uint8"
        }
      ],
      "name": "nominalBurnCount",
      "outputs": [
        {
          "internalType": "uint256",
          "name": "",
          "type": "uint256"
        }
      ],
      "stateMutability": "view",
      "type": "function"
    },
    {
      "inputs": [
        {
          "internalType": "uint8",
          "name": "",
          "type": "uint8"
        }
      ],
      "name": "nominalCount",
      "outputs": [
        {
          "internalType": "uint256",
          "name": "",
          "type": "uint256"
        }
      ],
      "stateMutability": "view",
      "type": "function"
    },
    {
      "inputs": [
        {
          "internalType": "uint256",
          "name": "tokenId",
          "type": "uint256"
        }
      ],
      "name": "ownerOf",
      "outputs": [
        {
          "internalType": "address",
          "name": "",
          "type": "address"
        }
      ],
      "stateMutability": "view",
      "type": "function"
    },
    {
      "inputs": [
        {
          "internalType": "bytes32",
          "name": "role",
          "type": "bytes32"
        },
        {
          "internalType": "address",
          "name": "account",
          "type": "address"
        }
      ],
      "name": "renounceRole",
      "outputs": [],
      "stateMutability": "nonpayable",
      "type": "function"
    },
    {
      "inputs": [
        {
          "internalType": "bytes32",
          "name": "role",
          "type": "bytes32"
        },
        {
          "internalType": "address",
          "name": "account",
          "type": "address"
        }
      ],
      "name": "revokeRole",
      "outputs": [],
      "stateMutability": "nonpayable",
      "type": "function"
    },
    {
      "inputs": [
        {
          "internalType": "address",
          "name": "from",
          "type": "address"
        },
        {
          "internalType": "address",
          "name": "to",
          "type": "address"
        },
        {
          "internalType": "uint256",
          "name": "tokenId",
          "type": "uint256"
        }
      ],
      "name": "safeTransferFrom",
      "outputs": [],
      "stateMutability": "nonpayable",
      "type": "function"
    },
    {
      "inputs": [
        {
          "internalType": "address",
          "name": "from",
          "type": "address"
        },
        {
          "internalType": "address",
          "name": "to",
          "type": "address"
        },
        {
          "internalType": "uint256",
          "name": "tokenId",
          "type": "uint256"
        },
        {
          "internalType": "bytes",
          "name": "data",
          "type": "bytes"
        }
      ],
      "name": "safeTransferFrom",
      "outputs": [],
      "stateMutability": "nonpayable",
      "type": "function"
    },
    {
      "inputs": [
        {
          "internalType": "address",
          "name": "operator",
          "type": "address"
        },
        {
          "internalType": "bool",
          "name": "approved",
          "type": "bool"
        }
      ],
      "name": "setApprovalForAll",
      "outputs": [],
      "stateMutability": "nonpayable",
      "type": "function"
    },
    {
      "inputs": [
        {
          "internalType": "string",
          "name": "baseURI",
          "type": "string"
        }
      ],
      "name": "setBaseURI",
      "outputs": [],
      "stateMutability": "nonpayable",
      "type": "function"
    },
    {
      "inputs": [
        {
          "internalType": "string[4]",
          "name": "_dVoucherTokenURIs",
          "type": "string[4]"
        }
      ],
      "name": "setDVoucherTokenURIs",
      "outputs": [],
      "stateMutability": "nonpayable",
      "type": "function"
    },
    {
      "inputs": [
        {
          "internalType": "address",
          "name": "_minter",
          "type": "address"
        }
      ],
      "name": "setMinter",
      "outputs": [],
      "stateMutability": "nonpayable",
      "type": "function"
    },
    {
      "inputs": [
        {
          "internalType": "string[4]",
          "name": "_nominalNames",
          "type": "string[4]"
        }
      ],
      "name": "setNominalName",
      "outputs": [],
      "stateMutability": "nonpayable",
      "type": "function"
    },
    {
      "inputs": [
        {
          "internalType": "uint256",
          "name": "_tokenId",
          "type": "uint256"
        },
        {
          "internalType": "bool",
          "name": "_partedInClass",
          "type": "bool"
        },
        {
          "internalType": "bool",
          "name": "_partedInMega",
          "type": "bool"
        }
      ],
      "name": "setParticipateInfo",
      "outputs": [],
      "stateMutability": "nonpayable",
      "type": "function"
    },
    {
      "inputs": [
        {
          "internalType": "uint256",
          "name": "tokenId",
          "type": "uint256"
        },
        {
          "internalType": "string",
          "name": "_tokenURI",
          "type": "string"
        }
      ],
      "name": "setTokenURI",
      "outputs": [],
      "stateMutability": "nonpayable",
      "type": "function"
    },
    {
      "inputs": [
        {
          "internalType": "bytes4",
          "name": "interfaceId",
          "type": "bytes4"
        }
      ],
      "name": "supportsInterface",
      "outputs": [
        {
          "internalType": "bool",
          "name": "",
          "type": "bool"
        }
      ],
      "stateMutability": "view",
      "type": "function"
    },
    {
      "inputs": [],
      "name": "symbol",
      "outputs": [
        {
          "internalType": "string",
          "name": "",
          "type": "string"
        }
      ],
      "stateMutability": "view",
      "type": "function"
    },
    {
      "inputs": [
        {
          "internalType": "uint256",
          "name": "index",
          "type": "uint256"
        }
      ],
      "name": "tokenByIndex",
      "outputs": [
        {
          "internalType": "uint256",
          "name": "",
          "type": "uint256"
        }
      ],
      "stateMutability": "view",
      "type": "function"
    },
    {
      "inputs": [
        {
          "internalType": "uint256",
          "name": "",
          "type": "uint256"
        }
      ],
      "name": "tokenInfo",
      "outputs": [
        {
          "internalType": "uint8",
          "name": "nominal",
          "type": "uint8"
        },
        {
          "internalType": "address",
          "name": "minter",
          "type": "address"
        },
        {
          "internalType": "bool",
          "name": "partedInClass",
          "type": "bool"
        },
        {
          "internalType": "bool",
          "name": "partedInMega",
          "type": "bool"
        }
      ],
      "stateMutability": "view",
      "type": "function"
    },
    {
      "inputs": [
        {
          "internalType": "uint256",
          "name": "tokenId",
          "type": "uint256"
        }
      ],
      "name": "tokenMinter",
      "outputs": [
        {
          "internalType": "address",
          "name": "",
          "type": "address"
        }
      ],
      "stateMutability": "view",
      "type": "function"
    },
    {
      "inputs": [
        {
          "internalType": "address",
          "name": "owner",
          "type": "address"
        },
        {
          "internalType": "uint256",
          "name": "index",
          "type": "uint256"
        }
      ],
      "name": "tokenOfOwnerByIndex",
      "outputs": [
        {
          "internalType": "uint256",
          "name": "",
          "type": "uint256"
        }
      ],
      "stateMutability": "view",
      "type": "function"
    },
    {
      "inputs": [
        {
          "internalType": "uint256",
          "name": "tokenId",
          "type": "uint256"
        }
      ],
      "name": "tokenURI",
      "outputs": [
        {
          "internalType": "string",
          "name": "",
          "type": "string"
        }
      ],
      "stateMutability": "view",
      "type": "function"
    },
    {
      "inputs": [],
      "name": "totalSupply",
      "outputs": [
        {
          "internalType": "uint256",
          "name": "",
          "type": "uint256"
        }
      ],
      "stateMutability": "view",
      "type": "function"
    },
    {
      "inputs": [
        {
          "internalType": "address",
          "name": "from",
          "type": "address"
        },
        {
          "internalType": "address",
          "name": "to",
          "type": "address"
        },
        {
          "internalType": "uint256",
          "name": "tokenId",
          "type": "uint256"
        }
      ],
      "name": "transferFrom",
      "outputs": [],
      "stateMutability": "nonpayable",
      "type": "function"
    }
  ],
  "bytecode": "0x60806040523480156200001157600080fd5b5060405162002ff338038062002ff383398101604081905262000034916200035f565b8151829082906200004d90600290602085019062000202565b5080516200006390600390602084019062000202565b5050604080516020810191829052600090819052620000879250600e919062000202565b50620000956000336200009d565b50506200041c565b620000a98282620000ad565b5050565b620000c48282620000f060201b620013fa1760201c565b6000828152600160209081526040909120620000eb9183906200147e62000190821b17901c565b505050565b6000828152602081815260408083206001600160a01b038516845290915290205460ff16620000a9576000828152602081815260408083206001600160a01b03851684529091529020805460ff191660011790556200014c3390565b6001600160a01b0316816001600160a01b0316837f2f8788117e7eff1d82e926ec794901d17c78024a50270940304540a733656f0d60405160405180910390a45050565b6000620001a7836001600160a01b038416620001b0565b90505b92915050565b6000818152600183016020526040812054620001f957508154600181810184556000848152602080822090930184905584548482528286019093526040902091909155620001aa565b506000620001aa565b8280546200021090620003c9565b90600052602060002090601f0160209004810192826200023457600085556200027f565b82601f106200024f57805160ff19168380011785556200027f565b828001600101855582156200027f579182015b828111156200027f57825182559160200191906001019062000262565b506200028d92915062000291565b5090565b5b808211156200028d576000815560010162000292565b600082601f830112620002ba57600080fd5b81516001600160401b0380821115620002d757620002d762000406565b604051601f8301601f19908116603f0116810190828211818310171562000302576200030262000406565b816040528381526020925086838588010111156200031f57600080fd5b600091505b8382101562000343578582018301518183018401529082019062000324565b83821115620003555760008385830101525b9695505050505050565b600080604083850312156200037357600080fd5b82516001600160401b03808211156200038b57600080fd5b6200039986838701620002a8565b93506020850151915080821115620003b057600080fd5b50620003bf85828601620002a8565b9150509250929050565b600181811c90821680620003de57607f821691505b602082108114156200040057634e487b7160e01b600052602260045260246000fd5b50919050565b634e487b7160e01b600052604160045260246000fd5b612bc7806200042c6000396000f3fe608060405234801561001057600080fd5b50600436106102485760003560e01c806370a082311161013b578063c7c54fa3116100b8578063d4ce25381161007c578063d4ce2538146105cf578063d5391393146105e2578063d547741f146105f7578063e985e9c51461060a578063fca3b5aa1461064657600080fd5b8063c7c54fa3146104d9578063c87b56dd1461050e578063ca15c87314610521578063cc33c87514610534578063d32f7212146105af57600080fd5b806395d89b41116100ff57806395d89b4114610490578063a217fddf14610498578063a22cb465146104a0578063b88d4fde146104b3578063bc9a518f146104c657600080fd5b806370a08231146104165780637c57d947146104295780637ca12e95146104575780639010d07c1461046a57806391d148541461047d57600080fd5b80632f745c59116101c95780634f6ccce71161018d5780634f6ccce7146103aa57806355f804b3146103bd578063612a9816146103d05780636352211e146103f05780636dd70bf11461040357600080fd5b80632f745c591461034b57806336568abe1461035e57806342842e0e1461037157806346fdfb9c146103845780634ed387b21461039757600080fd5b8063162094c411610210578063162094c4146102dd57806318160ddd146102f057806323b872dd14610302578063248a9ca3146103155780632f2ff15d1461033857600080fd5b806301ffc9a71461024d57806303a9c05e1461027557806306fdde0314610295578063081812fc1461029d578063095ea7b3146102c8575b600080fd5b61026061025b3660046126e2565b610659565b60405190151581526020015b60405180910390f35b6102886102833660046127d4565b61066a565b60405161026c91906128cd565b610288610710565b6102b06102ab366004612684565b6107a2565b6040516001600160a01b03909116815260200161026c565b6102db6102d63660046125f3565b6107c9565b005b6102db6102eb36600461278d565b6108e4565b600a545b60405190815260200161026c565b6102db610310366004612511565b610919565b6102f4610323366004612684565b60009081526020819052604090206001015490565b6102db61034636600461269d565b61094a565b6102f46103593660046125f3565b61096f565b6102db61036c36600461269d565b610a05565b6102db61037f366004612511565b610a7f565b6102db610392366004612649565b610a9a565b6102db6103a536600461261d565b610bc9565b6102f46103b8366004612684565b610e3f565b6102db6103cb36600461271c565b610ed2565b6102f46103de3660046127d4565b60166020526000908152604090205481565b6102b06103fe366004612684565b610f0c565b610288610411366004612684565b610f6c565b6102f46104243660046124c3565b61100c565b6102b0610437366004612684565b60009081526013602052604090205461010090046001600160a01b031690565b6102db610465366004612649565b611092565b6102b06104783660046126c0565b61111d565b61026061048b36600461269d565b61113c565b610288611165565b6102f4600081565b6102db6104ae3660046125c9565b611174565b6102db6104c136600461254d565b61117f565b6102db6104d4366004612751565b6111b1565b6104fc6104e7366004612684565b60009081526013602052604090205460ff1690565b60405160ff909116815260200161026c565b61028861051c366004612684565b61124a565b6102f461052f366004612684565b611311565b61057b610542366004612684565b60136020526000908152604090205460ff808216916001600160a01b0361010082041691600160a81b8204811691600160b01b90041684565b6040805160ff90951685526001600160a01b039093166020850152901515918301919091521515606082015260800161026c565b6102f46105bd3660046127d4565b60156020526000908152604090205481565b6102886105dd366004612684565b611328565b6102f4600080516020612b7283398151915281565b6102db61060536600461269d565b611358565b6102606106183660046124de565b6001600160a01b03918216600090815260076020908152604080832093909416825291909152205460ff1690565b6102db6106543660046124c3565b61137d565b600061066482611493565b92915050565b60ff8116600090815260146020526040902080546060919061068b90612aad565b80601f01602080910402602001604051908101604052809291908181526020018280546106b790612aad565b80156107045780601f106106d957610100808354040283529160200191610704565b820191906000526020600020905b8154815290600101906020018083116106e757829003601f168201915b50505050509050919050565b60606002805461071f90612aad565b80601f016020809104026020016040519081016040528092919081815260200182805461074b90612aad565b80156107985780601f1061076d57610100808354040283529160200191610798565b820191906000526020600020905b81548152906001019060200180831161077b57829003601f168201915b5050505050905090565b60006107ad826114b8565b506000908152600660205260409020546001600160a01b031690565b60006107d482610f0c565b9050806001600160a01b0316836001600160a01b031614156108475760405162461bcd60e51b815260206004820152602160248201527f4552433732313a20617070726f76616c20746f2063757272656e74206f776e656044820152603960f91b60648201526084015b60405180910390fd5b336001600160a01b038216148061086357506108638133610618565b6108d55760405162461bcd60e51b815260206004820152603e60248201527f4552433732313a20617070726f76652063616c6c6572206973206e6f7420746f60448201527f6b656e206f776e6572206e6f7220617070726f76656420666f7220616c6c0000606482015260840161083e565b6108df8383611517565b505050565b6108ef60003361113c565b61090b5760405162461bcd60e51b815260040161083e90612932565b6109158282611585565b5050565b610923338261161f565b61093f5760405162461bcd60e51b815260040161083e9061295d565b6108df83838361169e565b60008281526020819052604090206001015461096581611845565b6108df838361184f565b600061097a8361100c565b82106109dc5760405162461bcd60e51b815260206004820152602b60248201527f455243373231456e756d657261626c653a206f776e657220696e646578206f7560448201526a74206f6620626f756e647360a81b606482015260840161083e565b506001600160a01b03919091166000908152600860209081526040808320938352929052205490565b6001600160a01b0381163314610a755760405162461bcd60e51b815260206004820152602f60248201527f416363657373436f6e74726f6c3a2063616e206f6e6c792072656e6f756e636560448201526e103937b632b9903337b91039b2b63360891b606482015260840161083e565b6109158282611871565b6108df8383836040518060200160405280600081525061117f565b610aa560003361113c565b610ac15760405162461bcd60e51b815260040161083e90612932565b610acb81806129ab565b60016000526014602052610b00917fb6c61a840592cc84133e4b25bd509abf4659307c57b160799b38490a5aa48f2c916122e3565b50610b0e60208201826129ab565b60026000526014602052610b43917fa1930aa930426c54c34daad2b9ada7c5d0ef0c96078a3c5bb79f6fa6602c4a7a916122e3565b50610b5160408201826129ab565b60036000526014602052610b86917f63d87a887046e0430be80fdeb014107d7198c879cbf2cddf39a6df195c86cb38916122e3565b50610b9460608201826129ab565b60046000526014602052610915917f52102136546d97ed3f65ec1070a32935d3048ea12f310d29c378dc9d6555c0d6916122e3565b610be1600080516020612b728339815191523361113c565b610c225760405162461bcd60e51b81526020600482015260126024820152714e6f742061206d696e74696e6720726f6c6560701b604482015260640161083e565b60008260ff16118015610c38575060058260ff16105b610c935760405162461bcd60e51b815260206004820152602660248201527f44566f7563686572203a204e6f6d696e616c206d757374206265206c657373206044820152657468616e203560d01b606482015260840161083e565b60005b81811015610e39576000610ca9600d5490565b9050610cb9600d80546001019055565b6000818152601360209081526040808320805460ff191660ff891690811782558452601590925290912054610cef9060016129f9565b60ff86166000908152601560205260409020558054610100600160a81b0319163361010002178155610d218683611893565b610dd482600f610d32600189612a47565b60ff1660048110610d4557610d45612b2f565b018054610d5190612aad565b80601f0160208091040260200160405190810160405280929190818152602001828054610d7d90612aad565b8015610dca5780601f10610d9f57610100808354040283529160200191610dca565b820191906000526020600020905b815481529060010190602001808311610dad57829003601f168201915b5050505050611585565b6040805183815260ff871660208201526001600160a01b0388168183015242606082015290517f0bf5afb93d38ba2254349ec684aec705be5b8364303da42d2645e17f5d456de99181900360800190a150508080610e3190612ae8565b915050610c96565b50505050565b6000610e4a600a5490565b8210610ead5760405162461bcd60e51b815260206004820152602c60248201527f455243373231456e756d657261626c653a20676c6f62616c20696e646578206f60448201526b7574206f6620626f756e647360a01b606482015260840161083e565b600a8281548110610ec057610ec0612b2f565b90600052602060002001549050919050565b610edd60003361113c565b610ef95760405162461bcd60e51b815260040161083e90612932565b805161091590600e906020840190612367565b6000818152600460205260408120546001600160a01b0316806106645760405162461bcd60e51b8152602060048201526018602482015277115490cdcc8c4e881a5b9d985b1a59081d1bdad95b88125160421b604482015260640161083e565b600f8160048110610f7c57600080fd5b018054909150610f8b90612aad565b80601f0160208091040260200160405190810160405280929190818152602001828054610fb790612aad565b80156110045780601f10610fd957610100808354040283529160200191611004565b820191906000526020600020905b815481529060010190602001808311610fe757829003601f168201915b505050505081565b60006001600160a01b0382166110765760405162461bcd60e51b815260206004820152602960248201527f4552433732313a2061646472657373207a65726f206973206e6f7420612076616044820152683634b21037bbb732b960b91b606482015260840161083e565b506001600160a01b031660009081526005602052604090205490565b61109d60003361113c565b6110b95760405162461bcd60e51b815260040161083e90612932565b6110c381806129ab565b6110cf91600f916122e3565b506110dd60208201826129ab565b6110e9916010916122e3565b506110f760408201826129ab565b611103916011916122e3565b5061111160608201826129ab565b610915916012916122e3565b600082815260016020526040812061113590836119e1565b9392505050565b6000918252602082815260408084206001600160a01b0393909316845291905290205460ff1690565b60606003805461071f90612aad565b6109153383836119ed565b611189338361161f565b6111a55760405162461bcd60e51b815260040161083e9061295d565b610e3984848484611abc565b6111c9600080516020612b728339815191523361113c565b61120a5760405162461bcd60e51b81526020600482015260126024820152714e6f742061206d696e74696e6720726f6c6560701b604482015260640161083e565b6000928352601360205260409092208054921515600160b01b0260ff60b01b19921515600160a81b029290921661ffff60a81b1990931692909217179055565b60008181526013602052604090205460609060ff16600f61126c600183612a47565b60ff166004811061127f5761127f612b2f565b01805461128b90612aad565b80601f01602080910402602001604051908101604052809291908181526020018280546112b790612aad565b80156113045780601f106112d957610100808354040283529160200191611304565b820191906000526020600020905b8154815290600101906020018083116112e757829003601f168201915b5050505050915050919050565b600081815260016020526040812061066490611aef565b60008181526013602090815260408083205460ff1680845260149092529091208054606092919061128b90612aad565b60008281526020819052604090206001015461137381611845565b6108df8383611871565b61138860003361113c565b6113a45760405162461bcd60e51b815260040161083e90612932565b6001600160a01b0381166113df5760405162461bcd60e51b81526020600482015260026024820152614e4160f01b604482015260640161083e565b6113f7600080516020612b7283398151915282611af9565b50565b611404828261113c565b610915576000828152602081815260408083206001600160a01b03851684529091529020805460ff1916600117905561143a3390565b6001600160a01b0316816001600160a01b0316837f2f8788117e7eff1d82e926ec794901d17c78024a50270940304540a733656f0d60405160405180910390a45050565b6000611135836001600160a01b038416611b03565b60006001600160e01b0319821663780e9d6360e01b1480610664575061066482611b52565b6000818152600460205260409020546001600160a01b03166113f75760405162461bcd60e51b8152602060048201526018602482015277115490cdcc8c4e881a5b9d985b1a59081d1bdad95b88125160421b604482015260640161083e565b600081815260066020526040902080546001600160a01b0319166001600160a01b038416908117909155819061154c82610f0c565b6001600160a01b03167f8c5be1e5ebec7d5bd14f71427d1e84f3dd0314c0f7b2291e5b200ac8c7c3b92560405160405180910390a45050565b6000828152600460205260409020546001600160a01b03166116005760405162461bcd60e51b815260206004820152602e60248201527f45524337323155524953746f726167653a2055524920736574206f66206e6f6e60448201526d32bc34b9ba32b73a103a37b5b2b760911b606482015260840161083e565b6000828152600c6020908152604090912082516108df92840190612367565b60008061162b83610f0c565b9050806001600160a01b0316846001600160a01b0316148061167257506001600160a01b0380821660009081526007602090815260408083209388168352929052205460ff165b806116965750836001600160a01b031661168b846107a2565b6001600160a01b0316145b949350505050565b826001600160a01b03166116b182610f0c565b6001600160a01b0316146117155760405162461bcd60e51b815260206004820152602560248201527f4552433732313a207472616e736665722066726f6d20696e636f72726563742060448201526437bbb732b960d91b606482015260840161083e565b6001600160a01b0382166117775760405162461bcd60e51b8152602060048201526024808201527f4552433732313a207472616e7366657220746f20746865207a65726f206164646044820152637265737360e01b606482015260840161083e565b611782838383611b92565b61178d600082611517565b6001600160a01b03831660009081526005602052604081208054600192906117b6908490612a30565b90915550506001600160a01b03821660009081526005602052604081208054600192906117e49084906129f9565b909155505060008181526004602052604080822080546001600160a01b0319166001600160a01b0386811691821790925591518493918716917fddf252ad1be2c89b69c2b068fc378daa952ba7f163c4a11628f55a4df523b3ef91a4505050565b6113f78133611b9d565b61185982826113fa565b60008281526001602052604090206108df908261147e565b61187b8282611c01565b60008281526001602052604090206108df9082611c66565b6001600160a01b0382166118e95760405162461bcd60e51b815260206004820181905260248201527f4552433732313a206d696e7420746f20746865207a65726f2061646472657373604482015260640161083e565b6000818152600460205260409020546001600160a01b03161561194e5760405162461bcd60e51b815260206004820152601c60248201527f4552433732313a20746f6b656e20616c7265616479206d696e74656400000000604482015260640161083e565b61195a60008383611b92565b6001600160a01b03821660009081526005602052604081208054600192906119839084906129f9565b909155505060008181526004602052604080822080546001600160a01b0319166001600160a01b03861690811790915590518392907fddf252ad1be2c89b69c2b068fc378daa952ba7f163c4a11628f55a4df523b3ef908290a45050565b60006111358383611c7b565b816001600160a01b0316836001600160a01b03161415611a4f5760405162461bcd60e51b815260206004820152601960248201527f4552433732313a20617070726f766520746f2063616c6c657200000000000000604482015260640161083e565b6001600160a01b03838116600081815260076020908152604080832094871680845294825291829020805460ff191686151590811790915591519182527f17307eab39ab6107e8899845ad3d59bd9653f200f220920489ca2b5937696c31910160405180910390a3505050565b611ac784848461169e565b611ad384848484611ca5565b610e395760405162461bcd60e51b815260040161083e906128e0565b6000610664825490565b610915828261184f565b6000818152600183016020526040812054611b4a57508154600181810184556000848152602080822090930184905584548482528286019093526040902091909155610664565b506000610664565b60006001600160e01b031982166380ac58cd60e01b1480611b8357506001600160e01b03198216635b5e139f60e01b145b80610664575061066482611db2565b6108df838383611dd7565b611ba7828261113c565b61091557611bbf816001600160a01b03166014611e8f565b611bca836020611e8f565b604051602001611bdb92919061281b565b60408051601f198184030181529082905262461bcd60e51b825261083e916004016128cd565b611c0b828261113c565b15610915576000828152602081815260408083206001600160a01b0385168085529252808320805460ff1916905551339285917ff6391f5c32d9c69d2a47ea670b442974b53935d1edc7fd64eb21e047a839171b9190a45050565b6000611135836001600160a01b03841661202b565b6000826000018281548110611c9257611c92612b2f565b9060005260206000200154905092915050565b60006001600160a01b0384163b15611da757604051630a85bd0160e11b81526001600160a01b0385169063150b7a0290611ce9903390899088908890600401612890565b602060405180830381600087803b158015611d0357600080fd5b505af1925050508015611d33575060408051601f3d908101601f19168201909252611d30918101906126ff565b60015b611d8d573d808015611d61576040519150601f19603f3d011682016040523d82523d6000602084013e611d66565b606091505b508051611d855760405162461bcd60e51b815260040161083e906128e0565b805181602001fd5b6001600160e01b031916630a85bd0160e11b149050611696565b506001949350505050565b60006001600160e01b03198216635a05180f60e01b148061066457506106648261211e565b6001600160a01b038316611e3257611e2d81600a80546000838152600b60205260408120829055600182018355919091527fc65a7bb8d6351c1cf70c95a316cc6a92839c986682d98bc35f958f4883f9d2a80155565b611e55565b816001600160a01b0316836001600160a01b031614611e5557611e558382612153565b6001600160a01b038216611e6c576108df816121f0565b826001600160a01b0316826001600160a01b0316146108df576108df828261229f565b60606000611e9e836002612a11565b611ea99060026129f9565b67ffffffffffffffff811115611ec157611ec1612b45565b6040519080825280601f01601f191660200182016040528015611eeb576020820181803683370190505b509050600360fc1b81600081518110611f0657611f06612b2f565b60200101906001600160f81b031916908160001a905350600f60fb1b81600181518110611f3557611f35612b2f565b60200101906001600160f81b031916908160001a9053506000611f59846002612a11565b611f649060016129f9565b90505b6001811115611fdc576f181899199a1a9b1b9c1cb0b131b232b360811b85600f1660108110611f9857611f98612b2f565b1a60f81b828281518110611fae57611fae612b2f565b60200101906001600160f81b031916908160001a90535060049490941c93611fd581612a96565b9050611f67565b5083156111355760405162461bcd60e51b815260206004820181905260248201527f537472696e67733a20686578206c656e67746820696e73756666696369656e74604482015260640161083e565b6000818152600183016020526040812054801561211457600061204f600183612a30565b855490915060009061206390600190612a30565b90508181146120c857600086600001828154811061208357612083612b2f565b90600052602060002001549050808760000184815481106120a6576120a6612b2f565b6000918252602080832090910192909255918252600188019052604090208390555b85548690806120d9576120d9612b19565b600190038181906000526020600020016000905590558560010160008681526020019081526020016000206000905560019350505050610664565b6000915050610664565b60006001600160e01b03198216637965db0b60e01b148061066457506301ffc9a760e01b6001600160e01b0319831614610664565b600060016121608461100c565b61216a9190612a30565b6000838152600960205260409020549091508082146121bd576001600160a01b03841660009081526008602090815260408083208584528252808320548484528184208190558352600990915290208190555b5060009182526009602090815260408084208490556001600160a01b039094168352600881528383209183525290812055565b600a5460009061220290600190612a30565b6000838152600b6020526040812054600a805493945090928490811061222a5761222a612b2f565b9060005260206000200154905080600a838154811061224b5761224b612b2f565b6000918252602080832090910192909255828152600b9091526040808220849055858252812055600a80548061228357612283612b19565b6001900381819060005260206000200160009055905550505050565b60006122aa8361100c565b6001600160a01b039093166000908152600860209081526040808320868452825280832085905593825260099052919091209190915550565b8280546122ef90612aad565b90600052602060002090601f0160209004810192826123115760008555612357565b82601f1061232a5782800160ff19823516178555612357565b82800160010185558215612357579182015b8281111561235757823582559160200191906001019061233c565b506123639291506123db565b5090565b82805461237390612aad565b90600052602060002090601f0160209004810192826123955760008555612357565b82601f106123ae57805160ff1916838001178555612357565b82800160010185558215612357579182015b828111156123575782518255916020019190600101906123c0565b5b8082111561236357600081556001016123dc565b600067ffffffffffffffff8084111561240b5761240b612b45565b604051601f8501601f19908116603f0116810190828211818310171561243357612433612b45565b8160405280935085815286868601111561244c57600080fd5b858560208301376000602087830101525050509392505050565b80356001600160a01b038116811461247d57600080fd5b919050565b8035801515811461247d57600080fd5b600082601f8301126124a357600080fd5b611135838335602085016123f0565b803560ff8116811461247d57600080fd5b6000602082840312156124d557600080fd5b61113582612466565b600080604083850312156124f157600080fd5b6124fa83612466565b915061250860208401612466565b90509250929050565b60008060006060848603121561252657600080fd5b61252f84612466565b925061253d60208501612466565b9150604084013590509250925092565b6000806000806080858703121561256357600080fd5b61256c85612466565b935061257a60208601612466565b925060408501359150606085013567ffffffffffffffff81111561259d57600080fd5b8501601f810187136125ae57600080fd5b6125bd878235602084016123f0565b91505092959194509250565b600080604083850312156125dc57600080fd5b6125e583612466565b915061250860208401612482565b6000806040838503121561260657600080fd5b61260f83612466565b946020939093013593505050565b60008060006060848603121561263257600080fd5b61263b84612466565b925061253d602085016124b2565b60006020828403121561265b57600080fd5b813567ffffffffffffffff81111561267257600080fd5b82016080810184101561113557600080fd5b60006020828403121561269657600080fd5b5035919050565b600080604083850312156126b057600080fd5b8235915061250860208401612466565b600080604083850312156126d357600080fd5b50508035926020909101359150565b6000602082840312156126f457600080fd5b813561113581612b5b565b60006020828403121561271157600080fd5b815161113581612b5b565b60006020828403121561272e57600080fd5b813567ffffffffffffffff81111561274557600080fd5b61169684828501612492565b60008060006060848603121561276657600080fd5b8335925061277660208501612482565b915061278460408501612482565b90509250925092565b600080604083850312156127a057600080fd5b82359150602083013567ffffffffffffffff8111156127be57600080fd5b6127ca85828601612492565b9150509250929050565b6000602082840312156127e657600080fd5b611135826124b2565b60008151808452612807816020860160208601612a6a565b601f01601f19169290920160200192915050565b7f416363657373436f6e74726f6c3a206163636f756e7420000000000000000000815260008351612853816017850160208801612a6a565b7001034b99036b4b9b9b4b733903937b6329607d1b6017918401918201528351612884816028840160208801612a6a565b01602801949350505050565b6001600160a01b03858116825284166020820152604081018390526080606082018190526000906128c3908301846127ef565b9695505050505050565b60208152600061113560208301846127ef565b60208082526032908201527f4552433732313a207472616e7366657220746f206e6f6e20455243373231526560408201527131b2b4bb32b91034b6b83632b6b2b73a32b960711b606082015260800190565b6020808252601190820152704e6f7420616e2061646d696e20726f6c6560781b604082015260600190565b6020808252602e908201527f4552433732313a2063616c6c6572206973206e6f7420746f6b656e206f776e6560408201526d1c881b9bdc88185c1c1c9bdd995960921b606082015260800190565b6000808335601e198436030181126129c257600080fd5b83018035915067ffffffffffffffff8211156129dd57600080fd5b6020019150368190038213156129f257600080fd5b9250929050565b60008219821115612a0c57612a0c612b03565b500190565b6000816000190483118215151615612a2b57612a2b612b03565b500290565b600082821015612a4257612a42612b03565b500390565b600060ff821660ff841680821015612a6157612a61612b03565b90039392505050565b60005b83811015612a85578181015183820152602001612a6d565b83811115610e395750506000910152565b600081612aa557612aa5612b03565b506000190190565b600181811c90821680612ac157607f821691505b60208210811415612ae257634e487b7160e01b600052602260045260246000fd5b50919050565b6000600019821415612afc57612afc612b03565b5060010190565b634e487b7160e01b600052601160045260246000fd5b634e487b7160e01b600052603160045260246000fd5b634e487b7160e01b600052603260045260246000fd5b634e487b7160e01b600052604160045260246000fd5b6001600160e01b0319811681146113f757600080fdfe9f2df0fed2c77648de5860a4cc508cd0818c85b8b8a1ab4ceeef8d981c8956a6a2646970667358221220c213b32629b36197eb82e27e0f8ba09db0ae4edf50ef179b83eb9e7cc19be6e864736f6c63430008070033",
  "linkReferences": {},
  "deployedLinkReferences": {}
}