{
  "_format": "hh-sol-artifact-1",
  "contractName": "DVoucherMinter",
  "sourceName": "contracts/DVoucherMinter.sol",
  "abi": [
    {
      "inputs": [
        {
          "internalType": "address",
          "name": "_dVoucherAddress",
          "type": "address"
        }
      ],
      "stateMutability": "nonpayable",
      "type": "constructor"
    },
    {
      "anonymous": false,
      "inputs": [
        {
          "indexed": false,
          "internalType": "uint256",
          "name": "dVoucherAmount",
          "type": "uint256"
        },
        {
          "indexed": true,
          "internalType": "address",
          "name": "userAddress",
          "type": "address"
        },
        {
          "indexed": false,
          "internalType": "uint8",
          "name": "nonce",
          "type": "uint8"
        }
      ],
      "name": "DVoucherClaimed",
      "type": "event"
    },
    {
      "anonymous": false,
      "inputs": [
        {
          "indexed": true,
          "internalType": "address",
          "name": "previousOwner",
          "type": "address"
        },
        {
          "indexed": true,
          "internalType": "address",
          "name": "newOwner",
          "type": "address"
        }
      ],
      "name": "OwnershipTransferred",
      "type": "event"
    },
    {
      "inputs": [
        {
          "internalType": "uint256",
          "name": "_dVoucherAmount",
          "type": "uint256"
        },
        {
          "internalType": "address",
          "name": "_userAddress",
          "type": "address"
        },
        {
          "internalType": "uint8",
          "name": "_nonce",
          "type": "uint8"
        }
      ],
      "name": "claim",
      "outputs": [],
      "stateMutability": "nonpayable",
      "type": "function"
    },
    {
      "inputs": [
        {
          "internalType": "address",
          "name": "",
          "type": "address"
        },
        {
          "internalType": "uint8",
          "name": "",
          "type": "uint8"
        }
      ],
      "name": "claimedAmount",
      "outputs": [
        {
          "internalType": "uint256",
          "name": "",
          "type": "uint256"
        }
      ],
      "stateMutability": "view",
      "type": "function"
    },
    {
      "inputs": [],
      "name": "dVoucher",
      "outputs": [
        {
          "internalType": "contract DVoucherNFT",
          "name": "",
          "type": "address"
        }
      ],
      "stateMutability": "view",
      "type": "function"
    },
    {
      "inputs": [],
      "name": "owner",
      "outputs": [
        {
          "internalType": "address",
          "name": "",
          "type": "address"
        }
      ],
      "stateMutability": "view",
      "type": "function"
    },
    {
      "inputs": [],
      "name": "renounceOwnership",
      "outputs": [],
      "stateMutability": "nonpayable",
      "type": "function"
    },
    {
      "inputs": [
        {
          "internalType": "address",
          "name": "newOwner",
          "type": "address"
        }
      ],
      "name": "transferOwnership",
      "outputs": [],
      "stateMutability": "nonpayable",
      "type": "function"
    }
  ],
  "bytecode": "0x608060405234801561001057600080fd5b506040516107ab3803806107ab83398101604081905261002f916100ad565b6100383361005d565b600180546001600160a01b0319166001600160a01b03929092169190911790556100dd565b600080546001600160a01b038381166001600160a01b0319831681178455604051919092169283917f8be0079c531659141344cd1fd0a4f28419497f9722a3daafe3b4186f6b6457e09190a35050565b6000602082840312156100bf57600080fd5b81516001600160a01b03811681146100d657600080fd5b9392505050565b6106bf806100ec6000396000f3fe608060405234801561001057600080fd5b50600436106100625760003560e01c80634830bd1514610067578063715018a6146100975780638da5cb5b146100a1578063ca75a48a146100b2578063e3c31366146100c5578063f2fde38b146100fe575b600080fd5b60015461007a906001600160a01b031681565b6040516001600160a01b0390911681526020015b60405180910390f35b61009f610111565b005b6000546001600160a01b031661007a565b61009f6100c03660046105eb565b610125565b6100f06100d33660046105b8565b600260209081526000928352604080842090915290825290205481565b60405190815260200161008e565b61009f61010c366004610596565b610446565b6101196104bf565b6101236000610519565b565b600083116101685760405162461bcd60e51b815260206004820152600b60248201526a04d757374206265203e20360ac1b60448201526064015b60405180910390fd5b6001600160a01b038216600090815260026020908152604080832060ff85168452909152902054156101ce5760405162461bcd60e51b815260206004820152600f60248201526e105b1c9958591e4810db185a5b5959608a1b604482015260640161015f565b6001600160a01b038216600090815260026020908152604080832060ff8516845290915281208490556102036103e88561064b565b9050801561027257600154604051632769c3d960e11b81526001600160a01b0390911690634ed387b29061023f90869060049086908201610627565b600060405180830381600087803b15801561025957600080fd5b505af115801561026d573d6000803e3d6000fd5b505050505b60646102806103e88661065f565b61028a919061064b565b905080156102fa57600154604051632769c3d960e11b81526001600160a01b0390911690634ed387b2906102c79086906003908690600401610627565b600060405180830381600087803b1580156102e157600080fd5b505af11580156102f5573d6000803e3d6000fd5b505050505b600a61030760648661065f565b610311919061064b565b9050801561038157600154604051632769c3d960e11b81526001600160a01b0390911690634ed387b29061034e9086906002908690600401610627565b600060405180830381600087803b15801561036857600080fd5b505af115801561037c573d6000803e3d6000fd5b505050505b61038c600a8561065f565b905080156103fa5760018054604051632769c3d960e11b81526001600160a01b0390911691634ed387b2916103c79187918690600401610627565b600060405180830381600087803b1580156103e157600080fd5b505af11580156103f5573d6000803e3d6000fd5b505050505b6040805185815260ff841660208201526001600160a01b038516917f3b3203e3aec2756c0c4771c81cc4ab5d3880195198a11e758e5d826cbe75b62e910160405180910390a250505050565b61044e6104bf565b6001600160a01b0381166104b35760405162461bcd60e51b815260206004820152602660248201527f4f776e61626c653a206e6577206f776e657220697320746865207a65726f206160448201526564647265737360d01b606482015260840161015f565b6104bc81610519565b50565b6000546001600160a01b031633146101235760405162461bcd60e51b815260206004820181905260248201527f4f776e61626c653a2063616c6c6572206973206e6f7420746865206f776e6572604482015260640161015f565b600080546001600160a01b038381166001600160a01b0319831681178455604051919092169283917f8be0079c531659141344cd1fd0a4f28419497f9722a3daafe3b4186f6b6457e09190a35050565b80356001600160a01b038116811461058057600080fd5b919050565b803560ff8116811461058057600080fd5b6000602082840312156105a857600080fd5b6105b182610569565b9392505050565b600080604083850312156105cb57600080fd5b6105d483610569565b91506105e260208401610585565b90509250929050565b60008060006060848603121561060057600080fd5b8335925061061060208501610569565b915061061e60408501610585565b90509250925092565b6001600160a01b0393909316835260ff919091166020830152604082015260600190565b60008261065a5761065a610673565b500490565b60008261066e5761066e610673565b500690565b634e487b7160e01b600052601260045260246000fdfea26469706673582212207eb7b1d0938c59d72ff3d27cf834e3a8d2a147ec15631c5b9f61062615f7366b64736f6c63430008070033",
  "linkReferences": {},
  "deployedLinkReferences": {}
}