{
  "_format": "hh-sol-artifact-1",
  "contractName": "DVoucherNFT",
  "sourceName": "contracts/DVoucherMinter.sol",
  "abi": [
    {
      "inputs": [
        {
          "internalType": "address",
          "name": "_dVoucherAddress",
          "type": "address"
        }
      ],
      "stateMutability": "nonpayable",
      "type": "constructor"
    },
    {
      "anonymous": false,
      "inputs": [
        {
          "indexed": false,
          "internalType": "uint256",
          "name": "dVoucherAmount",
          "type": "uint256"
        },
        {
          "indexed": true,
          "internalType": "address",
          "name": "userAddress",
          "type": "address"
        },
        {
          "indexed": false,
          "internalType": "uint8",
          "name": "nonce",
          "type": "uint8"
        }
      ],
      "name": "DVoucherClaimed",
      "type": "event"
    },
    {
      "anonymous": false,
      "inputs": [
        {
          "indexed": true,
          "internalType": "address",
          "name": "previousOwner",
          "type": "address"
        },
        {
          "indexed": true,
          "internalType": "address",
          "name": "newOwner",
          "type": "address"
        }
      ],
      "name": "OwnershipTransferred",
      "type": "event"
    },
    {
      "inputs": [
        {
          "internalType": "uint256",
          "name": "_dVoucherAmount",
          "type": "uint256"
        },
        {
          "internalType": "address",
          "name": "_userAddress",
          "type": "address"
        },
        {
          "internalType": "uint8",
          "name": "_nonce",
          "type": "uint8"
        }
      ],
      "name": "claim",
      "outputs": [],
      "stateMutability": "nonpayable",
      "type": "function"
    },
    {
      "inputs": [
        {
          "internalType": "address",
          "name": "",
          "type": "address"
        },
        {
          "internalType": "uint8",
          "name": "",
          "type": "uint8"
        }
      ],
      "name": "claimedAmount",
      "outputs": [
        {
          "internalType": "uint256",
          "name": "",
          "type": "uint256"
        }
      ],
      "stateMutability": "view",
      "type": "function"
    },
    {
      "inputs": [],
      "name": "dVoucher",
      "outputs": [
        {
          "internalType": "contract DVoucherNFT",
          "name": "",
          "type": "address"
        }
      ],
      "stateMutability": "view",
      "type": "function"
    },
    {
      "inputs": [],
      "name": "owner",
      "outputs": [
        {
          "internalType": "address",
          "name": "",
          "type": "address"
        }
      ],
      "stateMutability": "view",
      "type": "function"
    },
    {
      "inputs": [],
      "name": "renounceOwnership",
      "outputs": [],
      "stateMutability": "nonpayable",
      "type": "function"
    },
    {
      "inputs": [
        {
          "internalType": "address",
          "name": "newOwner",
          "type": "address"
        }
      ],
      "name": "transferOwnership",
      "outputs": [],
      "stateMutability": "nonpayable",
      "type": "function"
    },
    {
      "inputs": [
        {
          "internalType": "string",
          "name": "name",
          "type": "string"
        },
        {
          "internalType": "string",
          "name": "symbol",
          "type": "string"
        }
      ],
      "stateMutability": "nonpayable",
      "type": "constructor"
    },
    {
      "anonymous": false,
      "inputs": [
        {
          "indexed": true,
          "internalType": "address",
          "name": "owner",
          "type": "address"
        },
        {
          "indexed": true,
          "internalType": "address",
          "name": "approved",
          "type": "address"
        },
        {
          "indexed": true,
          "internalType": "uint256",
          "name": "tokenId",
          "type": "uint256"
        }
      ],
      "name": "Approval",
      "type": "event"
    },
    {
      "anonymous": false,
      "inputs": [
        {
          "indexed": true,
          "internalType": "address",
          "name": "owner",
          "type": "address"
        },
        {
          "indexed": true,
          "internalType": "address",
          "name": "operator",
          "type": "address"
        },
        {
          "indexed": false,
          "internalType": "bool",
          "name": "approved",
          "type": "bool"
        }
      ],
      "name": "ApprovalForAll",
      "type": "event"
    },
    {
      "anonymous": false,
      "inputs": [
        {
          "indexed": false,
          "internalType": "uint256",
          "name": "tokenId",
          "type": "uint256"
        },
        {
          "indexed": false,
          "internalType": "uint8",
          "name": "nominal",
          "type": "uint8"
        },
        {
          "indexed": false,
          "internalType": "address",
          "name": "_to",
          "type": "address"
        },
        {
          "indexed": false,
          "internalType": "uint256",
          "name": "_mintTime",
          "type": "uint256"
        }
      ],
      "name": "DVoucherMinted",
      "type": "event"
    },
    {
      "anonymous": false,
      "inputs": [
        {
          "indexed": true,
          "internalType": "bytes32",
          "name": "role",
          "type": "bytes32"
        },
        {
          "indexed": true,
          "internalType": "bytes32",
          "name": "previousAdminRole",
          "type": "bytes32"
        },
        {
          "indexed": true,
          "internalType": "bytes32",
          "name": "newAdminRole",
          "type": "bytes32"
        }
      ],
      "name": "RoleAdminChanged",
      "type": "event"
    },
    {
      "anonymous": false,
      "inputs": [
        {
          "indexed": true,
          "internalType": "bytes32",
          "name": "role",
          "type": "bytes32"
        },
        {
          "indexed": true,
          "internalType": "address",
          "name": "account",
          "type": "address"
        },
        {
          "indexed": true,
          "internalType": "address",
          "name": "sender",
          "type": "address"
        }
      ],
      "name": "RoleGranted",
      "type": "event"
    },
    {
      "anonymous": false,
      "inputs": [
        {
          "indexed": true,
          "internalType": "bytes32",
          "name": "role",
          "type": "bytes32"
        },
        {
          "indexed": true,
          "internalType": "address",
          "name": "account",
          "type": "address"
        },
        {
          "indexed": true,
          "internalType": "address",
          "name": "sender",
          "type": "address"
        }
      ],
      "name": "RoleRevoked",
      "type": "event"
    },
    {
      "anonymous": false,
      "inputs": [
        {
          "indexed": true,
          "internalType": "address",
          "name": "from",
          "type": "address"
        },
        {
          "indexed": true,
          "internalType": "address",
          "name": "to",
          "type": "address"
        },
        {
          "indexed": true,
          "internalType": "uint256",
          "name": "tokenId",
          "type": "uint256"
        }
      ],
      "name": "Transfer",
      "type": "event"
    },
    {
      "inputs": [],
      "name": "DEFAULT_ADMIN_ROLE",
      "outputs": [
        {
          "internalType": "bytes32",
          "name": "",
          "type": "bytes32"
        }
      ],
      "stateMutability": "view",
      "type": "function"
    },
    {
      "inputs": [],
      "name": "MINTER_ROLE",
      "outputs": [
        {
          "internalType": "bytes32",
          "name": "",
          "type": "bytes32"
        }
      ],
      "stateMutability": "view",
      "type": "function"
    },
    {
      "inputs": [
        {
          "internalType": "address",
          "name": "to",
          "type": "address"
        },
        {
          "internalType": "uint256",
          "name": "tokenId",
          "type": "uint256"
        }
      ],
      "name": "approve",
      "outputs": [],
      "stateMutability": "nonpayable",
      "type": "function"
    },
    {
      "inputs": [
        {
          "internalType": "address",
          "name": "owner",
          "type": "address"
        }
      ],
      "name": "balanceOf",
      "outputs": [
        {
          "internalType": "uint256",
          "name": "",
          "type": "uint256"
        }
      ],
      "stateMutability": "view",
      "type": "function"
    },
    {
      "inputs": [
        {
          "internalType": "uint256",
          "name": "",
          "type": "uint256"
        }
      ],
      "name": "dVoucherTokenURIs",
      "outputs": [
        {
          "internalType": "string",
          "name": "",
          "type": "string"
        }
      ],
      "stateMutability": "view",
      "type": "function"
    },
    {
      "inputs": [
        {
          "internalType": "uint256",
          "name": "tokenId",
          "type": "uint256"
        }
      ],
      "name": "getApproved",
      "outputs": [
        {
          "internalType": "address",
          "name": "",
          "type": "address"
        }
      ],
      "stateMutability": "view",
      "type": "function"
    },
    {
      "inputs": [
        {
          "internalType": "uint256",
          "name": "_tokenId",
          "type": "uint256"
        }
      ],
      "name": "getNominal",
      "outputs": [
        {
          "internalType": "uint8",
          "name": "",
          "type": "uint8"
        }
      ],
      "stateMutability": "view",
      "type": "function"
    },
    {
      "inputs": [
        {
          "internalType": "uint8",
          "name": "_nominal",
          "type": "uint8"
        }
      ],
      "name": "getNominalName",
      "outputs": [
        {
          "internalType": "string",
          "name": "",
          "type": "string"
        }
      ],
      "stateMutability": "view",
      "type": "function"
    },
    {
      "inputs": [
        {
          "internalType": "uint256",
          "name": "_tokenId",
          "type": "uint256"
        }
      ],
      "name": "getNominalNameOfTokenId",
      "outputs": [
        {
          "internalType": "string",
          "name": "",
          "type": "string"
        }
      ],
      "stateMutability": "view",
      "type": "function"
    },
    {
      "inputs": [
        {
          "internalType": "bytes32",
          "name": "role",
          "type": "bytes32"
        }
      ],
      "name": "getRoleAdmin",
      "outputs": [
        {
          "internalType": "bytes32",
          "name": "",
          "type": "bytes32"
        }
      ],
      "stateMutability": "view",
      "type": "function"
    },
    {
      "inputs": [
        {
          "internalType": "bytes32",
          "name": "role",
          "type": "bytes32"
        },
        {
          "internalType": "uint256",
          "name": "index",
          "type": "uint256"
        }
      ],
      "name": "getRoleMember",
      "outputs": [
        {
          "internalType": "address",
          "name": "",
          "type": "address"
        }
      ],
      "stateMutability": "view",
      "type": "function"
    },
    {
      "inputs": [
        {
          "internalType": "bytes32",
          "name": "role",
          "type": "bytes32"
        }
      ],
      "name": "getRoleMemberCount",
      "outputs": [
        {
          "internalType": "uint256",
          "name": "",
          "type": "uint256"
        }
      ],
      "stateMutability": "view",
      "type": "function"
    },
    {
      "inputs": [
        {
          "internalType": "bytes32",
          "name": "role",
          "type": "bytes32"
        },
        {
          "internalType": "address",
          "name": "account",
          "type": "address"
        }
      ],
      "name": "grantRole",
      "outputs": [],
      "stateMutability": "nonpayable",
      "type": "function"
    },
    {
      "inputs": [
        {
          "internalType": "bytes32",
          "name": "role",
          "type": "bytes32"
        },
        {
          "internalType": "address",
          "name": "account",
          "type": "address"
        }
      ],
      "name": "hasRole",
      "outputs": [
        {
          "internalType": "bool",
          "name": "",
          "type": "bool"
        }
      ],
      "stateMutability": "view",
      "type": "function"
    },
    {
      "inputs": [
        {
          "internalType": "address",
          "name": "owner",
          "type": "address"
        },
        {
          "internalType": "address",
          "name": "operator",
          "type": "address"
        }
      ],
      "name": "isApprovedForAll",
      "outputs": [
        {
          "internalType": "bool",
          "name": "",
          "type": "bool"
        }
      ],
      "stateMutability": "view",
      "type": "function"
    },
    {
      "inputs": [
        {
          "internalType": "address",
          "name": "_to",
          "type": "address"
        },
        {
          "internalType": "uint8",
          "name": "_nominal",
          "type": "uint8"
        },
        {
          "internalType": "uint256",
          "name": "amount",
          "type": "uint256"
        }
      ],
      "name": "mint",
      "outputs": [],
      "stateMutability": "nonpayable",
      "type": "function"
    },
    {
      "inputs": [],
      "name": "name",
      "outputs": [
        {
          "internalType": "string",
          "name": "",
          "type": "string"
        }
      ],
      "stateMutability": "view",
      "type": "function"
    },
    {
      "inputs": [
        {
          "internalType": "uint8",
          "name": "",
          "type": "uint8"
        }
      ],
      "name": "nominalBurnCount",
      "outputs": [
        {
          "internalType": "uint256",
          "name": "",
          "type": "uint256"
        }
      ],
      "stateMutability": "view",
      "type": "function"
    },
    {
      "inputs": [
        {
          "internalType": "uint8",
          "name": "",
          "type": "uint8"
        }
      ],
      "name": "nominalCount",
      "outputs": [
        {
          "internalType": "uint256",
          "name": "",
          "type": "uint256"
        }
      ],
      "stateMutability": "view",
      "type": "function"
    },
    {
      "inputs": [
        {
          "internalType": "uint256",
          "name": "tokenId",
          "type": "uint256"
        }
      ],
      "name": "ownerOf",
      "outputs": [
        {
          "internalType": "address",
          "name": "",
          "type": "address"
        }
      ],
      "stateMutability": "view",
      "type": "function"
    },
    {
      "inputs": [
        {
          "internalType": "bytes32",
          "name": "role",
          "type": "bytes32"
        },
        {
          "internalType": "address",
          "name": "account",
          "type": "address"
        }
      ],
      "name": "renounceRole",
      "outputs": [],
      "stateMutability": "nonpayable",
      "type": "function"
    },
    {
      "inputs": [
        {
          "internalType": "bytes32",
          "name": "role",
          "type": "bytes32"
        },
        {
          "internalType": "address",
          "name": "account",
          "type": "address"
        }
      ],
      "name": "revokeRole",
      "outputs": [],
      "stateMutability": "nonpayable",
      "type": "function"
    },
    {
      "inputs": [
        {
          "internalType": "address",
          "name": "from",
          "type": "address"
        },
        {
          "internalType": "address",
          "name": "to",
          "type": "address"
        },
        {
          "internalType": "uint256",
          "name": "tokenId",
          "type": "uint256"
        }
      ],
      "name": "safeTransferFrom",
      "outputs": [],
      "stateMutability": "nonpayable",
      "type": "function"
    },
    {
      "inputs": [
        {
          "internalType": "address",
          "name": "from",
          "type": "address"
        },
        {
          "internalType": "address",
          "name": "to",
          "type": "address"
        },
        {
          "internalType": "uint256",
          "name": "tokenId",
          "type": "uint256"
        },
        {
          "internalType": "bytes",
          "name": "data",
          "type": "bytes"
        }
      ],
      "name": "safeTransferFrom",
      "outputs": [],
      "stateMutability": "nonpayable",
      "type": "function"
    },
    {
      "inputs": [
        {
          "internalType": "address",
          "name": "operator",
          "type": "address"
        },
        {
          "internalType": "bool",
          "name": "approved",
          "type": "bool"
        }
      ],
      "name": "setApprovalForAll",
      "outputs": [],
      "stateMutability": "nonpayable",
      "type": "function"
    },
    {
      "inputs": [
        {
          "internalType": "string",
          "name": "baseURI",
          "type": "string"
        }
      ],
      "name": "setBaseURI",
      "outputs": [],
      "stateMutability": "nonpayable",
      "type": "function"
    },
    {
      "inputs": [
        {
          "internalType": "string[4]",
          "name": "_dVoucherTokenURIs",
          "type": "string[4]"
        }
      ],
      "name": "setDVoucherTokenURIs",
      "outputs": [],
      "stateMutability": "nonpayable",
      "type": "function"
    },
    {
      "inputs": [
        {
          "internalType": "address",
          "name": "_minter",
          "type": "address"
        }
      ],
      "name": "setMinter",
      "outputs": [],
      "stateMutability": "nonpayable",
      "type": "function"
    },
    {
      "inputs": [
        {
          "internalType": "uint256",
          "name": "_tokenId",
          "type": "uint256"
        },
        {
          "internalType": "bool",
          "name": "_partedInClass",
          "type": "bool"
        },
        {
          "internalType": "bool",
          "name": "_partedInMega",
          "type": "bool"
        }
      ],
      "name": "setParticipateInfo",
      "outputs": [],
      "stateMutability": "nonpayable",
      "type": "function"
    },
    {
      "inputs": [
        {
          "internalType": "uint256",
          "name": "tokenId",
          "type": "uint256"
        },
        {
          "internalType": "string",
          "name": "_tokenURI",
          "type": "string"
        }
      ],
      "name": "setTokenURI",
      "outputs": [],
      "stateMutability": "nonpayable",
      "type": "function"
    },
    {
      "inputs": [
        {
          "internalType": "bytes4",
          "name": "interfaceId",
          "type": "bytes4"
        }
      ],
      "name": "supportsInterface",
      "outputs": [
        {
          "internalType": "bool",
          "name": "",
          "type": "bool"
        }
      ],
      "stateMutability": "view",
      "type": "function"
    },
    {
      "inputs": [],
      "name": "symbol",
      "outputs": [
        {
          "internalType": "string",
          "name": "",
          "type": "string"
        }
      ],
      "stateMutability": "view",
      "type": "function"
    },
    {
      "inputs": [
        {
          "internalType": "uint256",
          "name": "index",
          "type": "uint256"
        }
      ],
      "name": "tokenByIndex",
      "outputs": [
        {
          "internalType": "uint256",
          "name": "",
          "type": "uint256"
        }
      ],
      "stateMutability": "view",
      "type": "function"
    },
    {
      "inputs": [
        {
          "internalType": "uint256",
          "name": "",
          "type": "uint256"
        }
      ],
      "name": "tokenInfo",
      "outputs": [
        {
          "internalType": "uint8",
          "name": "nominal",
          "type": "uint8"
        },
        {
          "internalType": "address",
          "name": "minter",
          "type": "address"
        },
        {
          "internalType": "bool",
          "name": "partedInClass",
          "type": "bool"
        },
        {
          "internalType": "bool",
          "name": "partedInMega",
          "type": "bool"
        }
      ],
      "stateMutability": "view",
      "type": "function"
    },
    {
      "inputs": [
        {
          "internalType": "uint256",
          "name": "tokenId",
          "type": "uint256"
        }
      ],
      "name": "tokenMinter",
      "outputs": [
        {
          "internalType": "address",
          "name": "",
          "type": "address"
        }
      ],
      "stateMutability": "view",
      "type": "function"
    },
    {
      "inputs": [
        {
          "internalType": "address",
          "name": "owner",
          "type": "address"
        },
        {
          "internalType": "uint256",
          "name": "index",
          "type": "uint256"
        }
      ],
      "name": "tokenOfOwnerByIndex",
      "outputs": [
        {
          "internalType": "uint256",
          "name": "",
          "type": "uint256"
        }
      ],
      "stateMutability": "view",
      "type": "function"
    },
    {
      "inputs": [
        {
          "internalType": "uint256",
          "name": "tokenId",
          "type": "uint256"
        }
      ],
      "name": "tokenURI",
      "outputs": [
        {
          "internalType": "string",
          "name": "",
          "type": "string"
        }
      ],
      "stateMutability": "view",
      "type": "function"
    },
    {
      "inputs": [],
      "name": "totalSupply",
      "outputs": [
        {
          "internalType": "uint256",
          "name": "",
          "type": "uint256"
        }
      ],
      "stateMutability": "view",
      "type": "function"
    },
    {
      "inputs": [
        {
          "internalType": "address",
          "name": "from",
          "type": "address"
        },
        {
          "internalType": "address",
          "name": "to",
          "type": "address"
        },
        {
          "internalType": "uint256",
          "name": "tokenId",
          "type": "uint256"
        }
      ],
      "name": "transferFrom",
      "outputs": [],
      "stateMutability": "nonpayable",
      "type": "function"
    }
  ],
  "bytecode": "0x60806040523480156200001157600080fd5b506040516200314c3803806200314c83398101604081905262000034916200035f565b8151829082906200004d90600290602085019062000202565b5080516200006390600390602084019062000202565b5050604080516020810191829052600090819052620000879250600e919062000202565b50620000956000336200009d565b50506200041c565b620000a98282620000ad565b5050565b620000c48282620000f060201b620012771760201c565b6000828152600160209081526040909120620000eb918390620012fb62000190821b17901c565b505050565b6000828152602081815260408083206001600160a01b038516845290915290205460ff16620000a9576000828152602081815260408083206001600160a01b03851684529091529020805460ff191660011790556200014c3390565b6001600160a01b0316816001600160a01b0316837f2f8788117e7eff1d82e926ec794901d17c78024a50270940304540a733656f0d60405160405180910390a45050565b6000620001a7836001600160a01b038416620001b0565b90505b92915050565b6000818152600183016020526040812054620001f957508154600181810184556000848152602080822090930184905584548482528286019093526040902091909155620001aa565b506000620001aa565b8280546200021090620003c9565b90600052602060002090601f0160209004810192826200023457600085556200027f565b82601f106200024f57805160ff19168380011785556200027f565b828001600101855582156200027f579182015b828111156200027f57825182559160200191906001019062000262565b506200028d92915062000291565b5090565b5b808211156200028d576000815560010162000292565b600082601f830112620002ba57600080fd5b81516001600160401b0380821115620002d757620002d762000406565b604051601f8301601f19908116603f0116810190828211818310171562000302576200030262000406565b816040528381526020925086838588010111156200031f57600080fd5b600091505b8382101562000343578582018301518183018401529082019062000324565b83821115620003555760008385830101525b9695505050505050565b600080604083850312156200037357600080fd5b82516001600160401b03808211156200038b57600080fd5b6200039986838701620002a8565b93506020850151915080821115620003b057600080fd5b50620003bf85828601620002a8565b9150509250929050565b600181811c90821680620003de57607f821691505b602082108114156200040057634e487b7160e01b600052602260045260246000fd5b50919050565b634e487b7160e01b600052604160045260246000fd5b612d20806200042c6000396000f3fe608060405234801561001057600080fd5b506004361061023d5760003560e01c806370a082311161013b578063c7c54fa3116100b8578063d4ce25381161007c578063d4ce2538146105b1578063d5391393146105c4578063d547741f146105d9578063e985e9c5146105ec578063fca3b5aa1461062857600080fd5b8063c7c54fa3146104bb578063c87b56dd146104f0578063ca15c87314610503578063cc33c87514610516578063d32f72121461059157600080fd5b806395d89b41116100ff57806395d89b4114610472578063a217fddf1461047a578063a22cb46514610482578063b88d4fde14610495578063bc9a518f146104a857600080fd5b806370a08231146103f85780637c57d9471461040b5780637ca12e95146104395780639010d07c1461044c57806391d148541461045f57600080fd5b80632f2ff15d116101c95780634f6ccce71161018d5780634f6ccce71461038c57806355f804b31461039f578063612a9816146103b25780636352211e146103d25780636dd70bf1146103e557600080fd5b80632f2ff15d1461032d5780632f745c591461034057806336568abe1461035357806342842e0e146103665780634ed387b21461037957600080fd5b8063095ea7b311610210578063095ea7b3146102bd578063162094c4146102d257806318160ddd146102e557806323b872dd146102f7578063248a9ca31461030a57600080fd5b806301ffc9a71461024257806303a9c05e1461026a57806306fdde031461028a578063081812fc14610292575b600080fd5b6102556102503660046127ce565b61063b565b60405190151581526020015b60405180910390f35b61027d6102783660046128c0565b61064c565b60405161026191906129e8565b61027d6106f2565b6102a56102a0366004612770565b610784565b6040516001600160a01b039091168152602001610261565b6102d06102cb3660046126df565b6107ab565b005b6102d06102e0366004612879565b6108c6565b600a545b604051908152602001610261565b6102d06103053660046125fd565b6108fb565b6102e9610318366004612770565b60009081526020819052604090206001015490565b6102d061033b366004612789565b61092c565b6102e961034e3660046126df565b610951565b6102d0610361366004612789565b6109e7565b6102d06103743660046125fd565b610a61565b6102d0610387366004612709565b610a7c565b6102e961039a366004612770565b610cf2565b6102d06103ad366004612808565b610d85565b6102e96103c03660046128c0565b60166020526000908152604090205481565b6102a56103e0366004612770565b610dbf565b61027d6103f3366004612770565b610e1f565b6102e96104063660046125af565b610ebf565b6102a5610419366004612770565b60009081526013602052604090205461010090046001600160a01b031690565b6102d0610447366004612735565b610f45565b6102a561045a3660046127ac565b610fd0565b61025561046d366004612789565b610fef565b61027d611018565b6102e9600081565b6102d06104903660046126b5565b611027565b6102d06104a3366004612639565b611032565b6102d06104b636600461283d565b611064565b6104de6104c9366004612770565b60009081526013602052604090205460ff1690565b60405160ff9091168152602001610261565b61027d6104fe366004612770565b6110fd565b6102e9610511366004612770565b611108565b61055d610524366004612770565b60136020526000908152604090205460ff808216916001600160a01b0361010082041691600160a81b8204811691600160b01b90041684565b6040805160ff90951685526001600160a01b0390931660208501529015159183019190915215156060820152608001610261565b6102e961059f3660046128c0565b60156020526000908152604090205481565b61027d6105bf366004612770565b61111f565b6102e9600080516020612ccb83398151915281565b6102d06105e7366004612789565b6111d5565b6102556105fa3660046125ca565b6001600160a01b03918216600090815260076020908152604080832093909416825291909152205460ff1690565b6102d06106363660046125af565b6111fa565b600061064682611310565b92915050565b60ff8116600090815260146020526040902080546060919061066d90612bdc565b80601f016020809104026020016040519081016040528092919081815260200182805461069990612bdc565b80156106e65780601f106106bb576101008083540402835291602001916106e6565b820191906000526020600020905b8154815290600101906020018083116106c957829003601f168201915b50505050509050919050565b60606002805461070190612bdc565b80601f016020809104026020016040519081016040528092919081815260200182805461072d90612bdc565b801561077a5780601f1061074f5761010080835404028352916020019161077a565b820191906000526020600020905b81548152906001019060200180831161075d57829003601f168201915b5050505050905090565b600061078f82611335565b506000908152600660205260409020546001600160a01b031690565b60006107b682610dbf565b9050806001600160a01b0316836001600160a01b031614156108295760405162461bcd60e51b815260206004820152602160248201527f4552433732313a20617070726f76616c20746f2063757272656e74206f776e656044820152603960f91b60648201526084015b60405180910390fd5b336001600160a01b0382161480610845575061084581336105fa565b6108b75760405162461bcd60e51b815260206004820152603e60248201527f4552433732313a20617070726f76652063616c6c6572206973206e6f7420746f60448201527f6b656e206f776e6572206e6f7220617070726f76656420666f7220616c6c00006064820152608401610820565b6108c18383611394565b505050565b6108d1600033610fef565b6108ed5760405162461bcd60e51b815260040161082090612a4d565b6108f78282611402565b5050565b610905338261149c565b6109215760405162461bcd60e51b815260040161082090612a78565b6108c183838361151b565b600082815260208190526040902060010154610947816116c2565b6108c183836116cc565b600061095c83610ebf565b82106109be5760405162461bcd60e51b815260206004820152602b60248201527f455243373231456e756d657261626c653a206f776e657220696e646578206f7560448201526a74206f6620626f756e647360a81b6064820152608401610820565b506001600160a01b03919091166000908152600860209081526040808320938352929052205490565b6001600160a01b0381163314610a575760405162461bcd60e51b815260206004820152602f60248201527f416363657373436f6e74726f6c3a2063616e206f6e6c792072656e6f756e636560448201526e103937b632b9903337b91039b2b63360891b6064820152608401610820565b6108f782826116ee565b6108c183838360405180602001604052806000815250611032565b610a94600080516020612ccb83398151915233610fef565b610ad55760405162461bcd60e51b81526020600482015260126024820152714e6f742061206d696e74696e6720726f6c6560701b6044820152606401610820565b60008260ff16118015610aeb575060058260ff16105b610b465760405162461bcd60e51b815260206004820152602660248201527f44566f7563686572203a204e6f6d696e616c206d757374206265206c657373206044820152657468616e203560d01b6064820152608401610820565b60005b81811015610cec576000610b5c600d5490565b9050610b6c600d80546001019055565b6000818152601360209081526040808320805460ff191660ff891690811782558452601590925290912054610ba2906001612b14565b60ff86166000908152601560205260409020558054610100600160a81b0319163361010002178155610bd48683611710565b610c8782600f610be5600189612b76565b60ff1660048110610bf857610bf8612c88565b018054610c0490612bdc565b80601f0160208091040260200160405190810160405280929190818152602001828054610c3090612bdc565b8015610c7d5780601f10610c5257610100808354040283529160200191610c7d565b820191906000526020600020905b815481529060010190602001808311610c6057829003601f168201915b5050505050611402565b6040805183815260ff871660208201526001600160a01b0388168183015242606082015290517f0bf5afb93d38ba2254349ec684aec705be5b8364303da42d2645e17f5d456de99181900360800190a150508080610ce490612c17565b915050610b49565b50505050565b6000610cfd600a5490565b8210610d605760405162461bcd60e51b815260206004820152602c60248201527f455243373231456e756d657261626c653a20676c6f62616c20696e646578206f60448201526b7574206f6620626f756e647360a01b6064820152608401610820565b600a8281548110610d7357610d73612c88565b90600052602060002001549050919050565b610d90600033610fef565b610dac5760405162461bcd60e51b815260040161082090612a4d565b80516108f790600e9060208401906123cf565b6000818152600460205260408120546001600160a01b0316806106465760405162461bcd60e51b8152602060048201526018602482015277115490cdcc8c4e881a5b9d985b1a59081d1bdad95b88125160421b6044820152606401610820565b600f8160048110610e2f57600080fd5b018054909150610e3e90612bdc565b80601f0160208091040260200160405190810160405280929190818152602001828054610e6a90612bdc565b8015610eb75780601f10610e8c57610100808354040283529160200191610eb7565b820191906000526020600020905b815481529060010190602001808311610e9a57829003601f168201915b505050505081565b60006001600160a01b038216610f295760405162461bcd60e51b815260206004820152602960248201527f4552433732313a2061646472657373207a65726f206973206e6f7420612076616044820152683634b21037bbb732b960b91b6064820152608401610820565b506001600160a01b031660009081526005602052604090205490565b610f50600033610fef565b610f6c5760405162461bcd60e51b815260040161082090612a4d565b610f768180612ac6565b610f8291600f91612453565b50610f906020820182612ac6565b610f9c91601091612453565b50610faa6040820182612ac6565b610fb691601191612453565b50610fc46060820182612ac6565b6108f791601291612453565b6000828152600160205260408120610fe8908361185e565b9392505050565b6000918252602082815260408084206001600160a01b0393909316845291905290205460ff1690565b60606003805461070190612bdc565b6108f733838361186a565b61103c338361149c565b6110585760405162461bcd60e51b815260040161082090612a78565b610cec84848484611939565b61107c600080516020612ccb83398151915233610fef565b6110bd5760405162461bcd60e51b81526020600482015260126024820152714e6f742061206d696e74696e6720726f6c6560701b6044820152606401610820565b6000928352601360205260409092208054921515600160b01b0260ff60b01b19921515600160a81b029290921661ffff60a81b1990931692909217179055565b60606106468261196c565b600081815260016020526040812061064690611a68565b60008181526013602090815260408083205460ff1680845260149092529091208054606092919061114f90612bdc565b80601f016020809104026020016040519081016040528092919081815260200182805461117b90612bdc565b80156111c85780601f1061119d576101008083540402835291602001916111c8565b820191906000526020600020905b8154815290600101906020018083116111ab57829003601f168201915b5050505050915050919050565b6000828152602081905260409020600101546111f0816116c2565b6108c183836116ee565b611205600033610fef565b6112215760405162461bcd60e51b815260040161082090612a4d565b6001600160a01b03811661125c5760405162461bcd60e51b81526020600482015260026024820152614e4160f01b6044820152606401610820565b611274600080516020612ccb83398151915282611a72565b50565b6112818282610fef565b6108f7576000828152602081815260408083206001600160a01b03851684529091529020805460ff191660011790556112b73390565b6001600160a01b0316816001600160a01b0316837f2f8788117e7eff1d82e926ec794901d17c78024a50270940304540a733656f0d60405160405180910390a45050565b6000610fe8836001600160a01b038416611a7c565b60006001600160e01b0319821663780e9d6360e01b1480610646575061064682611acb565b6000818152600460205260409020546001600160a01b03166112745760405162461bcd60e51b8152602060048201526018602482015277115490cdcc8c4e881a5b9d985b1a59081d1bdad95b88125160421b6044820152606401610820565b600081815260066020526040902080546001600160a01b0319166001600160a01b03841690811790915581906113c982610dbf565b6001600160a01b03167f8c5be1e5ebec7d5bd14f71427d1e84f3dd0314c0f7b2291e5b200ac8c7c3b92560405160405180910390a45050565b6000828152600460205260409020546001600160a01b031661147d5760405162461bcd60e51b815260206004820152602e60248201527f45524337323155524953746f726167653a2055524920736574206f66206e6f6e60448201526d32bc34b9ba32b73a103a37b5b2b760911b6064820152608401610820565b6000828152600c6020908152604090912082516108c1928401906123cf565b6000806114a883610dbf565b9050806001600160a01b0316846001600160a01b031614806114ef57506001600160a01b0380821660009081526007602090815260408083209388168352929052205460ff165b806115135750836001600160a01b031661150884610784565b6001600160a01b0316145b949350505050565b826001600160a01b031661152e82610dbf565b6001600160a01b0316146115925760405162461bcd60e51b815260206004820152602560248201527f4552433732313a207472616e736665722066726f6d20696e636f72726563742060448201526437bbb732b960d91b6064820152608401610820565b6001600160a01b0382166115f45760405162461bcd60e51b8152602060048201526024808201527f4552433732313a207472616e7366657220746f20746865207a65726f206164646044820152637265737360e01b6064820152608401610820565b6115ff838383611b0b565b61160a600082611394565b6001600160a01b0383166000908152600560205260408120805460019290611633908490612b5f565b90915550506001600160a01b0382166000908152600560205260408120805460019290611661908490612b14565b909155505060008181526004602052604080822080546001600160a01b0319166001600160a01b0386811691821790925591518493918716917fddf252ad1be2c89b69c2b068fc378daa952ba7f163c4a11628f55a4df523b3ef91a4505050565b6112748133611b16565b6116d68282611277565b60008281526001602052604090206108c190826112fb565b6116f88282611b7a565b60008281526001602052604090206108c19082611bdf565b6001600160a01b0382166117665760405162461bcd60e51b815260206004820181905260248201527f4552433732313a206d696e7420746f20746865207a65726f20616464726573736044820152606401610820565b6000818152600460205260409020546001600160a01b0316156117cb5760405162461bcd60e51b815260206004820152601c60248201527f4552433732313a20746f6b656e20616c7265616479206d696e746564000000006044820152606401610820565b6117d760008383611b0b565b6001600160a01b0382166000908152600560205260408120805460019290611800908490612b14565b909155505060008181526004602052604080822080546001600160a01b0319166001600160a01b03861690811790915590518392907fddf252ad1be2c89b69c2b068fc378daa952ba7f163c4a11628f55a4df523b3ef908290a45050565b6000610fe88383611bf4565b816001600160a01b0316836001600160a01b031614156118cc5760405162461bcd60e51b815260206004820152601960248201527f4552433732313a20617070726f766520746f2063616c6c6572000000000000006044820152606401610820565b6001600160a01b03838116600081815260076020908152604080832094871680845294825291829020805460ff191686151590811790915591519182527f17307eab39ab6107e8899845ad3d59bd9653f200f220920489ca2b5937696c31910160405180910390a3505050565b61194484848461151b565b61195084848484611c1e565b610cec5760405162461bcd60e51b8152600401610820906129fb565b606061197782611335565b6000828152600c60205260408120805461199090612bdc565b80601f01602080910402602001604051908101604052809291908181526020018280546119bc90612bdc565b8015611a095780601f106119de57610100808354040283529160200191611a09565b820191906000526020600020905b8154815290600101906020018083116119ec57829003601f168201915b505050505090506000611a1a611d2b565b9050805160001415611a2d575092915050565b815115611a5f578082604051602001611a47929190612907565b60405160208183030381529060405292505050919050565b61151384611d3a565b6000610646825490565b6108f782826116cc565b6000818152600183016020526040812054611ac357508154600181810184556000848152602080822090930184905584548482528286019093526040902091909155610646565b506000610646565b60006001600160e01b031982166380ac58cd60e01b1480611afc57506001600160e01b03198216635b5e139f60e01b145b80610646575061064682611da0565b6108c1838383611dc5565b611b208282610fef565b6108f757611b38816001600160a01b03166014611e7d565b611b43836020611e7d565b604051602001611b54929190612936565b60408051601f198184030181529082905262461bcd60e51b8252610820916004016129e8565b611b848282610fef565b156108f7576000828152602081815260408083206001600160a01b0385168085529252808320805460ff1916905551339285917ff6391f5c32d9c69d2a47ea670b442974b53935d1edc7fd64eb21e047a839171b9190a45050565b6000610fe8836001600160a01b038416612019565b6000826000018281548110611c0b57611c0b612c88565b9060005260206000200154905092915050565b60006001600160a01b0384163b15611d2057604051630a85bd0160e11b81526001600160a01b0385169063150b7a0290611c629033908990889088906004016129ab565b602060405180830381600087803b158015611c7c57600080fd5b505af1925050508015611cac575060408051601f3d908101601f19168201909252611ca9918101906127eb565b60015b611d06573d808015611cda576040519150601f19603f3d011682016040523d82523d6000602084013e611cdf565b606091505b508051611cfe5760405162461bcd60e51b8152600401610820906129fb565b805181602001fd5b6001600160e01b031916630a85bd0160e11b149050611513565b506001949350505050565b6060600e805461070190612bdc565b6060611d4582611335565b6000611d4f611d2b565b90506000815111611d6f5760405180602001604052806000815250610fe8565b80611d798461210c565b604051602001611d8a929190612907565b6040516020818303038152906040529392505050565b60006001600160e01b03198216635a05180f60e01b148061064657506106468261220a565b6001600160a01b038316611e2057611e1b81600a80546000838152600b60205260408120829055600182018355919091527fc65a7bb8d6351c1cf70c95a316cc6a92839c986682d98bc35f958f4883f9d2a80155565b611e43565b816001600160a01b0316836001600160a01b031614611e4357611e43838261223f565b6001600160a01b038216611e5a576108c1816122dc565b826001600160a01b0316826001600160a01b0316146108c1576108c1828261238b565b60606000611e8c836002612b40565b611e97906002612b14565b67ffffffffffffffff811115611eaf57611eaf612c9e565b6040519080825280601f01601f191660200182016040528015611ed9576020820181803683370190505b509050600360fc1b81600081518110611ef457611ef4612c88565b60200101906001600160f81b031916908160001a905350600f60fb1b81600181518110611f2357611f23612c88565b60200101906001600160f81b031916908160001a9053506000611f47846002612b40565b611f52906001612b14565b90505b6001811115611fca576f181899199a1a9b1b9c1cb0b131b232b360811b85600f1660108110611f8657611f86612c88565b1a60f81b828281518110611f9c57611f9c612c88565b60200101906001600160f81b031916908160001a90535060049490941c93611fc381612bc5565b9050611f55565b508315610fe85760405162461bcd60e51b815260206004820181905260248201527f537472696e67733a20686578206c656e67746820696e73756666696369656e746044820152606401610820565b6000818152600183016020526040812054801561210257600061203d600183612b5f565b855490915060009061205190600190612b5f565b90508181146120b657600086600001828154811061207157612071612c88565b906000526020600020015490508087600001848154811061209457612094612c88565b6000918252602080832090910192909255918252600188019052604090208390555b85548690806120c7576120c7612c72565b600190038181906000526020600020016000905590558560010160008681526020019081526020016000206000905560019350505050610646565b6000915050610646565b6060816121305750506040805180820190915260018152600360fc1b602082015290565b8160005b811561215a578061214481612c17565b91506121539050600a83612b2c565b9150612134565b60008167ffffffffffffffff81111561217557612175612c9e565b6040519080825280601f01601f19166020018201604052801561219f576020820181803683370190505b5090505b8415611513576121b4600183612b5f565b91506121c1600a86612c32565b6121cc906030612b14565b60f81b8183815181106121e1576121e1612c88565b60200101906001600160f81b031916908160001a905350612203600a86612b2c565b94506121a3565b60006001600160e01b03198216637965db0b60e01b148061064657506301ffc9a760e01b6001600160e01b0319831614610646565b6000600161224c84610ebf565b6122569190612b5f565b6000838152600960205260409020549091508082146122a9576001600160a01b03841660009081526008602090815260408083208584528252808320548484528184208190558352600990915290208190555b5060009182526009602090815260408084208490556001600160a01b039094168352600881528383209183525290812055565b600a546000906122ee90600190612b5f565b6000838152600b6020526040812054600a805493945090928490811061231657612316612c88565b9060005260206000200154905080600a838154811061233757612337612c88565b6000918252602080832090910192909255828152600b9091526040808220849055858252812055600a80548061236f5761236f612c72565b6001900381819060005260206000200160009055905550505050565b600061239683610ebf565b6001600160a01b039093166000908152600860209081526040808320868452825280832085905593825260099052919091209190915550565b8280546123db90612bdc565b90600052602060002090601f0160209004810192826123fd5760008555612443565b82601f1061241657805160ff1916838001178555612443565b82800160010185558215612443579182015b82811115612443578251825591602001919060010190612428565b5061244f9291506124c7565b5090565b82805461245f90612bdc565b90600052602060002090601f0160209004810192826124815760008555612443565b82601f1061249a5782800160ff19823516178555612443565b82800160010185558215612443579182015b828111156124435782358255916020019190600101906124ac565b5b8082111561244f57600081556001016124c8565b600067ffffffffffffffff808411156124f7576124f7612c9e565b604051601f8501601f19908116603f0116810190828211818310171561251f5761251f612c9e565b8160405280935085815286868601111561253857600080fd5b858560208301376000602087830101525050509392505050565b80356001600160a01b038116811461256957600080fd5b919050565b8035801515811461256957600080fd5b600082601f83011261258f57600080fd5b610fe8838335602085016124dc565b803560ff8116811461256957600080fd5b6000602082840312156125c157600080fd5b610fe882612552565b600080604083850312156125dd57600080fd5b6125e683612552565b91506125f460208401612552565b90509250929050565b60008060006060848603121561261257600080fd5b61261b84612552565b925061262960208501612552565b9150604084013590509250925092565b6000806000806080858703121561264f57600080fd5b61265885612552565b935061266660208601612552565b925060408501359150606085013567ffffffffffffffff81111561268957600080fd5b8501601f8101871361269a57600080fd5b6126a9878235602084016124dc565b91505092959194509250565b600080604083850312156126c857600080fd5b6126d183612552565b91506125f46020840161256e565b600080604083850312156126f257600080fd5b6126fb83612552565b946020939093013593505050565b60008060006060848603121561271e57600080fd5b61272784612552565b92506126296020850161259e565b60006020828403121561274757600080fd5b813567ffffffffffffffff81111561275e57600080fd5b820160808101841015610fe857600080fd5b60006020828403121561278257600080fd5b5035919050565b6000806040838503121561279c57600080fd5b823591506125f460208401612552565b600080604083850312156127bf57600080fd5b50508035926020909101359150565b6000602082840312156127e057600080fd5b8135610fe881612cb4565b6000602082840312156127fd57600080fd5b8151610fe881612cb4565b60006020828403121561281a57600080fd5b813567ffffffffffffffff81111561283157600080fd5b6115138482850161257e565b60008060006060848603121561285257600080fd5b833592506128626020850161256e565b91506128706040850161256e565b90509250925092565b6000806040838503121561288c57600080fd5b82359150602083013567ffffffffffffffff8111156128aa57600080fd5b6128b68582860161257e565b9150509250929050565b6000602082840312156128d257600080fd5b610fe88261259e565b600081518084526128f3816020860160208601612b99565b601f01601f19169290920160200192915050565b60008351612919818460208801612b99565b83519083019061292d818360208801612b99565b01949350505050565b7f416363657373436f6e74726f6c3a206163636f756e742000000000000000000081526000835161296e816017850160208801612b99565b7001034b99036b4b9b9b4b733903937b6329607d1b601791840191820152835161299f816028840160208801612b99565b01602801949350505050565b6001600160a01b03858116825284166020820152604081018390526080606082018190526000906129de908301846128db565b9695505050505050565b602081526000610fe860208301846128db565b60208082526032908201527f4552433732313a207472616e7366657220746f206e6f6e20455243373231526560408201527131b2b4bb32b91034b6b83632b6b2b73a32b960711b606082015260800190565b6020808252601190820152704e6f7420616e2061646d696e20726f6c6560781b604082015260600190565b6020808252602e908201527f4552433732313a2063616c6c6572206973206e6f7420746f6b656e206f776e6560408201526d1c881b9bdc88185c1c1c9bdd995960921b606082015260800190565b6000808335601e19843603018112612add57600080fd5b83018035915067ffffffffffffffff821115612af857600080fd5b602001915036819003821315612b0d57600080fd5b9250929050565b60008219821115612b2757612b27612c46565b500190565b600082612b3b57612b3b612c5c565b500490565b6000816000190483118215151615612b5a57612b5a612c46565b500290565b600082821015612b7157612b71612c46565b500390565b600060ff821660ff841680821015612b9057612b90612c46565b90039392505050565b60005b83811015612bb4578181015183820152602001612b9c565b83811115610cec5750506000910152565b600081612bd457612bd4612c46565b506000190190565b600181811c90821680612bf057607f821691505b60208210811415612c1157634e487b7160e01b600052602260045260246000fd5b50919050565b6000600019821415612c2b57612c2b612c46565b5060010190565b600082612c4157612c41612c5c565b500690565b634e487b7160e01b600052601160045260246000fd5b634e487b7160e01b600052601260045260246000fd5b634e487b7160e01b600052603160045260246000fd5b634e487b7160e01b600052603260045260246000fd5b634e487b7160e01b600052604160045260246000fd5b6001600160e01b03198116811461127457600080fdfe9f2df0fed2c77648de5860a4cc508cd0818c85b8b8a1ab4ceeef8d981c8956a6a26469706673582212208eb6f45714f26c945cb77e9c2fb8cb921ade3f6a7ff14a330b72cdd3c28a383364736f6c63430008070033",
  "linkReferences": {},
  "deployedLinkReferences": {}
}