{
  "_format": "hh-sol-artifact-1",
  "contractName": "JackpotLottery",
  "sourceName": "contracts/JackpotLottery.sol",
  "abi": [
    {
      "inputs": [
        {
          "internalType": "address",
          "name": "_dVoucherAddress",
          "type": "address"
        },
        {
          "internalType": "address",
          "name": "_randomGeneratorAddress",
          "type": "address"
        }
      ],
      "stateMutability": "nonpayable",
      "type": "constructor"
    },
    {
      "anonymous": false,
      "inputs": [
        {
          "indexed": false,
          "internalType": "address",
          "name": "token",
          "type": "address"
        },
        {
          "indexed": false,
          "internalType": "uint256",
          "name": "amount",
          "type": "uint256"
        }
      ],
      "name": "AdminTokenRecovery",
      "type": "event"
    },
    {
      "anonymous": false,
      "inputs": [
        {
          "indexed": true,
          "internalType": "uint256",
          "name": "lotteryId",
          "type": "uint256"
        }
      ],
      "name": "LotteryClose",
      "type": "event"
    },
    {
      "anonymous": false,
      "inputs": [
        {
          "indexed": true,
          "internalType": "uint256",
          "name": "lotteryId",
          "type": "uint256"
        },
        {
          "indexed": false,
          "internalType": "uint256",
          "name": "finalNumber",
          "type": "uint256"
        },
        {
          "indexed": false,
          "internalType": "uint256",
          "name": "countWinningTickets",
          "type": "uint256"
        }
      ],
      "name": "LotteryNumberDrawn",
      "type": "event"
    },
    {
      "anonymous": false,
      "inputs": [
        {
          "indexed": true,
          "internalType": "uint256",
          "name": "lotteryId",
          "type": "uint256"
        },
        {
          "indexed": false,
          "internalType": "uint256",
          "name": "startTime",
          "type": "uint256"
        },
        {
          "indexed": false,
          "internalType": "uint256",
          "name": "endTime",
          "type": "uint256"
        },
        {
          "indexed": false,
          "internalType": "uint8",
          "name": "class",
          "type": "uint8"
        },
        {
          "indexed": false,
          "internalType": "uint256",
          "name": "totalReward",
          "type": "uint256"
        }
      ],
      "name": "LotteryOpen",
      "type": "event"
    },
    {
      "anonymous": false,
      "inputs": [
        {
          "indexed": false,
          "internalType": "address",
          "name": "operatorAddress",
          "type": "address"
        }
      ],
      "name": "NewOperatorAddress",
      "type": "event"
    },
    {
      "anonymous": false,
      "inputs": [
        {
          "indexed": true,
          "internalType": "address",
          "name": "randomGenerator",
          "type": "address"
        }
      ],
      "name": "NewRandomGenerator",
      "type": "event"
    },
    {
      "anonymous": false,
      "inputs": [
        {
          "indexed": true,
          "internalType": "address",
          "name": "previousOwner",
          "type": "address"
        },
        {
          "indexed": true,
          "internalType": "address",
          "name": "newOwner",
          "type": "address"
        }
      ],
      "name": "OwnershipTransferred",
      "type": "event"
    },
    {
      "anonymous": false,
      "inputs": [
        {
          "indexed": true,
          "internalType": "address",
          "name": "claimer",
          "type": "address"
        },
        {
          "indexed": false,
          "internalType": "uint256",
          "name": "amount",
          "type": "uint256"
        },
        {
          "indexed": true,
          "internalType": "uint256",
          "name": "lotteryId",
          "type": "uint256"
        },
        {
          "indexed": false,
          "internalType": "uint256",
          "name": "numberTickets",
          "type": "uint256"
        }
      ],
      "name": "TicketsClaim",
      "type": "event"
    },
    {
      "anonymous": false,
      "inputs": [
        {
          "indexed": true,
          "internalType": "address",
          "name": "sender",
          "type": "address"
        },
        {
          "indexed": true,
          "internalType": "uint256",
          "name": "lotteryId",
          "type": "uint256"
        },
        {
          "indexed": false,
          "internalType": "uint256",
          "name": "numberTickets",
          "type": "uint256"
        }
      ],
      "name": "TicketsRegistered",
      "type": "event"
    },
    {
      "inputs": [],
      "name": "MAX_LENGTH_LOTTERY",
      "outputs": [
        {
          "internalType": "uint256",
          "name": "",
          "type": "uint256"
        }
      ],
      "stateMutability": "view",
      "type": "function"
    },
    {
      "inputs": [],
      "name": "MIN_LENGTH_LOTTERY",
      "outputs": [
        {
          "internalType": "uint256",
          "name": "",
          "type": "uint256"
        }
      ],
      "stateMutability": "view",
      "type": "function"
    },
    {
      "inputs": [
        {
          "internalType": "address",
          "name": "_randomGeneratorAddress",
          "type": "address"
        }
      ],
      "name": "changeRandomGenerator",
      "outputs": [],
      "stateMutability": "nonpayable",
      "type": "function"
    },
    {
      "inputs": [
        {
          "internalType": "uint256",
          "name": "_lotteryId",
          "type": "uint256"
        },
        {
          "internalType": "uint256[]",
          "name": "_ticketIds",
          "type": "uint256[]"
        },
        {
          "internalType": "uint32[]",
          "name": "_brackets",
          "type": "uint32[]"
        }
      ],
      "name": "claimTickets",
      "outputs": [],
      "stateMutability": "nonpayable",
      "type": "function"
    },
    {
      "inputs": [
        {
          "internalType": "uint256",
          "name": "_lotteryId",
          "type": "uint256"
        }
      ],
      "name": "closeLottery",
      "outputs": [],
      "stateMutability": "nonpayable",
      "type": "function"
    },
    {
      "inputs": [],
      "name": "currentLotteryId",
      "outputs": [
        {
          "internalType": "uint256",
          "name": "",
          "type": "uint256"
        }
      ],
      "stateMutability": "view",
      "type": "function"
    },
    {
      "inputs": [],
      "name": "dVoucher",
      "outputs": [
        {
          "internalType": "contract DVoucherNFT",
          "name": "",
          "type": "address"
        }
      ],
      "stateMutability": "view",
      "type": "function"
    },
    {
      "inputs": [
        {
          "internalType": "uint256",
          "name": "_lotteryId",
          "type": "uint256"
        }
      ],
      "name": "drawFinalNumberAndMakeLotteryClaimable",
      "outputs": [],
      "stateMutability": "nonpayable",
      "type": "function"
    },
    {
      "inputs": [],
      "name": "maxNumberTicketsPerRegisterOrClaim",
      "outputs": [
        {
          "internalType": "uint256",
          "name": "",
          "type": "uint256"
        }
      ],
      "stateMutability": "view",
      "type": "function"
    },
    {
      "inputs": [],
      "name": "operatorAddress",
      "outputs": [
        {
          "internalType": "address",
          "name": "",
          "type": "address"
        }
      ],
      "stateMutability": "view",
      "type": "function"
    },
    {
      "inputs": [],
      "name": "owner",
      "outputs": [
        {
          "internalType": "address",
          "name": "",
          "type": "address"
        }
      ],
      "stateMutability": "view",
      "type": "function"
    },
    {
      "inputs": [],
      "name": "randomGenerator",
      "outputs": [
        {
          "internalType": "contract IRandomNumberGenerator",
          "name": "",
          "type": "address"
        }
      ],
      "stateMutability": "view",
      "type": "function"
    },
    {
      "inputs": [
        {
          "internalType": "uint256",
          "name": "_lotteryId",
          "type": "uint256"
        },
        {
          "internalType": "uint256[]",
          "name": "_dVoucherIds",
          "type": "uint256[]"
        },
        {
          "internalType": "uint32[]",
          "name": "_ticketNumbers",
          "type": "uint32[]"
        }
      ],
      "name": "registerTickets",
      "outputs": [],
      "stateMutability": "nonpayable",
      "type": "function"
    },
    {
      "inputs": [],
      "name": "renounceOwnership",
      "outputs": [],
      "stateMutability": "nonpayable",
      "type": "function"
    },
    {
      "inputs": [
        {
          "internalType": "uint256",
          "name": "_maxNumberTicketsPerRegister",
          "type": "uint256"
        }
      ],
      "name": "setMaxNumberTicketsPerRegister",
      "outputs": [],
      "stateMutability": "nonpayable",
      "type": "function"
    },
    {
      "inputs": [
        {
          "internalType": "address",
          "name": "_operatorAddress",
          "type": "address"
        }
      ],
      "name": "setOperatorAddress",
      "outputs": [],
      "stateMutability": "nonpayable",
      "type": "function"
    },
    {
      "inputs": [
        {
          "internalType": "uint256",
          "name": "_endTime",
          "type": "uint256"
        },
        {
          "internalType": "uint256[6]",
          "name": "_rewardsBreakdown",
          "type": "uint256[6]"
        },
        {
          "internalType": "uint8",
          "name": "_class",
          "type": "uint8"
        },
        {
          "internalType": "uint256",
          "name": "_totalReward",
          "type": "uint256"
        }
      ],
      "name": "startLottery",
      "outputs": [],
      "stateMutability": "nonpayable",
      "type": "function"
    },
    {
      "inputs": [
        {
          "internalType": "address",
          "name": "newOwner",
          "type": "address"
        }
      ],
      "name": "transferOwnership",
      "outputs": [],
      "stateMutability": "nonpayable",
      "type": "function"
    },
    {
      "inputs": [],
      "name": "viewCurrentLotteryId",
      "outputs": [
        {
          "internalType": "uint256",
          "name": "",
          "type": "uint256"
        }
      ],
      "stateMutability": "view",
      "type": "function"
    },
    {
      "inputs": [
        {
          "internalType": "uint256",
          "name": "_lotteryId",
          "type": "uint256"
        }
      ],
      "name": "viewLottery",
      "outputs": [
        {
          "components": [
            {
              "internalType": "enum JackpotLottery.Status",
              "name": "status",
              "type": "uint8"
            },
            {
              "internalType": "uint256",
              "name": "startTime",
              "type": "uint256"
            },
            {
              "internalType": "uint256",
              "name": "endTime",
              "type": "uint256"
            },
            {
              "internalType": "uint8",
              "name": "class",
              "type": "uint8"
            },
            {
              "internalType": "uint256[6]",
              "name": "rewardsBreakdown",
              "type": "uint256[6]"
            },
            {
              "internalType": "uint256[6]",
              "name": "rewardPerBracket",
              "type": "uint256[6]"
            },
            {
              "internalType": "uint256[6]",
              "name": "countWinnersPerBracket",
              "type": "uint256[6]"
            },
            {
              "internalType": "uint256",
              "name": "totalReward",
              "type": "uint256"
            },
            {
              "internalType": "uint32",
              "name": "finalNumber",
              "type": "uint32"
            }
          ],
          "internalType": "struct JackpotLottery.Lottery",
          "name": "",
          "type": "tuple"
        }
      ],
      "stateMutability": "view",
      "type": "function"
    },
    {
      "inputs": [
        {
          "internalType": "uint256[]",
          "name": "_ticketIds",
          "type": "uint256[]"
        },
        {
          "internalType": "bool",
          "name": "_isMegaLottery",
          "type": "bool"
        }
      ],
      "name": "viewNumbersAndStatusesForTicketIds",
      "outputs": [
        {
          "internalType": "uint32[]",
          "name": "",
          "type": "uint32[]"
        },
        {
          "internalType": "bool[]",
          "name": "",
          "type": "bool[]"
        }
      ],
      "stateMutability": "view",
      "type": "function"
    },
    {
      "inputs": [
        {
          "internalType": "uint256",
          "name": "_lotteryId",
          "type": "uint256"
        },
        {
          "internalType": "uint256",
          "name": "_ticketId",
          "type": "uint256"
        },
        {
          "internalType": "uint32",
          "name": "_bracket",
          "type": "uint32"
        }
      ],
      "name": "viewRewardsForTicketId",
      "outputs": [
        {
          "internalType": "uint256",
          "name": "",
          "type": "uint256"
        }
      ],
      "stateMutability": "view",
      "type": "function"
    },
    {
      "inputs": [
        {
          "internalType": "address",
          "name": "_user",
          "type": "address"
        },
        {
          "internalType": "uint256",
          "name": "_lotteryId",
          "type": "uint256"
        },
        {
          "internalType": "uint256",
          "name": "_cursor",
          "type": "uint256"
        },
        {
          "internalType": "uint256",
          "name": "_size",
          "type": "uint256"
        }
      ],
      "name": "viewUserInfoForLotteryId",
      "outputs": [
        {
          "internalType": "uint256[]",
          "name": "",
          "type": "uint256[]"
        },
        {
          "internalType": "uint32[]",
          "name": "",
          "type": "uint32[]"
        },
        {
          "internalType": "bool[]",
          "name": "",
          "type": "bool[]"
        },
        {
          "internalType": "uint256",
          "name": "",
          "type": "uint256"
        }
      ],
      "stateMutability": "view",
      "type": "function"
    },
    {
      "inputs": [
        {
          "internalType": "address",
          "name": "_tokenAddress",
          "type": "address"
        },
        {
          "internalType": "uint256",
          "name": "_tokenAmount",
          "type": "uint256"
        }
      ],
      "name": "withdrawTokens",
      "outputs": [],
      "stateMutability": "nonpayable",
      "type": "function"
    }
  ],
  "bytecode": "0x608060405260646004553480156200001657600080fd5b506040516200396838038062003968833981016040819052620000399162000201565b6001600055620000493362000192565b600580546001600160a01b039384166001600160a01b0319918216178255600680549390941692169190911790915560096020527fec8156718a8372b1db44bb411437d0870f3e3790d4a08526d024ce1b0b668f6b805463ffffffff199081166001179091557f92e85d02570a8092d09a6e3a57665bc3815a2699a4074001bf1ccabf660f5a3680548216600b1790557f6cde3cea4b3a3fb2488b2808bae7556f4a405e50f65e1794383bc026131b13c380548216606f1790557fc575c31fea594a6eb97c8e9d3f9caee4c16218c6ef37e923234c0fe9014a61e7805482166104571790557f8dc18c4ccfd75f5c815b63770fa542fd953e8fef7e0e44bbdd4913470ce7e9cb80548216612b671790556000919091527f74b05292d1d4b2b48b65261b07099d24244bcb069f138d9a6bfdcf776becac4c80549091166201b20717905562000239565b600180546001600160a01b038381166001600160a01b0319831681179093556040519116919082907f8be0079c531659141344cd1fd0a4f28419497f9722a3daafe3b4186f6b6457e090600090a35050565b80516001600160a01b0381168114620001fc57600080fd5b919050565b600080604083850312156200021557600080fd5b6200022083620001e4565b91506200023060208401620001e4565b90509250929050565b61371f80620002496000396000f3fe608060405234801561001057600080fd5b50600436106101585760003560e01c806380a06160116100c3578063c914914f1161007c578063c914914f146102d9578063db19da0d146102ec578063dcbad90d146102f6578063edd19b5d14610309578063f2fde38b1461031c578063fb8092f31461032f57600080fd5b806380a061601461027e5780638da5cb5b1461028657806398359fa1146102975780639d8ca531146102aa578063a16585bc146102bd578063a2d2a592146102d057600080fd5b80632423807a116101155780632423807a146102145780632e530cae146102345780632f1d5a60146102475780634830bd151461025a5780636be4097c1461026d578063715018a61461027657600080fd5b806305531eeb1461015d57806306b091f91461018957806307fb5a9c1461019e578063121466bf146101b5578063127effb2146101d6578063213dab7214610201575b600080fd5b61017061016b366004612e5b565b610342565b60405161018094939291906131c8565b60405180910390f35b61019c610197366004612e2f565b61069e565b005b6101a761371481565b604051908152602001610180565b6101c86101c3366004612e96565b6106be565b60405161018092919061323c565b6002546101e9906001600160a01b031681565b6040516001600160a01b039091168152602001610180565b61019c61020f366004612f89565b6108a9565b610227610222366004612f0a565b61120a565b60405161018091906132fa565b6101a7610242366004613003565b611347565b61019c610255366004612df5565b611390565b6005546101e9906001600160a01b031681565b6101a760035481565b61019c61143b565b6003546101a7565b6001546001600160a01b03166101e9565b61019c6102a5366004612df5565b61144f565b61019c6102b8366004612f0a565b611617565b61019c6102cb366004612f0a565b6117ff565b6101a760045481565b61019c6102e7366004612f89565b611847565b6101a76205472c81565b6006546101e9906001600160a01b031681565b61019c610317366004612f0a565b611f69565b61019c61032a366004612df5565b6123d9565b61019c61033d366004612f3c565b612452565b6001600160a01b0384166000908152600b602090815260408083208684529091528120546060918291829190859061037b908890613559565b8111156103b4576001600160a01b0389166000908152600b602090815260408083208b84529091529020546103b1908890613559565b90505b60008881526007602052604081206003015460ff16908267ffffffffffffffff8111156103e3576103e361368f565b60405190808252806020026020018201604052801561040c578160200160208202803683370190505b50905060008367ffffffffffffffff81111561042a5761042a61368f565b604051908082528060200260200182016040528015610453578160200160208202803683370190505b50905060008467ffffffffffffffff8111156104715761047161368f565b60405190808252806020026020018201604052801561049a578160200160208202803683370190505b50905060005b8581101561067857600b60008f6001600160a01b03166001600160a01b0316815260200190815260200160002060008e81526020019081526020016000208c826104ea9190613394565b815481106104fa576104fa613679565b906000526020600020015484828151811061051757610517613679565b6020026020010181815250506008600085838151811061053957610539613679565b6020026020010151815260200190815260200160002060058661055c91906133e8565b60ff166002811061056f5761056f613679565b0154835163ffffffff9091169084908390811061058e5761058e613679565b602002602001019063ffffffff16908163ffffffff168152505060006001600160a01b0316600860008684815181106105c9576105c9613679565b602002602001015181526020019081526020016000206005876105ec91906133e8565b60ff16600281106105ff576105ff613679565b015464010000000090046001600160a01b0316141561064157600182828151811061062c5761062c613679565b91151560209283029190910190910152610666565b600082828151811061065557610655613679565b911515602092830291909101909101525b80610670816135c1565b9150506104a0565b50828282610686888f613394565b98509850985098505050505050945094509450949050565b6106a66128ab565b6106ba6001600160a01b0383163383612905565b5050565b6060806000836106cf5760006106d2565b60015b90508460008167ffffffffffffffff8111156106f0576106f061368f565b604051908082528060200260200182016040528015610719578160200160208202803683370190505b50905060008267ffffffffffffffff8111156107375761073761368f565b604051908082528060200260200182016040528015610760578160200160208202803683370190505b50905060005b8381101561089a57600860008b8b8481811061078457610784613679565b9050602002013581526020019081526020016000208560ff16600281106107ad576107ad613679565b0154835163ffffffff909116908490839081106107cc576107cc613679565b63ffffffff9092166020928302919091019091015260006008818c8c858181106107f8576107f8613679565b9050602002013581526020019081526020016000208660ff166002811061082157610821613679565b015464010000000090046001600160a01b0316141561086357600182828151811061084e5761084e613679565b91151560209283029190910190910152610888565b600082828151811061087757610877613679565b911515602092830291909101909101525b80610892816135c1565b915050610766565b50909890975095505050505050565b333b156108f45760405162461bcd60e51b815260206004820152601460248201527310dbdb9d1c9858dd081b9bdd08185b1b1bddd95960621b60448201526064015b60405180910390fd5b3332146109435760405162461bcd60e51b815260206004820152601a60248201527f50726f787920636f6e7472616374206e6f7420616c6c6f77656400000000000060448201526064016108eb565b600260005414156109665760405162461bcd60e51b81526004016108eb9061329d565b6002600055806109ae5760405162461bcd60e51b8152602060048201526013602482015272139bc81d1a58dad95d081cdc1958da599a5959606a1b60448201526064016108eb565b8083146109ef5760405162461bcd60e51b815260206004820152600f60248201526e09cdee840e6c2daca40d8cadccee8d608b1b60448201526064016108eb565b600454811115610a345760405162461bcd60e51b815260206004820152601060248201526f546f6f206d616e79207469636b65747360801b60448201526064016108eb565b600160008681526007602052604090205460ff166003811115610a5957610a59613663565b14610a9c5760405162461bcd60e51b81526020600482015260136024820152722637ba3a32b93c9034b9903737ba1037b832b760691b60448201526064016108eb565b6000858152600760205260409020600201544210610aee5760405162461bcd60e51b815260206004820152600f60248201526e2637ba3a32b93c9034b99037bb32b960891b60448201526064016108eb565b60008581526007602052604081206003015460ff16905b848110156111c5576000868683818110610b2157610b21613679565b6005546040516331a9108f60e11b8152602092909202939093013560048201819052935033926001600160a01b03169150636352211e9060240160206040518083038186803b158015610b7357600080fd5b505afa158015610b87573d6000803e3d6000fd5b505050506040513d601f19601f82011682018060405250810190610bab9190612e12565b6001600160a01b031614610bf95760405162461bcd60e51b81526020600482015260156024820152742737ba1037bbb732b91037b310222b37bab1b432b960591b60448201526064016108eb565b600080600060058660ff161015610d225760055460405163cc33c87560e01b8152600481018690526001600160a01b039091169063cc33c8759060240160806040518083038186803b158015610c4e57600080fd5b505afa158015610c62573d6000803e3d6000fd5b505050506040513d601f19601f82011682018060405250810190610c86919061306b565b92955093509091505060ff86811690841614610cd85760405162461bcd60e51b81526020600482015260116024820152704e6f7420636f727265637420636c61737360781b60448201526064016108eb565b8115610d1d5760405162461bcd60e51b8152602060048201526014602482015273105b1c9958591e481c185c9d1a58da5c185d195960621b60448201526064016108eb565b610d67565b8015610d675760405162461bcd60e51b8152602060048201526014602482015273105b1c9958591e481c185c9d1a58da5c185d195960621b60448201526064016108eb565b60058660ff161015610de55760055460405163bc9a518f60e01b8152600481018690526001602482015282151560448201526001600160a01b039091169063bc9a518f90606401600060405180830381600087803b158015610dc857600080fd5b505af1158015610ddc573d6000803e3d6000fd5b50505050610e53565b60055460405163bc9a518f60e01b8152600481018690528315156024820152600160448201526001600160a01b039091169063bc9a518f90606401600060405180830381600087803b158015610e3a57600080fd5b505af1158015610e4e573d6000803e3d6000fd5b505050505b6000888887818110610e6757610e67613679565b9050602002016020810190610e7c9190613031565b9050620f42408163ffffffff1610158015610ea05750621e847f8163ffffffff1611155b610edc5760405162461bcd60e51b815260206004820152600d60248201526c4f7574736964652072616e676560981b60448201526064016108eb565b60008c8152600a6020819052604082209190610ef89084613614565b610f039060016133ac565b63ffffffff16815260208101919091526040016000908120805491610f27836135c1565b909155505060008c8152600a6020526040812090610f46606484613614565b610f5190600b6133ac565b63ffffffff16815260208101919091526040016000908120805491610f75836135c1565b909155505060008c8152600a6020526040812090610f956103e884613614565b610fa090606f6133ac565b63ffffffff16815260208101919091526040016000908120805491610fc4836135c1565b909155505060008c8152600a6020526040812090610fe461271084613614565b610ff0906104576133ac565b63ffffffff16815260208101919091526040016000908120805491611014836135c1565b909155505060008c8152600a6020526040812090611035620186a084613614565b61104190612b676133ac565b63ffffffff16815260208101919091526040016000908120805491611065836135c1565b909155505060008c8152600a6020526040812090611086620f424084613614565b611093906201b2076133ac565b63ffffffff168152602081019190915260400160009081208054916110b7836135c1565b9190505550600b6000336001600160a01b03166001600160a01b0316815260200190815260200160002060008d815260200190815260200160002085908060018154018082558091505060019003906000526020600020016000909190919091505560405180604001604052808263ffffffff168152602001336001600160a01b03168152506008600087815260200190815260200160002060058961115d91906133e8565b60ff166002811061117057611170613679565b8251910180546020909301516001600160a01b0316640100000000026001600160c01b031990931663ffffffff90921691909117919091179055508493506111bd92508391506135c19050565b915050610b05565b50604051828152869033907fb840138d9ddee87a7b28e00bd134fdf209290dede1937a4d9024f0a6fc89a9749060200160405180910390a35050600160005550505050565b611212612cd6565b60008281526007602052604090819020815161012081019092528054829060ff16600381111561124457611244613663565b600381111561125557611255613663565b8152600182015460208201526002820154604080830191909152600383015460ff166060830152805160c081019182905260809092019190600484019060069082845b8154815260200190600101908083116112985750505091835250506040805160c081019182905260209092019190600a84019060069082845b8154815260200190600101908083116112d15750505091835250506040805160c081019182905260209092019190601084019060069082845b81548152602001906001019080831161130a5750505091835250506016820154602082015260179091015463ffffffff1660409091015292915050565b6000600360008581526007602052604090205460ff16600381111561136e5761136e613663565b1461137b57506000611389565b61138684848461295c565b90505b9392505050565b6113986128ab565b6001600160a01b0381166113e75760405162461bcd60e51b815260206004820152601660248201527543616e6e6f74206265207a65726f206164647265737360501b60448201526064016108eb565b600280546001600160a01b0319166001600160a01b0383169081179091556040519081527fc47d127c07bdd56c5ccba00463ce3bd3c1bca71b4670eea6e5d0c02e4aa156e29060200160405180910390a150565b6114436128ab565b61144d6000612a9e565b565b6114576128ab565b6003805460009081526007602052604090205460ff168181111561147d5761147d613663565b146114ca5760405162461bcd60e51b815260206004820152601860248201527f4c6f7474657279206e6f7420696e20636c61696d61626c65000000000000000060448201526064016108eb565b806001600160a01b031663b37217a4600354426040516020016114f7929190918252602082015260400190565b60408051808303601f1901815290829052805160209091012060e083901b6001600160e01b03191682526004820152602401600060405180830381600087803b15801561154357600080fd5b505af1158015611557573d6000803e3d6000fd5b50505050806001600160a01b031663a1c4f55a6040518163ffffffff1660e01b815260040160206040518083038186803b15801561159457600080fd5b505afa1580156115a8573d6000803e3d6000fd5b505050506040513d601f19601f820116820180604052508101906115cc919061304e565b50600680546001600160a01b0319166001600160a01b0383169081179091556040517f383f8cb39dfa7c3fb901a460dd449ea924868f0a92ff03da64740fffa5f1de6290600090a250565b6002546001600160a01b031633146116415760405162461bcd60e51b81526004016108eb906132d4565b600260005414156116645760405162461bcd60e51b81526004016108eb9061329d565b6002600055600160008281526007602052604090205460ff16600381111561168e5761168e613663565b146116ce5760405162461bcd60e51b815260206004820152601060248201526f2637ba3a32b93c903737ba1037b832b760811b60448201526064016108eb565b60008181526007602052604090206002015442116117215760405162461bcd60e51b815260206004820152601060248201526f2637ba3a32b93c903737ba1037bb32b960811b60448201526064016108eb565b6006546040516001600160a01b039091169063b37217a4906117529084904290602001918252602082015260400190565b60408051808303601f1901815290829052805160209091012060e083901b6001600160e01b03191682526004820152602401600060405180830381600087803b15801561179e57600080fd5b505af11580156117b2573d6000803e3d6000fd5b505050600082815260076020526040808220805460ff19166002179055518392507f8bc84e5d97533c428862626ac41fe7bc09b1ea2ed5e9e330d84092db8df153669190a2506001600055565b6118076128ab565b806118425760405162461bcd60e51b815260206004820152600b60248201526a04d757374206265203e20360ac1b60448201526064016108eb565b600455565b333b1561188d5760405162461bcd60e51b815260206004820152601460248201527310dbdb9d1c9858dd081b9bdd08185b1b1bddd95960621b60448201526064016108eb565b3332146118dc5760405162461bcd60e51b815260206004820152601a60248201527f50726f787920636f6e7472616374206e6f7420616c6c6f77656400000000000060448201526064016108eb565b600260005414156118ff5760405162461bcd60e51b81526004016108eb9061329d565b60026000558281146119455760405162461bcd60e51b815260206004820152600f60248201526e09cdee840e6c2daca40d8cadccee8d608b1b60448201526064016108eb565b826119865760405162461bcd60e51b815260206004820152601160248201527004c656e677468206d757374206265203e3607c1b60448201526064016108eb565b6004548311156119cb5760405162461bcd60e51b815260206004820152601060248201526f546f6f206d616e79207469636b65747360801b60448201526064016108eb565b600360008681526007602052604090205460ff1660038111156119f0576119f0613663565b14611a355760405162461bcd60e51b81526020600482015260156024820152744c6f7474657279206e6f7420636c61696d61626c6560581b60448201526064016108eb565b60008581526007602052604081206003015460ff1690805b85811015611d15576006858583818110611a6957611a69613679565b9050602002016020810190611a7e9190613031565b63ffffffff1610611ac85760405162461bcd60e51b8152602060048201526014602482015273427261636b6574206f7574206f662072616e676560601b60448201526064016108eb565b6000878783818110611adc57611adc613679565b90506020020135905060086000828152602001908152602001600020600585611b0591906133e8565b60ff1660028110611b1857611b18613679565b015464010000000090046001600160a01b03163314611b695760405162461bcd60e51b815260206004820152600d60248201526c2737ba103a34329037bbb732b960991b60448201526064016108eb565b6000818152600860205260408120611b826005876133e8565b60ff1660028110611b9557611b95613679565b0180546001600160a01b039290921664010000000002640100000000600160c01b03199092169190911790556000611bf48a83898987818110611bda57611bda613679565b9050602002016020810190611bef9190613031565b61295c565b905080611c435760405162461bcd60e51b815260206004820152601960248201527f4e6f207072697a6520666f72207468697320627261636b65740000000000000060448201526064016108eb565b868684818110611c5557611c55613679565b9050602002016020810190611c6a9190613031565b63ffffffff16600514611cf457611cae8a83898987818110611c8e57611c8e613679565b9050602002016020810190611ca39190613031565b611bef9060016133ac565b15611cf45760405162461bcd60e51b8152602060048201526016602482015275213930b1b5b2ba1036bab9ba103132903434b3b432b960511b60448201526064016108eb565b611cfe8185613394565b935050508080611d0d906135c1565b915050611a4d565b506000611d246103e8836133d4565b90508015611d9357600554604051632769c3d960e11b81526001600160a01b0390911690634ed387b290611d60903390600490869082016131a4565b600060405180830381600087803b158015611d7a57600080fd5b505af1158015611d8e573d6000803e3d6000fd5b505050505b6064611da16103e884613600565b611dab91906133d4565b90508015611e1b57600554604051632769c3d960e11b81526001600160a01b0390911690634ed387b290611de890339060039086906004016131a4565b600060405180830381600087803b158015611e0257600080fd5b505af1158015611e16573d6000803e3d6000fd5b505050505b600a611e28606484613600565b611e3291906133d4565b90508015611ea257600554604051632769c3d960e11b81526001600160a01b0390911690634ed387b290611e6f90339060029086906004016131a4565b600060405180830381600087803b158015611e8957600080fd5b505af1158015611e9d573d6000803e3d6000fd5b505050505b611ead600a83613600565b90508015611f1d57600554604051632769c3d960e11b81526001600160a01b0390911690634ed387b290611eea90339060019086906004016131a4565b600060405180830381600087803b158015611f0457600080fd5b505af1158015611f18573d6000803e3d6000fd5b505050505b6040805183815260208101889052899133917f0f5fca62da8fb5d95525b49e5eaa7b20bc6bd9e2f6b64b493442d1c0bd6ef486910160405180910390a350506001600055505050505050565b6002546001600160a01b03163314611f935760405162461bcd60e51b81526004016108eb906132d4565b60026000541415611fb65760405162461bcd60e51b81526004016108eb9061329d565b600260008181558281526007602052604090205460ff166003811115611fde57611fde613663565b1461201f5760405162461bcd60e51b81526020600482015260116024820152704c6f7474657279206e6f7420636c6f736560781b60448201526064016108eb565b600660009054906101000a90046001600160a01b03166001600160a01b031663fbe5d9176040518163ffffffff1660e01b815260040160206040518083038186803b15801561206d57600080fd5b505afa158015612081573d6000803e3d6000fd5b505050506040513d601f19601f820116820180604052508101906120a59190612f23565b81146120e75760405162461bcd60e51b8152602060048201526011602482015270273ab6b132b939903737ba10323930bbb760791b60448201526064016108eb565b600654604080516350e27aad60e11b815290516000926001600160a01b03169163a1c4f55a916004808301926020929190829003018186803b15801561212c57600080fd5b505afa158015612140573d6000803e3d6000fd5b505050506040513d601f19601f82011682018060405250810190612164919061304e565b60008381526007602052604081206016015491925090815b60068163ffffffff161015612354576000612198826005613570565b905060006121a78260016133ac565b6121b290600a61344f565b6121bc9087613614565b63ffffffff8084166000908152600960205260409020546121de9291166133ac565b6000888152600a6020908152604080832063ffffffff851684529091528120549192509061220d908790613559565b6000898152600760205260409020909150819060100163ffffffff85166006811061223a5761223a613679565b0155801561231357600088815260076020526040902060040163ffffffff84166006811061226a5761226a613679565b01541561230e576000888152600760205260409020612710908290879060040163ffffffff8716600681106122a1576122a1613679565b01546122ad919061353a565b6122b791906133d4565b6122c191906133d4565b6000898152600760205260409020600a0163ffffffff8516600681106122e9576122e9613679565b01556000888152600a6020908152604080832063ffffffff8616845290915290205495505b61233e565b6000888152600760205260408120600a0163ffffffff85166006811061233b5761233b613679565b01555b505050808061234c906135dc565b91505061217c565b50600084815260076020526040902060178101805463ffffffff191663ffffffff861617905580546003919060ff191660018302179055506003546040805163ffffffff86168152602081018590527f98e31a6607b8b15b4d5b91de54f4c09ffe4c4cf162aa532c70b5213754e2e703910160405180910390a2505060016000555050565b6123e16128ab565b6001600160a01b0381166124465760405162461bcd60e51b815260206004820152602660248201527f4f776e61626c653a206e6577206f776e657220697320746865207a65726f206160448201526564647265737360d01b60648201526084016108eb565b61244f81612a9e565b50565b6002546001600160a01b0316331461247c5760405162461bcd60e51b81526004016108eb906132d4565b60035415806124ae57506003805460009081526007602052604090205460ff16818111156124ac576124ac613663565b145b6124fa5760405162461bcd60e51b815260206004820152601960248201527f4e6f742074696d6520746f207374617274206c6f74746572790000000000000060448201526064016108eb565b6137146125074286613559565b11801561251f57506205472c61251d4286613559565b105b61256b5760405162461bcd60e51b815260206004820152601f60248201527f4c6f7474657279206c656e677468206f757473696465206f662072616e67650060448201526064016108eb565b60a083013560808401356060850135604086013561258e60208801358835613394565b6125989190613394565b6125a29190613394565b6125ac9190613394565b6125b69190613394565b612710146126065760405162461bcd60e51b815260206004820152601860248201527f52657761726473206d75737420657175616c203130303030000000000000000060448201526064016108eb565b60008260ff1611801561261c575060068260ff16105b6126685760405162461bcd60e51b815260206004820152601760248201527f4e6f74207269676874206c6f747465727920636c61737300000000000000000060448201526064016108eb565b600081116126a65760405162461bcd60e51b815260206004820152600b60248201526a04d757374206265203e20360ac1b60448201526064016108eb565b600380549060006126b6836135c1565b909155505060408051610120810190915280600181526020014281526020018581526020018360ff168152602001846006806020026040519081016040528092919082600660200280828437600092018290525092845250506040805160c0808201835283825260208281018590528284018590526060808401869052608080850187905260a08086018890528389019590955285519384018652868452838301879052838601879052838201879052838101879052938301869052848701929092529085018790529301829052600380548352600790935290208251815491929091839160ff199091169060019084908111156127b6576127b6613663565b02179055506020820151600182015560408201516002820155606082015160038201805460ff191660ff90921691909117905560808201516127fe9060048301906006612d38565b5060a082015161281490600a8301906006612d38565b5060c082015161282a9060108301906006612d38565b5060e08201516016820155610100909101516017909101805463ffffffff191663ffffffff909216919091179055600354604080514281526020810187905260ff8516818301526060810184905290517f245b78383f37f4539bb9e3d25ff5ef4442798b3585e5a3fc28743a4490f5e00a916080908290030190a250505050565b6001546001600160a01b0316331461144d5760405162461bcd60e51b815260206004820181905260248201527f4f776e61626c653a2063616c6c6572206973206e6f7420746865206f776e657260448201526064016108eb565b604080516001600160a01b038416602482015260448082018490528251808303909101815260649091019091526020810180516001600160e01b031663a9059cbb60e01b179052612957908490612af0565b505050565b60008381526007602090815260408083206017810154600390910154868552600890935290832063ffffffff9091169160ff1690839061299d6005846133e8565b60ff16600281106129b0576129b0613679565b015463ffffffff16905060006129c78660016133ac565b6129d290600a61344f565b6129dc9083613614565b63ffffffff8088166000908152600960205260409020546129fe9291166133ac565b90506000612a0d8760016133ac565b612a1890600a61344f565b612a229086613614565b63ffffffff808916600090815260096020526040902054612a449291166133ac565b90508063ffffffff168263ffffffff161415612a90576000898152600760205260409020600a0163ffffffff881660068110612a8257612a82613679565b015495505050505050611389565b600095505050505050611389565b600180546001600160a01b038381166001600160a01b0319831681179093556040519116919082907f8be0079c531659141344cd1fd0a4f28419497f9722a3daafe3b4186f6b6457e090600090a35050565b6000612b45826040518060400160405280602081526020017f5361666545524332303a206c6f772d6c6576656c2063616c6c206661696c6564815250856001600160a01b0316612bc29092919063ffffffff16565b8051909150156129575780806020019051810190612b639190612eed565b6129575760405162461bcd60e51b815260206004820152602a60248201527f5361666545524332303a204552433230206f7065726174696f6e20646964206e6044820152691bdd081cdd58d8d9595960b21b60648201526084016108eb565b60606113868484600085856001600160a01b0385163b612c245760405162461bcd60e51b815260206004820152601d60248201527f416464726573733a2063616c6c20746f206e6f6e2d636f6e747261637400000060448201526064016108eb565b600080866001600160a01b03168587604051612c409190613188565b60006040518083038185875af1925050503d8060008114612c7d576040519150601f19603f3d011682016040523d82523d6000602084013e612c82565b606091505b5091509150612c92828286612c9d565b979650505050505050565b60608315612cac575081611389565b825115612cbc5782518084602001fd5b8160405162461bcd60e51b81526004016108eb919061326a565b60408051610120810190915280600081526020016000815260200160008152602001600060ff168152602001612d0a612d76565b8152602001612d17612d76565b8152602001612d24612d76565b815260006020820181905260409091015290565b8260068101928215612d66579160200282015b82811115612d66578251825591602001919060010190612d4b565b50612d72929150612d94565b5090565b6040518060c001604052806006906020820280368337509192915050565b5b80821115612d725760008155600101612d95565b60008083601f840112612dbb57600080fd5b50813567ffffffffffffffff811115612dd357600080fd5b6020830191508360208260051b8501011115612dee57600080fd5b9250929050565b600060208284031215612e0757600080fd5b8135611389816136a5565b600060208284031215612e2457600080fd5b8151611389816136a5565b60008060408385031215612e4257600080fd5b8235612e4d816136a5565b946020939093013593505050565b60008060008060808587031215612e7157600080fd5b8435612e7c816136a5565b966020860135965060408601359560600135945092505050565b600080600060408486031215612eab57600080fd5b833567ffffffffffffffff811115612ec257600080fd5b612ece86828701612da9565b9094509250506020840135612ee2816136ba565b809150509250925092565b600060208284031215612eff57600080fd5b8151611389816136ba565b600060208284031215612f1c57600080fd5b5035919050565b600060208284031215612f3557600080fd5b5051919050565b6000806000806101208587031215612f5357600080fd5b8435935060e0850186811115612f6857600080fd5b60208601935035612f78816136da565b939692955092936101000135925050565b600080600080600060608688031215612fa157600080fd5b85359450602086013567ffffffffffffffff80821115612fc057600080fd5b612fcc89838a01612da9565b90965094506040880135915080821115612fe557600080fd5b50612ff288828901612da9565b969995985093965092949392505050565b60008060006060848603121561301857600080fd5b83359250602084013591506040840135612ee2816136c8565b60006020828403121561304357600080fd5b8135611389816136c8565b60006020828403121561306057600080fd5b8151611389816136c8565b6000806000806080858703121561308157600080fd5b845161308c816136da565b602086015190945061309d816136a5565b60408601519093506130ae816136ba565b60608601519092506130bf816136ba565b939692955090935050565b600081518084526020808501945080840160005b838110156130fc5781511515875295820195908201906001016130de565b509495945050505050565b8060005b600681101561312a57815184526020938401939091019060010161310b565b50505050565b600081518084526020808501945080840160005b838110156130fc57815163ffffffff1687529582019590820190600101613144565b6004811061318457634e487b7160e01b600052602160045260246000fd5b9052565b6000825161319a818460208701613595565b9190910192915050565b6001600160a01b0393909316835260ff919091166020830152604082015260600190565b6080808252855190820181905260009060209060a0840190828901845b82811015613201578151845292840192908401906001016131e5565b505050838103828501526132158188613130565b915050828103604084015261322a81866130ca565b91505082606083015295945050505050565b60408152600061324f6040830185613130565b828103602084015261326181856130ca565b95945050505050565b6020815260008251806020840152613289816040850160208701613595565b601f01601f19169190910160400192915050565b6020808252601f908201527f5265656e7472616e637947756172643a207265656e7472616e742063616c6c00604082015260600190565b6020808252600c908201526b2737ba1037b832b930ba37b960a11b604082015260600190565b60006103008201905061330e828451613166565b60208301516020830152604083015160408301526060830151613336606084018260ff169052565b5060808301516133496080840182613107565b5060a083015161335d610140840182613107565b5060c0830151613371610200840182613107565b5060e08301516102c08301526101009092015163ffffffff166102e09091015290565b600082198211156133a7576133a7613637565b500190565b600063ffffffff8083168185168083038211156133cb576133cb613637565b01949350505050565b6000826133e3576133e361364d565b500490565b600060ff8316806133fb576133fb61364d565b8060ff84160491505092915050565b600181815b80851115613447578163ffffffff0482111561342d5761342d613637565b8085161561343a57918102915b93841c939080029061340f565b509250929050565b600063ffffffff61346481851682851661346c565b949350505050565b60008261347b57506001613534565b8161348857506000613534565b816001811461349e57600281146134a8576134d9565b6001915050613534565b60ff8411156134b9576134b9613637565b6001841b915063ffffffff8211156134d3576134d3613637565b50613534565b5060208310610133831016604e8410600b8410161715613510575081810a63ffffffff81111561350b5761350b613637565b613534565b61351a838361340a565b8063ffffffff0482111561353057613530613637565b0290505b92915050565b600081600019048311821515161561355457613554613637565b500290565b60008282101561356b5761356b613637565b500390565b600063ffffffff8381169083168181101561358d5761358d613637565b039392505050565b60005b838110156135b0578181015183820152602001613598565b8381111561312a5750506000910152565b60006000198214156135d5576135d5613637565b5060010190565b600063ffffffff808316818114156135f6576135f6613637565b6001019392505050565b60008261360f5761360f61364d565b500690565b600063ffffffff8084168061362b5761362b61364d565b92169190910692915050565b634e487b7160e01b600052601160045260246000fd5b634e487b7160e01b600052601260045260246000fd5b634e487b7160e01b600052602160045260246000fd5b634e487b7160e01b600052603260045260246000fd5b634e487b7160e01b600052604160045260246000fd5b6001600160a01b038116811461244f57600080fd5b801515811461244f57600080fd5b63ffffffff8116811461244f57600080fd5b60ff8116811461244f57600080fdfea26469706673582212200cf008407b3ffcf2e4bc437b25091b6fa8f18edc5a9b10eb6f58aa03684b0ab864736f6c63430008070033",
  "linkReferences": {},
  "deployedLinkReferences": {}
}