{
  "_format": "hh-sol-artifact-1",
  "contractName": "StakingV2",
  "sourceName": "contracts/StakingV2.sol",
  "abi": [
    {
      "inputs": [
        {
          "internalType": "address",
          "name": "_dVoucherAddress",
          "type": "address"
        },
        {
          "internalType": "uint256",
          "name": "_rewardPerBlock",
          "type": "uint256"
        },
        {
          "internalType": "address",
          "name": "_tokenAddress",
          "type": "address"
        }
      ],
      "stateMutability": "nonpayable",
      "type": "constructor"
    },
    {
      "anonymous": false,
      "inputs": [
        {
          "indexed": true,
          "internalType": "address",
          "name": "user",
          "type": "address"
        }
      ],
      "name": "Claimed",
      "type": "event"
    },
    {
      "anonymous": false,
      "inputs": [
        {
          "indexed": true,
          "internalType": "address",
          "name": "user",
          "type": "address"
        },
        {
          "indexed": false,
          "internalType": "uint256",
          "name": "amount",
          "type": "uint256"
        }
      ],
      "name": "Deposit",
      "type": "event"
    },
    {
      "anonymous": false,
      "inputs": [
        {
          "indexed": true,
          "internalType": "address",
          "name": "previousOwner",
          "type": "address"
        },
        {
          "indexed": true,
          "internalType": "address",
          "name": "newOwner",
          "type": "address"
        }
      ],
      "name": "OwnershipTransferred",
      "type": "event"
    },
    {
      "anonymous": false,
      "inputs": [
        {
          "indexed": true,
          "internalType": "address",
          "name": "user",
          "type": "address"
        },
        {
          "indexed": false,
          "internalType": "uint256",
          "name": "amount",
          "type": "uint256"
        }
      ],
      "name": "Withdraw",
      "type": "event"
    },
    {
      "inputs": [],
      "name": "BONUS_MULTIPLIER",
      "outputs": [
        {
          "internalType": "uint256",
          "name": "",
          "type": "uint256"
        }
      ],
      "stateMutability": "view",
      "type": "function"
    },
    {
      "inputs": [],
      "name": "claim",
      "outputs": [],
      "stateMutability": "nonpayable",
      "type": "function"
    },
    {
      "inputs": [],
      "name": "dVoucher",
      "outputs": [
        {
          "internalType": "contract DVoucherNFT",
          "name": "",
          "type": "address"
        }
      ],
      "stateMutability": "view",
      "type": "function"
    },
    {
      "inputs": [
        {
          "internalType": "uint256",
          "name": "_amount",
          "type": "uint256"
        }
      ],
      "name": "deposit",
      "outputs": [],
      "stateMutability": "nonpayable",
      "type": "function"
    },
    {
      "inputs": [
        {
          "internalType": "uint256",
          "name": "_from",
          "type": "uint256"
        },
        {
          "internalType": "uint256",
          "name": "_to",
          "type": "uint256"
        }
      ],
      "name": "getMultiplier",
      "outputs": [
        {
          "internalType": "uint256",
          "name": "",
          "type": "uint256"
        }
      ],
      "stateMutability": "pure",
      "type": "function"
    },
    {
      "inputs": [],
      "name": "owner",
      "outputs": [
        {
          "internalType": "address",
          "name": "",
          "type": "address"
        }
      ],
      "stateMutability": "view",
      "type": "function"
    },
    {
      "inputs": [
        {
          "internalType": "address",
          "name": "_user",
          "type": "address"
        }
      ],
      "name": "pendingReward",
      "outputs": [
        {
          "internalType": "uint256",
          "name": "",
          "type": "uint256"
        }
      ],
      "stateMutability": "view",
      "type": "function"
    },
    {
      "inputs": [],
      "name": "renounceOwnership",
      "outputs": [],
      "stateMutability": "nonpayable",
      "type": "function"
    },
    {
      "inputs": [],
      "name": "rewardPerBlock",
      "outputs": [
        {
          "internalType": "uint256",
          "name": "",
          "type": "uint256"
        }
      ],
      "stateMutability": "view",
      "type": "function"
    },
    {
      "inputs": [
        {
          "internalType": "address",
          "name": "_dVoucherAddress",
          "type": "address"
        }
      ],
      "name": "setDVoucherAddress",
      "outputs": [],
      "stateMutability": "nonpayable",
      "type": "function"
    },
    {
      "inputs": [
        {
          "internalType": "address",
          "name": "_tokenAddress",
          "type": "address"
        }
      ],
      "name": "setTokenAddress",
      "outputs": [],
      "stateMutability": "nonpayable",
      "type": "function"
    },
    {
      "inputs": [
        {
          "internalType": "uint256",
          "name": "_tokenPrice",
          "type": "uint256"
        },
        {
          "internalType": "uint256",
          "name": "_rewardPerBlock",
          "type": "uint256"
        }
      ],
      "name": "setTokenPriceAndRewardPerBlock",
      "outputs": [],
      "stateMutability": "nonpayable",
      "type": "function"
    },
    {
      "inputs": [],
      "name": "tokenAddress",
      "outputs": [
        {
          "internalType": "contract IERC20",
          "name": "",
          "type": "address"
        }
      ],
      "stateMutability": "view",
      "type": "function"
    },
    {
      "inputs": [
        {
          "internalType": "address",
          "name": "newOwner",
          "type": "address"
        }
      ],
      "name": "transferOwnership",
      "outputs": [],
      "stateMutability": "nonpayable",
      "type": "function"
    },
    {
      "inputs": [
        {
          "internalType": "address",
          "name": "",
          "type": "address"
        }
      ],
      "name": "userInfo",
      "outputs": [
        {
          "internalType": "uint256",
          "name": "amount",
          "type": "uint256"
        },
        {
          "internalType": "uint256",
          "name": "startBlock",
          "type": "uint256"
        }
      ],
      "stateMutability": "view",
      "type": "function"
    },
    {
      "inputs": [
        {
          "internalType": "uint256",
          "name": "_amount",
          "type": "uint256"
        }
      ],
      "name": "withdraw",
      "outputs": [],
      "stateMutability": "nonpayable",
      "type": "function"
    }
  ],
  "bytecode": "0x608060405234801561001057600080fd5b50604051610dc0380380610dc083398101604081905261002f916100df565b61003833610073565b60018055600480546001600160a01b039485166001600160a01b0319918216179091556005929092556002805491909316911617905561011b565b600080546001600160a01b038381166001600160a01b0319831681178455604051919092169283917f8be0079c531659141344cd1fd0a4f28419497f9722a3daafe3b4186f6b6457e09190a35050565b80516001600160a01b03811681146100da57600080fd5b919050565b6000806000606084860312156100f457600080fd5b6100fd846100c3565b925060208401519150610112604085016100c3565b90509250925092565b610c968061012a6000396000f3fe608060405234801561001057600080fd5b50600436106101005760003560e01c80638ae39cac11610097578063b6b55f2511610066578063b6b55f2514610212578063d4bfa4e614610225578063f2fde38b14610238578063f40f0f521461024b57600080fd5b80638ae39cac146101d25780638da5cb5b146101db5780638dbb1e3a146101ec5780639d76ea58146101ff57600080fd5b80634e71d92d116100d35780634e71d92d14610199578063715018a6146101a157806382181fbb146101a95780638aa28550146101bc57600080fd5b80631959a0021461010557806326a4e8d2146101465780632e1a7d4d1461015b5780634830bd151461016e575b600080fd5b61012c610113366004610ac4565b6006602052600090815260409020805460019091015482565b604080519283526020830191909152015b60405180910390f35b610159610154366004610ac4565b61025e565b005b610159610169366004610b0f565b610288565b600454610181906001600160a01b031681565b6040516001600160a01b03909116815260200161013d565b6101596103fa565b61015961045b565b6101596101b7366004610ac4565b61046f565b6101c4600181565b60405190815260200161013d565b6101c460055481565b6000546001600160a01b0316610181565b6101c46101fa366004610b41565b610499565b600254610181906001600160a01b031681565b610159610220366004610b0f565b6104b8565b610159610233366004610b41565b6106da565b610159610246366004610ac4565b6106ed565b6101c4610259366004610ac4565b610766565b6102666107c7565b600280546001600160a01b0319166001600160a01b0392909216919091179055565b600260015414156102b45760405162461bcd60e51b81526004016102ab90610b87565b60405180910390fd5b600260015533600090815260066020526040902080548211156103195760405162461bcd60e51b815260206004820152601860248201527f5769746864726177203a2065786365656420616d6f756e74000000000000000060448201526064016102ab565b610321610821565b81156103bc578054610334908390610c09565b815560025460405163a9059cbb60e01b8152336004820152602481018490526001600160a01b039091169063a9059cbb90604401602060405180830381600087803b15801561038257600080fd5b505af1158015610396573d6000803e3d6000fd5b505050506040513d601f19601f820116820180604052508101906103ba9190610aed565b505b60405182815233907f884edad9ce6fa2440d8a54cc123490eb96d2768479d49ff9c7366125a9424364906020015b60405180910390a2505060018055565b6002600154141561041d5760405162461bcd60e51b81526004016102ab90610b87565b600260015561042a610821565b60405133907fb449c24d261a59627b537c8c41c57ab559f4205c56bea745ff61c5521bece21490600090a260018055565b6104636107c7565b61046d6000610a74565b565b6104776107c7565b600480546001600160a01b0319166001600160a01b0392909216919091179055565b600060016104a78484610c09565b6104b19190610bea565b9392505050565b600260015414156104db5760405162461bcd60e51b81526004016102ab90610b87565b60026001553360009081526006602052604090206104f7610821565b81156106a8576002546040516370a0823160e01b81523060048201526000916001600160a01b0316906370a082319060240160206040518083038186803b15801561054157600080fd5b505afa158015610555573d6000803e3d6000fd5b505050506040513d601f19601f820116820180604052508101906105799190610b28565b6002546040516323b872dd60e01b8152336004820152306024820152604481018690529192506001600160a01b0316906323b872dd90606401602060405180830381600087803b1580156105cc57600080fd5b505af11580156105e0573d6000803e3d6000fd5b505050506040513d601f19601f820116820180604052508101906106049190610aed565b506002546040516370a0823160e01b81523060048201526000916001600160a01b0316906370a082319060240160206040518083038186803b15801561064957600080fd5b505afa15801561065d573d6000803e3d6000fd5b505050506040513d601f19601f820116820180604052508101906106819190610b28565b905061068d8282610c09565b835490945061069d908590610bbe565b835550504260018201555b60405182815233907fe1fffcc4923d04b559f4d29a8bfc6cda04eb5b0d3c460751c2402c5c5cc9109c906020016103ea565b6106e26107c7565b600391909155600555565b6106f56107c7565b6001600160a01b03811661075a5760405162461bcd60e51b815260206004820152602660248201527f4f776e61626c653a206e6577206f776e657220697320746865207a65726f206160448201526564647265737360d01b60648201526084016102ab565b61076381610a74565b50565b6001600160a01b0381166000908152600660205260408120805461078d5750600092915050565b600061079d826001015443610499565b905060006005548284600001546107b49190610bea565b6107be9190610bea565b95945050505050565b6000546001600160a01b0316331461046d5760405162461bcd60e51b815260206004820181905260248201527f4f776e61626c653a2063616c6c6572206973206e6f7420746865206f776e657260448201526064016102ab565b33600090815260066020526040812060018101549091906108429043610499565b905060006005548284600001546108599190610bea565b6108639190610bea565b90508015610a6f5760006108796103e883610bd6565b905080156108e65760048054604051632769c3d960e11b81526001600160a01b0390911691634ed387b2916108b391339186908201610b63565b600060405180830381600087803b1580156108cd57600080fd5b505af11580156108e1573d6000803e3d6000fd5b505050505b60646108f46103e884610c20565b6108fe9190610bd6565b9050801561096d5760048054604051632769c3d960e11b81526001600160a01b0390911691634ed387b29161093a913391600391879101610b63565b600060405180830381600087803b15801561095457600080fd5b505af1158015610968573d6000803e3d6000fd5b505050505b600a61097a606484610c20565b6109849190610bd6565b905080156109f35760048054604051632769c3d960e11b81526001600160a01b0390911691634ed387b2916109c0913391600291879101610b63565b600060405180830381600087803b1580156109da57600080fd5b505af11580156109ee573d6000803e3d6000fd5b505050505b6109fe600a83610c20565b90508015610a6d5760048054604051632769c3d960e11b81526001600160a01b0390911691634ed387b291610a3a913391600191879101610b63565b600060405180830381600087803b158015610a5457600080fd5b505af1158015610a68573d6000803e3d6000fd5b505050505b505b505050565b600080546001600160a01b038381166001600160a01b0319831681178455604051919092169283917f8be0079c531659141344cd1fd0a4f28419497f9722a3daafe3b4186f6b6457e09190a35050565b600060208284031215610ad657600080fd5b81356001600160a01b03811681146104b157600080fd5b600060208284031215610aff57600080fd5b815180151581146104b157600080fd5b600060208284031215610b2157600080fd5b5035919050565b600060208284031215610b3a57600080fd5b5051919050565b60008060408385031215610b5457600080fd5b50508035926020909101359150565b6001600160a01b0393909316835260ff919091166020830152604082015260600190565b6020808252601f908201527f5265656e7472616e637947756172643a207265656e7472616e742063616c6c00604082015260600190565b60008219821115610bd157610bd1610c34565b500190565b600082610be557610be5610c4a565b500490565b6000816000190483118215151615610c0457610c04610c34565b500290565b600082821015610c1b57610c1b610c34565b500390565b600082610c2f57610c2f610c4a565b500690565b634e487b7160e01b600052601160045260246000fd5b634e487b7160e01b600052601260045260246000fdfea264697066735822122015cafdf38fc2fc926c8aeef16fad45988349b9bca8a5277ab668dae8955c20c464736f6c63430008070033",
  "linkReferences": {},
  "deployedLinkReferences": {}
}