{
  "_format": "hh-sol-artifact-1",
  "contractName": "StakingV1",
  "sourceName": "contracts/StakingV1.sol",
  "abi": [
    {
      "inputs": [
        {
          "internalType": "address",
          "name": "_dVoucherAddress",
          "type": "address"
        },
        {
          "internalType": "uint256",
          "name": "_startBlock",
          "type": "uint256"
        },
        {
          "internalType": "uint256",
          "name": "_rewardPerBlock",
          "type": "uint256"
        },
        {
          "internalType": "address",
          "name": "_tokenAddress",
          "type": "address"
        }
      ],
      "stateMutability": "nonpayable",
      "type": "constructor"
    },
    {
      "anonymous": false,
      "inputs": [
        {
          "indexed": true,
          "internalType": "address",
          "name": "user",
          "type": "address"
        }
      ],
      "name": "Claimed",
      "type": "event"
    },
    {
      "anonymous": false,
      "inputs": [
        {
          "indexed": true,
          "internalType": "address",
          "name": "user",
          "type": "address"
        },
        {
          "indexed": false,
          "internalType": "uint256",
          "name": "amount",
          "type": "uint256"
        }
      ],
      "name": "Deposit",
      "type": "event"
    },
    {
      "anonymous": false,
      "inputs": [
        {
          "indexed": true,
          "internalType": "address",
          "name": "previousOwner",
          "type": "address"
        },
        {
          "indexed": true,
          "internalType": "address",
          "name": "newOwner",
          "type": "address"
        }
      ],
      "name": "OwnershipTransferred",
      "type": "event"
    },
    {
      "anonymous": false,
      "inputs": [
        {
          "indexed": true,
          "internalType": "address",
          "name": "user",
          "type": "address"
        },
        {
          "indexed": false,
          "internalType": "uint256",
          "name": "amount",
          "type": "uint256"
        }
      ],
      "name": "Withdraw",
      "type": "event"
    },
    {
      "inputs": [],
      "name": "BONUS_MULTIPLIER",
      "outputs": [
        {
          "internalType": "uint256",
          "name": "",
          "type": "uint256"
        }
      ],
      "stateMutability": "view",
      "type": "function"
    },
    {
      "inputs": [],
      "name": "claim",
      "outputs": [],
      "stateMutability": "nonpayable",
      "type": "function"
    },
    {
      "inputs": [],
      "name": "dVoucher",
      "outputs": [
        {
          "internalType": "contract DVoucherNFT",
          "name": "",
          "type": "address"
        }
      ],
      "stateMutability": "view",
      "type": "function"
    },
    {
      "inputs": [
        {
          "internalType": "uint256",
          "name": "_amount",
          "type": "uint256"
        }
      ],
      "name": "deposit",
      "outputs": [],
      "stateMutability": "nonpayable",
      "type": "function"
    },
    {
      "inputs": [],
      "name": "endBlock",
      "outputs": [
        {
          "internalType": "uint256",
          "name": "",
          "type": "uint256"
        }
      ],
      "stateMutability": "view",
      "type": "function"
    },
    {
      "inputs": [
        {
          "internalType": "uint256",
          "name": "_from",
          "type": "uint256"
        },
        {
          "internalType": "uint256",
          "name": "_to",
          "type": "uint256"
        }
      ],
      "name": "getMultiplier",
      "outputs": [
        {
          "internalType": "uint256",
          "name": "",
          "type": "uint256"
        }
      ],
      "stateMutability": "pure",
      "type": "function"
    },
    {
      "inputs": [],
      "name": "owner",
      "outputs": [
        {
          "internalType": "address",
          "name": "",
          "type": "address"
        }
      ],
      "stateMutability": "view",
      "type": "function"
    },
    {
      "inputs": [
        {
          "internalType": "address",
          "name": "_user",
          "type": "address"
        }
      ],
      "name": "pendingReward",
      "outputs": [
        {
          "internalType": "uint256",
          "name": "",
          "type": "uint256"
        }
      ],
      "stateMutability": "view",
      "type": "function"
    },
    {
      "inputs": [],
      "name": "renounceOwnership",
      "outputs": [],
      "stateMutability": "nonpayable",
      "type": "function"
    },
    {
      "inputs": [],
      "name": "rewardPerBlock",
      "outputs": [
        {
          "internalType": "uint256",
          "name": "",
          "type": "uint256"
        }
      ],
      "stateMutability": "view",
      "type": "function"
    },
    {
      "inputs": [
        {
          "internalType": "address",
          "name": "_dVoucherAddress",
          "type": "address"
        }
      ],
      "name": "setDVoucherAddress",
      "outputs": [],
      "stateMutability": "nonpayable",
      "type": "function"
    },
    {
      "inputs": [
        {
          "internalType": "address",
          "name": "_tokenAddress",
          "type": "address"
        }
      ],
      "name": "setTokenAddress",
      "outputs": [],
      "stateMutability": "nonpayable",
      "type": "function"
    },
    {
      "inputs": [
        {
          "internalType": "uint256",
          "name": "_tokenPrice",
          "type": "uint256"
        },
        {
          "internalType": "uint256",
          "name": "_rewardPerBlock",
          "type": "uint256"
        }
      ],
      "name": "setTokenPriceAndRewardPerBlock",
      "outputs": [],
      "stateMutability": "nonpayable",
      "type": "function"
    },
    {
      "inputs": [],
      "name": "startBlock",
      "outputs": [
        {
          "internalType": "uint256",
          "name": "",
          "type": "uint256"
        }
      ],
      "stateMutability": "view",
      "type": "function"
    },
    {
      "inputs": [],
      "name": "tokenAddress",
      "outputs": [
        {
          "internalType": "contract IERC20",
          "name": "",
          "type": "address"
        }
      ],
      "stateMutability": "view",
      "type": "function"
    },
    {
      "inputs": [
        {
          "internalType": "address",
          "name": "newOwner",
          "type": "address"
        }
      ],
      "name": "transferOwnership",
      "outputs": [],
      "stateMutability": "nonpayable",
      "type": "function"
    },
    {
      "inputs": [],
      "name": "updatePool",
      "outputs": [],
      "stateMutability": "nonpayable",
      "type": "function"
    },
    {
      "inputs": [
        {
          "internalType": "address",
          "name": "",
          "type": "address"
        }
      ],
      "name": "userInfo",
      "outputs": [
        {
          "internalType": "uint256",
          "name": "amount",
          "type": "uint256"
        },
        {
          "internalType": "uint256",
          "name": "rewardDebt",
          "type": "uint256"
        },
        {
          "internalType": "uint256",
          "name": "lastDepositTime",
          "type": "uint256"
        }
      ],
      "stateMutability": "view",
      "type": "function"
    },
    {
      "inputs": [
        {
          "internalType": "uint256",
          "name": "_amount",
          "type": "uint256"
        }
      ],
      "name": "withdraw",
      "outputs": [],
      "stateMutability": "nonpayable",
      "type": "function"
    }
  ],
  "bytecode": "0x608060405234801561001057600080fd5b50604051610fca380380610fca83398101604081905261002f916100e5565b61003833610079565b60018055600780546001600160a01b039586166001600160a01b031991821617909155600a939093556008919091556002805491909316911617905561012b565b600080546001600160a01b038381166001600160a01b0319831681178455604051919092169283917f8be0079c531659141344cd1fd0a4f28419497f9722a3daafe3b4186f6b6457e09190a35050565b80516001600160a01b03811681146100e057600080fd5b919050565b600080600080608085870312156100fb57600080fd5b610104856100c9565b93506020850151925060408501519150610120606086016100c9565b905092959194509250565b610e908061013a6000396000f3fe608060405234801561001057600080fd5b50600436106101215760003560e01c80638aa28550116100ad578063b6b55f2511610071578063b6b55f2514610253578063d4bfa4e614610266578063e3161ddd14610279578063f2fde38b14610281578063f40f0f521461029457600080fd5b80638aa285501461020b5780638ae39cac146102135780638da5cb5b1461021c5780638dbb1e3a1461022d5780639d76ea581461024057600080fd5b80634830bd15116100f45780634830bd15146101b457806348cd4cb1146101df5780634e71d92d146101e8578063715018a6146101f057806382181fbb146101f857600080fd5b8063083c6323146101265780631959a0021461014257806326a4e8d21461018c5780632e1a7d4d146101a1575b600080fd5b61012f600b5481565b6040519081526020015b60405180910390f35b610171610150366004610cbe565b60096020526000908152604090208054600182015460029092015490919083565b60408051938452602084019290925290820152606001610139565b61019f61019a366004610cbe565b6102a7565b005b61019f6101af366004610d09565b6102d1565b6007546101c7906001600160a01b031681565b6040516001600160a01b039091168152602001610139565b61012f600a5481565b61019f610480565b61019f61051d565b61019f610206366004610cbe565b610531565b61012f600181565b61012f60085481565b6000546001600160a01b03166101c7565b61012f61023b366004610d3b565b61055b565b6002546101c7906001600160a01b031681565b61019f610261366004610d09565b61057a565b61019f610274366004610d3b565b6107d8565b61019f6107eb565b61019f61028f366004610cbe565b610871565b61012f6102a2366004610cbe565b6108ea565b6102af6109bf565b600280546001600160a01b0319166001600160a01b0392909216919091179055565b600260015414156102fd5760405162461bcd60e51b81526004016102f490610d81565b60405180910390fd5b600260015533600090815260096020526040902080548211156103625760405162461bcd60e51b815260206004820152601860248201527f5769746864726177203a2065786365656420616d6f756e74000000000000000060448201526064016102f4565b61036a6107eb565b610372610a19565b811561041e578054610385908390610e03565b8155600654610395908390610e03565b60065560025460405163a9059cbb60e01b8152336004820152602481018490526001600160a01b039091169063a9059cbb90604401602060405180830381600087803b1580156103e457600080fd5b505af11580156103f8573d6000803e3d6000fd5b505050506040513d601f19601f8201168201806040525081019061041c9190610ce7565b505b600554815464e8d4a510009161043391610de4565b61043d9190610dd0565b600182015560405182815233907f884edad9ce6fa2440d8a54cc123490eb96d2768479d49ff9c7366125a9424364906020015b60405180910390a2505060018055565b600260015414156104a35760405162461bcd60e51b81526004016102f490610d81565b60026001553360009081526009602052604090206104bf6107eb565b6104c7610a19565b600554815464e8d4a51000916104dc91610de4565b6104e69190610dd0565b600182015560405133907fb449c24d261a59627b537c8c41c57ab559f4205c56bea745ff61c5521bece21490600090a25060018055565b6105256109bf565b61052f6000610c6e565b565b6105396109bf565b600780546001600160a01b0319166001600160a01b0392909216919091179055565b600060016105698484610e03565b6105739190610de4565b9392505050565b6002600154141561059d5760405162461bcd60e51b81526004016102f490610d81565b60026001553360009081526009602052604090206105b96107eb565b6105c1610a19565b8115610782576002546040516370a0823160e01b81523060048201526000916001600160a01b0316906370a082319060240160206040518083038186803b15801561060b57600080fd5b505afa15801561061f573d6000803e3d6000fd5b505050506040513d601f19601f820116820180604052508101906106439190610d22565b6002546040516323b872dd60e01b8152336004820152306024820152604481018690529192506001600160a01b0316906323b872dd90606401602060405180830381600087803b15801561069657600080fd5b505af11580156106aa573d6000803e3d6000fd5b505050506040513d601f19601f820116820180604052508101906106ce9190610ce7565b506002546040516370a0823160e01b81523060048201526000916001600160a01b0316906370a082319060240160206040518083038186803b15801561071357600080fd5b505afa158015610727573d6000803e3d6000fd5b505050506040513d601f19601f8201168201806040525081019061074b9190610d22565b90506107578282610e03565b9350836006546107679190610db8565b6006558254610777908590610db8565b835550504260028201555b600554815464e8d4a510009161079791610de4565b6107a19190610dd0565b600182015560405182815233907fe1fffcc4923d04b559f4d29a8bfc6cda04eb5b0d3c460751c2402c5c5cc9109c90602001610470565b6107e06109bf565b600391909155600855565b6000600b544311156107ff57600b54610801565b435b9050600454811161080f5750565b60065461081b57600455565b60006108296004548361055b565b905060006008548261083b9190610de4565b6006549091506108508264e8d4a51000610de4565b61085a9190610dd0565b6005546108679190610db8565b6005555050600455565b6108796109bf565b6001600160a01b0381166108de5760405162461bcd60e51b815260206004820152602660248201527f4f776e61626c653a206e6577206f776e657220697320746865207a65726f206160448201526564647265737360d01b60648201526084016102f4565b6108e781610c6e565b50565b6001600160a01b0381166000908152600960205260408120600b54829043111561091657600b54610918565b435b6005546004549192509082118015610931575060065415155b156109845760006109446004548461055b565b90506000600854826109569190610de4565b60065490915061096b8264e8d4a51000610de4565b6109759190610dd0565b61097f9084610db8565b925050505b6000836001015464e8d4a510008386600001546109a19190610de4565b6109ab9190610dd0565b6109b59190610e03565b9695505050505050565b6000546001600160a01b0316331461052f5760405162461bcd60e51b815260206004820181905260248201527f4f776e61626c653a2063616c6c6572206973206e6f7420746865206f776e657260448201526064016102f4565b3360009081526009602052604081206001810154600554825492939264e8d4a5100091610a4591610de4565b610a4f9190610dd0565b610a599190610e03565b90508015610c6a576000610a6f6103e883610dd0565b90508015610ade57600754604051632769c3d960e11b81526001600160a01b0390911690634ed387b290610aab90339060049086908201610d5d565b600060405180830381600087803b158015610ac557600080fd5b505af1158015610ad9573d6000803e3d6000fd5b505050505b6064610aec6103e884610e1a565b610af69190610dd0565b90508015610b6657600754604051632769c3d960e11b81526001600160a01b0390911690634ed387b290610b339033906003908690600401610d5d565b600060405180830381600087803b158015610b4d57600080fd5b505af1158015610b61573d6000803e3d6000fd5b505050505b600a610b73606484610e1a565b610b7d9190610dd0565b90508015610bed57600754604051632769c3d960e11b81526001600160a01b0390911690634ed387b290610bba9033906002908690600401610d5d565b600060405180830381600087803b158015610bd457600080fd5b505af1158015610be8573d6000803e3d6000fd5b505050505b610bf8600a83610e1a565b90508015610c6857600754604051632769c3d960e11b81526001600160a01b0390911690634ed387b290610c359033906001908690600401610d5d565b600060405180830381600087803b158015610c4f57600080fd5b505af1158015610c63573d6000803e3d6000fd5b505050505b505b5050565b600080546001600160a01b038381166001600160a01b0319831681178455604051919092169283917f8be0079c531659141344cd1fd0a4f28419497f9722a3daafe3b4186f6b6457e09190a35050565b600060208284031215610cd057600080fd5b81356001600160a01b038116811461057357600080fd5b600060208284031215610cf957600080fd5b8151801515811461057357600080fd5b600060208284031215610d1b57600080fd5b5035919050565b600060208284031215610d3457600080fd5b5051919050565b60008060408385031215610d4e57600080fd5b50508035926020909101359150565b6001600160a01b0393909316835260ff919091166020830152604082015260600190565b6020808252601f908201527f5265656e7472616e637947756172643a207265656e7472616e742063616c6c00604082015260600190565b60008219821115610dcb57610dcb610e2e565b500190565b600082610ddf57610ddf610e44565b500490565b6000816000190483118215151615610dfe57610dfe610e2e565b500290565b600082821015610e1557610e15610e2e565b500390565b600082610e2957610e29610e44565b500690565b634e487b7160e01b600052601160045260246000fd5b634e487b7160e01b600052601260045260246000fdfea26469706673582212202e7ee20547daa9a2be52ddda5c4473d2de57d7bc80f7630d2c48ed68ff3a6fff64736f6c63430008070033",
  "linkReferences": {},
  "deployedLinkReferences": {}
}