{
  "_format": "hh-sol-artifact-1",
  "contractName": "TradingComp",
  "sourceName": "contracts/TradingComp.sol",
  "abi": [
    {
      "inputs": [
        {
          "internalType": "address",
          "name": "_dVoucherAddress",
          "type": "address"
        },
        {
          "internalType": "uint256",
          "name": "_competitionId",
          "type": "uint256"
        }
      ],
      "stateMutability": "nonpayable",
      "type": "constructor"
    },
    {
      "anonymous": false,
      "inputs": [
        {
          "indexed": false,
          "internalType": "enum TradingComp.CompetitionStatus",
          "name": "status",
          "type": "uint8"
        },
        {
          "indexed": false,
          "internalType": "uint256",
          "name": "competitionId",
          "type": "uint256"
        }
      ],
      "name": "NewCompetitionStatus",
      "type": "event"
    },
    {
      "anonymous": false,
      "inputs": [
        {
          "indexed": true,
          "internalType": "address",
          "name": "previousOwner",
          "type": "address"
        },
        {
          "indexed": true,
          "internalType": "address",
          "name": "newOwner",
          "type": "address"
        }
      ],
      "name": "OwnershipTransferred",
      "type": "event"
    },
    {
      "anonymous": false,
      "inputs": [
        {
          "indexed": false,
          "internalType": "address",
          "name": "senderAddress",
          "type": "address"
        },
        {
          "indexed": false,
          "internalType": "uint256",
          "name": "claimedReward",
          "type": "uint256"
        }
      ],
      "name": "RewardClaimed",
      "type": "event"
    },
    {
      "anonymous": false,
      "inputs": [
        {
          "indexed": false,
          "internalType": "address",
          "name": "userAddress",
          "type": "address"
        },
        {
          "indexed": false,
          "internalType": "uint256",
          "name": "competitionId",
          "type": "uint256"
        }
      ],
      "name": "UserRegister",
      "type": "event"
    },
    {
      "anonymous": false,
      "inputs": [
        {
          "indexed": false,
          "internalType": "address[]",
          "name": "userAddresses",
          "type": "address[]"
        },
        {
          "indexed": false,
          "internalType": "uint256[]",
          "name": "ranking",
          "type": "uint256[]"
        },
        {
          "indexed": false,
          "internalType": "bool[]",
          "name": "selfWinned",
          "type": "bool[]"
        },
        {
          "indexed": false,
          "internalType": "uint256[]",
          "name": "selfCompReward",
          "type": "uint256[]"
        }
      ],
      "name": "UserUpdateMultiple",
      "type": "event"
    },
    {
      "inputs": [
        {
          "internalType": "address",
          "name": "_userAddress",
          "type": "address"
        }
      ],
      "name": "claimInformation",
      "outputs": [
        {
          "internalType": "bool",
          "name": "",
          "type": "bool"
        },
        {
          "internalType": "bool",
          "name": "",
          "type": "bool"
        },
        {
          "internalType": "uint256",
          "name": "",
          "type": "uint256"
        },
        {
          "internalType": "bool",
          "name": "",
          "type": "bool"
        },
        {
          "internalType": "uint256",
          "name": "",
          "type": "uint256"
        }
      ],
      "stateMutability": "view",
      "type": "function"
    },
    {
      "inputs": [],
      "name": "claimReward",
      "outputs": [],
      "stateMutability": "nonpayable",
      "type": "function"
    },
    {
      "inputs": [],
      "name": "competitionId",
      "outputs": [
        {
          "internalType": "uint256",
          "name": "",
          "type": "uint256"
        }
      ],
      "stateMutability": "view",
      "type": "function"
    },
    {
      "inputs": [],
      "name": "currentStatus",
      "outputs": [
        {
          "internalType": "enum TradingComp.CompetitionStatus",
          "name": "",
          "type": "uint8"
        }
      ],
      "stateMutability": "view",
      "type": "function"
    },
    {
      "inputs": [],
      "name": "dVoucher",
      "outputs": [
        {
          "internalType": "contract DVoucherNFT",
          "name": "",
          "type": "address"
        }
      ],
      "stateMutability": "view",
      "type": "function"
    },
    {
      "inputs": [],
      "name": "owner",
      "outputs": [
        {
          "internalType": "address",
          "name": "",
          "type": "address"
        }
      ],
      "stateMutability": "view",
      "type": "function"
    },
    {
      "inputs": [],
      "name": "register",
      "outputs": [],
      "stateMutability": "nonpayable",
      "type": "function"
    },
    {
      "inputs": [],
      "name": "renounceOwnership",
      "outputs": [],
      "stateMutability": "nonpayable",
      "type": "function"
    },
    {
      "inputs": [
        {
          "internalType": "address",
          "name": "newOwner",
          "type": "address"
        }
      ],
      "name": "transferOwnership",
      "outputs": [],
      "stateMutability": "nonpayable",
      "type": "function"
    },
    {
      "inputs": [
        {
          "internalType": "enum TradingComp.CompetitionStatus",
          "name": "_status",
          "type": "uint8"
        }
      ],
      "name": "updateCompetitionStatus",
      "outputs": [],
      "stateMutability": "nonpayable",
      "type": "function"
    },
    {
      "inputs": [
        {
          "internalType": "address[]",
          "name": "_addressToUpdate",
          "type": "address[]"
        },
        {
          "internalType": "uint256[]",
          "name": "_ranking",
          "type": "uint256[]"
        },
        {
          "internalType": "bool[]",
          "name": "_selfWinned",
          "type": "bool[]"
        },
        {
          "internalType": "uint256[]",
          "name": "_selfCompReward",
          "type": "uint256[]"
        }
      ],
      "name": "updateUserStatusMultiple",
      "outputs": [],
      "stateMutability": "nonpayable",
      "type": "function"
    },
    {
      "inputs": [
        {
          "internalType": "address",
          "name": "",
          "type": "address"
        }
      ],
      "name": "userTradingStats",
      "outputs": [
        {
          "internalType": "bool",
          "name": "hasRegistered",
          "type": "bool"
        },
        {
          "internalType": "bool",
          "name": "hasClaimed",
          "type": "bool"
        },
        {
          "internalType": "uint256",
          "name": "ranking",
          "type": "uint256"
        },
        {
          "internalType": "bool",
          "name": "selfWinned",
          "type": "bool"
        },
        {
          "internalType": "uint256",
          "name": "selfCompReward",
          "type": "uint256"
        }
      ],
      "stateMutability": "view",
      "type": "function"
    }
  ],
  "bytecode": "0x60a060405234801561001057600080fd5b5060405161141a38038061141a83398101604081905261002f916100ad565b6100383361005d565b60609190911b6001600160601b0319166080526001556002805460ff191690556100e7565b600080546001600160a01b038381166001600160a01b0319831681178455604051919092169283917f8be0079c531659141344cd1fd0a4f28419497f9722a3daafe3b4186f6b6457e09190a35050565b600080604083850312156100c057600080fd5b82516001600160a01b03811681146100d757600080fd5b6020939093015192949293505050565b60805160601c6112f96101216000396000818161013d015281816108bf0152818161096201528181610a050152610a9c01526112f96000f3fe608060405234801561001057600080fd5b50600436106100b45760003560e01c8063a2ce47fb11610071578063a2ce47fb146101a7578063a849d38f146101ba578063b88a802f146101cd578063e8c5408d146101d5578063ef8a9235146101e8578063f2fde38b1461020257600080fd5b80631aa3a008146100b95780631de403e3146100c35780634830bd1514610138578063715018a614610177578063875120751461017f5780638da5cb5b14610196575b600080fd5b6100c1610215565b005b6101076100d1366004610f58565b6003602081905260009182526040909120805460018201546002830154929093015460ff80831694610100909304811693169085565b60408051951515865293151560208601529284019190915215156060830152608082015260a0015b60405180910390f35b61015f7f000000000000000000000000000000000000000000000000000000000000000081565b6040516001600160a01b03909116815260200161012f565b6100c161032d565b61018860015481565b60405190815260200161012f565b6000546001600160a01b031661015f565b6100c16101b5366004610f7a565b610341565b6101076101c8366004610f58565b6105b7565b6100c16106a7565b6100c16101e3366004611059565b610b51565b6002546101f59060ff1681565b60405161012f91906111ab565b6100c1610210366004610f58565b610dbd565b3360008181526003602052604090205460ff161561026b5760405162461bcd60e51b815260206004820152600e60248201526d121054d7d49151d254d51154915160921b60448201526064015b60405180910390fd5b600060025460ff16600481111561028457610284611297565b146102c75760405162461bcd60e51b81526020600482015260136024820152722727aa2fa4a72fa922a3a4a9aa2920aa24a7a760691b6044820152606401610262565b6001600160a01b038116600081815260036020908152604091829020805460ff19166001908117825554835194855291840191909152917fdec4c13f1daa034ca2a06b9cee6c16accc0bd81ad27afacc15604c4f5cea09bb910160405180910390a15050565b610335610e36565b61033f6000610e90565b565b610349610e36565b6002805460ff16600481111561036157610361611297565b1461039b5760405162461bcd60e51b815260206004820152600a6024820152691393d517d0d313d4d15160b21b6044820152606401610262565b8685811480156103aa57508084145b80156103b557508082145b6103f65760405162461bcd60e51b815260206004820152601260248201527113115391d51217d393d517d3505510d2115160721b6044820152606401610262565b60005b81811015610566576000600360008c8c85818110610419576104196112ad565b905060200201602081019061042e9190610f58565b6001600160a01b031681526020810191909152604001600020805490915060ff1661048c5760405162461bcd60e51b815260206004820152600e60248201526d1393d517d49151d254d51154915160921b6044820152606401610262565b8054610100900460ff16156104d15760405162461bcd60e51b815260206004820152600b60248201526a121054d7d0d3105253515160aa1b6044820152606401610262565b8888838181106104e3576104e36112ad565b6020029190910135600183015550868683818110610503576105036112ad565b9050602002016020810190610518919061103e565b60028201805460ff1916911515918217905560ff161561055357848483818110610544576105446112ad565b60200291909101356003830155505b508061055e8161123c565b9150506103f9565b507f8d9218c60a74a40e7319b33254ac461c102426dd0e3c33c3a2340fda3fe1d25b89898989898989896040516105a49897969594939291906110f6565b60405180910390a1505050505050505050565b6001600160a01b0381166000908152600360208181526040808420815160a081018352815460ff80821615158352610100909104811615159482019490945260018201549281019290925260028101549092161515606082015290820154608082015282918291829182919060025460ff16600481111561063a5761063a611297565b1415801561065f5750600460025460ff16600481111561065c5761065c611297565b14155b15610679575194506000935083925082915081905061069e565b8060000151816020015182604001518360600151846080015195509550955095509550505b91939590929450565b33600081815260036020818152604092839020835160a081018552815460ff80821615158084526101009092048116151594830194909452600183015495820195909552600282015490921615156060830152909101546080820152906107415760405162461bcd60e51b815260206004820152600e60248201526d1393d517d49151d254d51154915160921b6044820152606401610262565b8060200151156107815760405162461bcd60e51b815260206004820152600b60248201526a121054d7d0d3105253515160aa1b6044820152606401610262565b600360025460ff16600481111561079a5761079a611297565b146107d95760405162461bcd60e51b815260206004820152600f60248201526e4e4f545f494e5f434c41494d494e4760881b6044820152606401610262565b600081604001511180156107f1575060658160400151105b6108355760405162461bcd60e51b81526020600482015260156024820152744e4f545f434c41494d41424c455f52414e4b494e4760581b6044820152606401610262565b6001600160a01b038216600090815260036020526040808220805461ff001916610100179055820151610869906065611225565b610874906064611206565b905081606001511561089257608082015161088f90826111da565b90505b60006108a06103e8836111f2565b9050801561092b57604051632769c3d960e11b81526001600160a01b037f00000000000000000000000000000000000000000000000000000000000000001690634ed387b2906108f8908790600490869082016110d2565b600060405180830381600087803b15801561091257600080fd5b505af1158015610926573d6000803e3d6000fd5b505050505b60646109396103e884611257565b61094391906111f2565b905080156109cf57604051632769c3d960e11b81526001600160a01b037f00000000000000000000000000000000000000000000000000000000000000001690634ed387b29061099c90879060039086906004016110d2565b600060405180830381600087803b1580156109b657600080fd5b505af11580156109ca573d6000803e3d6000fd5b505050505b600a6109dc606484611257565b6109e691906111f2565b90508015610a7257604051632769c3d960e11b81526001600160a01b037f00000000000000000000000000000000000000000000000000000000000000001690634ed387b290610a3f90879060029086906004016110d2565b600060405180830381600087803b158015610a5957600080fd5b505af1158015610a6d573d6000803e3d6000fd5b505050505b610a7d600a83611257565b90508015610b0957604051632769c3d960e11b81526001600160a01b037f00000000000000000000000000000000000000000000000000000000000000001690634ed387b290610ad690879060019086906004016110d2565b600060405180830381600087803b158015610af057600080fd5b505af1158015610b04573d6000803e3d6000fd5b505050505b604080516001600160a01b0386168152602081018490527f106f923f993c2149d49b4255ff723acafa1f2d94393f561d3eda32ae348f7241910160405180910390a150505050565b610b59610e36565b6000816004811115610b6d57610b6d611297565b1415610bad5760405162461bcd60e51b815260206004820152600f60248201526e24a72fa922a3a4a9aa2920aa24a7a760891b6044820152606401610262565b6001816004811115610bc157610bc1611297565b1415610c2857600060025460ff166004811115610be057610be0611297565b14610c235760405162461bcd60e51b81526020600482015260136024820152722727aa2fa4a72fa922a3a4a9aa2920aa24a7a760691b6044820152606401610262565b610d54565b6002816004811115610c3c57610c3c611297565b1415610c9357600160025460ff166004811115610c5b57610c5b611297565b14610c235760405162461bcd60e51b81526020600482015260086024820152672727aa2fa7a822a760c11b6044820152606401610262565b6003816004811115610ca757610ca7611297565b1415610cff576002805460ff166004811115610cc557610cc5611297565b14610c235760405162461bcd60e51b815260206004820152600a6024820152691393d517d0d313d4d15160b21b6044820152606401610262565b600360025460ff166004811115610d1857610d18611297565b14610d545760405162461bcd60e51b815260206004820152600c60248201526b4e4f545f434c41494d494e4760a01b6044820152606401610262565b6002805482919060ff19166001836004811115610d7357610d73611297565b02179055506002546001546040517fb03ada2e49ea0fe21c9b5d20b1703c4944e6e1e3277624c982f4d6ed78e4b43392610db29260ff909116916111bf565b60405180910390a150565b610dc5610e36565b6001600160a01b038116610e2a5760405162461bcd60e51b815260206004820152602660248201527f4f776e61626c653a206e6577206f776e657220697320746865207a65726f206160448201526564647265737360d01b6064820152608401610262565b610e3381610e90565b50565b6000546001600160a01b0316331461033f5760405162461bcd60e51b815260206004820181905260248201527f4f776e61626c653a2063616c6c6572206973206e6f7420746865206f776e65726044820152606401610262565b600080546001600160a01b038381166001600160a01b0319831681178455604051919092169283917f8be0079c531659141344cd1fd0a4f28419497f9722a3daafe3b4186f6b6457e09190a35050565b80356001600160a01b0381168114610ef757600080fd5b919050565b60008083601f840112610f0e57600080fd5b50813567ffffffffffffffff811115610f2657600080fd5b6020830191508360208260051b8501011115610f4157600080fd5b9250929050565b80358015158114610ef757600080fd5b600060208284031215610f6a57600080fd5b610f7382610ee0565b9392505050565b6000806000806000806000806080898b031215610f9657600080fd5b883567ffffffffffffffff80821115610fae57600080fd5b610fba8c838d01610efc565b909a50985060208b0135915080821115610fd357600080fd5b610fdf8c838d01610efc565b909850965060408b0135915080821115610ff857600080fd5b6110048c838d01610efc565b909650945060608b013591508082111561101d57600080fd5b5061102a8b828c01610efc565b999c989b5096995094979396929594505050565b60006020828403121561105057600080fd5b610f7382610f48565b60006020828403121561106b57600080fd5b813560058110610f7357600080fd5b81835260006001600160fb1b0383111561109357600080fd5b8260051b8083602087013760009401602001938452509192915050565b600581106110ce57634e487b7160e01b600052602160045260246000fd5b9052565b6001600160a01b0393909316835260ff919091166020830152604082015260600190565b6080808252810188905260008960a08301825b8b811015611137576001600160a01b0361112284610ee0565b16825260209283019290910190600101611109565b50602091508381038285015261114e818a8c61107a565b8481036040860152878152889150820160005b888110156111865761117283610f48565b151582529183019190830190600101611161565b50848103606086015261119a81878961107a565b9d9c50505050505050505050505050565b602081016111b982846110b0565b92915050565b604081016111cd82856110b0565b8260208301529392505050565b600082198211156111ed576111ed61126b565b500190565b60008261120157611201611281565b500490565b60008160001904831182151516156112205761122061126b565b500290565b6000828210156112375761123761126b565b500390565b60006000198214156112505761125061126b565b5060010190565b60008261126657611266611281565b500690565b634e487b7160e01b600052601160045260246000fd5b634e487b7160e01b600052601260045260246000fd5b634e487b7160e01b600052602160045260246000fd5b634e487b7160e01b600052603260045260246000fdfea264697066735822122079be779993602d24ac7f7118683aa23fcb773aa11917aebea4465fb11169c95764736f6c63430008070033",
  "linkReferences": {},
  "deployedLinkReferences": {}
}